:020000040800F2
:1000000000400120B9410008F7410008F94100080B
:10001000FB410008FD410008FF410008000000000E
:100020000000000000000000000000000142000885
:1000300003420008000000000542000807420008D3
:100040000B4200080D4200080F420008A50E0008F0
:100050001342000815420008174200081942000820
:100060001B4200081D4200081F42000821420008F0
:1000700023420008254200082742000829420008C0
:100080002B4200082D4200082F4200083142000890
:100090003342000835420008374200083942000860
:1000A0003B420008791000083F4200084142000826
:1000B0004342000845420008474200084942000800
:1000C0004B4200084D4200084F42000851420008D0
:1000D0005342000855420008F9140008F5010008D1
:1000E0005B4200085D4200085F4200086142000870
:1000F0006342000865420008674200086942000840
:100100006B4200086D4200086F420008714200080F
:1001100073420008754200087742000879420008DF
:100120007B42000810B5054C237833B9044B13B15A
:100130000448AFF300800123237010BD200100208C
:1001400000000000F4DA0008084B10B51BB10849A4
:100150000848AFF300800848036803B910BD074B97
:10016000002BFBD0BDE81040184700BF0000000086
:1001700024010020F4DA0008200100200000000023
:10018000154B002B08BF134B9D46A3F5803A002169
:100190008B460F461348144A121A04F028FE0F4BE0
:1001A000002B00D098470E4B002B00D09847002022
:1001B000002104000D000D48002802D00C48AFF3C8
:1001C000008004F0E3FD2000290003F0EBFE04F0C2
:1001D000C9FD00BF00000800004001200000000031
:1001E0000000000020010020881400200000000012
:1001F000000000002DE9F043684B83B01A8800210D
:1002000092B201929A886648D2B28DF80320198082
:100210000278002A4DD1019B1B075FD4614A9DF8EB
:100220000330002B68D0604C138827469DF80310DC
:100230009BB2C9B25D4DDFF86CE1E1544FF00108AB
:10024000002101EBC10301EB43032B449E7C06F02C
:10025000FF0C86B95E7C06F0FF09002E5BD1168884
:10026000B6B214F806C01E7CF6B29E5DB44500F02E
:10027000848083F8109001310229E2D113884C491F
:100280009BB2E35C4B4E0D78755D9D4258D00023C8
:100290000B70138848499BB2E35C484D0C782C5D89
:1002A0009C425BD000230B70138801339BB21380F8
:1002B00022E09B88DBB28DF803309DF803300D2BD4
:1002C00019D09DF803300A2B15D09DF80330202B50
:1002D00011D03B4B0121334A19700DE002F0FF01B0
:1002E000324D304A324C344B1180217019702974D0
:1002F00085F8231093E72B4A13882A4A9BB2B3F55B
:10030000806F05D340F2FF302E4B01211080197011
:1003100003B0BDE8F0831688B6B2A65D0A2EAAD156
:10032000BEF80060B6B2013EBE5D0D2EA3D180F8CE
:10033000008083F8128083F811C083F810C09AE718
:100340000B780133DBB20B700B78012BA1D91E4D5A
:100350000123002603700E702B709AE70B7801338F
:10036000DBB20B700B78042B9ED9174B01260025AE
:10037000022406700D701C7096E71E7C0136F6B2E2
:100380001E741E7CF6B29E5D06F0FF0C002E7FF4FC
:1003900072AF83F810C083F811806CE7004800400A
:1003A00042050020400500203C0100200000002004
:1003B0003C0500206CA300083D05002064A3000854
:1003C000430500203E0500204405002070B40B4A80
:1003D0000B4E0C4D0C4C0D480D49002333702B7007
:1003E000237003700B8013749374537482F823305A
:1003F00082F8253082F8243070BC7047000000205D
:1004000044050020420500203E0500204305002051
:10041000400500202DE9F04F002483B03D4E0194AB
:1004200034780D9F64B9019CA74203D808E0019D70
:10043000AF4205D9019C013401943578002DF6D0E6
:10044000347804F0FF08F4B90AB182F800800BB1E7
:1004500000221A700023037018462F4F2F4D304C86
:100460003049314A33703B702B7023700B8013740A
:100470009374537482F8233082F8253082F8243044
:1004800003B0BDE8F08FDFF890A00124DFF894906E
:100490008AF80040B9F800C01FFA8CFCD0B1BCF15A
:1004A000000F33D0B1F1010B32D00CF1FF3E1FFA37
:1004B0008EFE1E490EF1010E451E002401E05C4532
:1004C00005D00F5D0134744505F8017FF7D1A4B262
:1004D00000210155114C0AB12178117010490BB15E
:1004E0000A781A700C9B33B1B8F1020F0C9A0CBF4A
:1004F0000123002313700023337060468AF8003014
:10050000094A23700B70A9F80030B0E76446DFE7B2
:100510005C46DDE744050020420500203E05002042
:100520004305002040050020000000203C01002081
:10053000F0B50E4ADFF84CE00D4F0E4E0E4D0F4C4D
:1005400000238EF800303B7033702B7023801374BF
:100550009374537482F8233082F8253082F8243063
:100560000146BDE8F040064802F00EBF0000002042
:10057000420500203E0500204305002040050020E4
:100580000048004044050020F0B5044683B02A48E6
:10059000FFF7CEFF0023294A019313782BB107E020
:1005A000019B01330193137813B9019B9C42F7D847
:1005B0001378224D03F0FF022BB3022A204F25D0DF
:1005C0000123204E3B7033881F4A9BB20024104603
:1005D0001E49D45405F0FAFAA8B1007A1C4B1D4903
:1005E0001D4A3038C0B22C703C700C7014703480CE
:1005F0001C749C745C7483F8234083F8254083F852
:10060000244003B0F0BDFF2003B0F0BD104A114EEE
:10061000114C0C490023FF202B703B70337023706A
:100620000B8013749374537482F8233082F825304E
:1006300082F8243003B0F0BD04A200084405002075
:1006400042050020400500203C01002014A20008C3
:10065000000000203E05002043050020F0B587B0D3
:1006600003461B4A0C4601A8142105F0BDF901A858
:10067000FFF75EFF0023174A009313782BB107E0C2
:10068000009B01330093137813B9009B9C42F7D869
:100690001378104903F0FF00C3B10023022808BFFC
:1006A00018460D4A0D4F0E4E0E4D0F4C0B7018BFD5
:1006B00001203B7033702B70238013749374537438
:1006C00082F8233082F8253082F8243007B0F0BD5C
:1006D00020A2000844050020000000204205002060
:1006E0003E05002043050020400500202DE9F04F85
:1006F000514C93B003938146E36820688A461546BF
:100700006168A26806AC0FC44C494D48BDF87070D2
:100710001D9E4C4C02F038FE0023049323782BB12D
:1007200007E0049B01330493237813B9049B9E4292
:10073000F7D82378434903F0FF02002B74D000233D
:100740000B704149DFF814810B704049DFF810B19C
:100750000B703F49022A0B70ABF8003088F810305C
:1007600088F8123088F8113088F8233088F825305E
:1007700088F824305CD037498DE8A00053464A46BB
:100780000AA805F063F90AA92D4802F0FDFDCFB1D2
:10079000039D2F44A94615F8013B12AA02EB13133F
:1007A00013F8301C264802F0E9FD99F8003012AA2F
:1007B00003F00F031344224813F8301C02F0DEFD4F
:1007C000BD42E7D124491E4802F0DEFD0023059317
:1007D00023782BB107E0059B01330593237813B9E8
:1007E000059B9E42F7D82378164903F0FF02DBB140
:1007F00000230B701449022A0B7014490B70144922
:100800000B70ABF8003088F8103088F8123088F898
:10081000113088F8233088F8253088F8243007D044
:10082000042013B0BDE8F08F002013B0BDE8F08FB6
:10083000012013B0BDE8F08FF4A1000830A2000839
:100840000048004044050020420500203E050020ED
:100850004305002040A2000850CD00080000002001
:1008600040050020F8B5374DAA7C4AB902F0FF03D5
:1008700008B1FF22027009B100220A801846F8BDB3
:100880000746314E314A33880C469BB20021D15481
:1008900010462F4905F09AF917B1437A303B3B7067
:1008A00084B300232380C27A0B30303A092A46D819
:1008B000194603EB83035A0092B222800378303A40
:1008C00013449BB2238010F8012F0131303A092ADA
:1008D000C9B22BD80529ECD1002213461D4F1E4C5E
:1008E0001E481F493A70227002700A7032802A74C2
:1008F000AA746A7485F8232085F8252085F82420B9
:100900001846F8BD134B14481449154A1C7004705E
:1009100001230C70147034802C74AC746C7485F8E2
:10092000234085F8254085F82440A7E74B1F18BFD2
:100930000123084F084C094809490022D2E7012346
:10094000F7E700BF00000020400500203C01002028
:100950005CA2000844050020420500203E0500205E
:1009600043050020F0B5254DADF5057D95F8252012
:100970002AB902F0FF0318460DF5057DF0BD0646C5
:100980001F4F20493A884FF0000E92B202AC01F896
:1009900002E00846234601AA1B4905F07BF80198AE
:1009A0009EB148B32346721E04EB000E0DF5027C87
:1009B00001E0634507D013F8011B734502F8011FDE
:1009C000A3EB0401F5D100237354104E104C1149D0
:1009D000114A002380B2337023700B7013703B8078
:1009E0002B74AB746B7485F8233085F8253085F84B
:1009F00024300DF5057DF0BD0146E4E70000002040
:100A0000400500203C01002068A2000844050020A9
:100A1000420500203E050020430500202DE9F0435B
:100A2000AFB017461E4602460B4604A86549379DDF
:100A300005F00CF804A8FFF77BFD634C002303933B
:100A400023782BB107E0039B01330393237813B979
:100A5000039B9D42F7D82378DFF86C9103F0FF00E9
:100A600073B302282FD0DFF88081584AB8F80030DD
:100A700010469BB256490025D55405F0A7F80EA99B
:100A80000DF10A030191009309AA02AB514905F047
:100A900001F8042830D0504B504C5149514A89F844
:100AA0000050022025700D701570A8F800501D74BC
:100AB0009D745D7483F8235083F8255083F8245087
:100AC0002FB0BDE8F083454E454D464C46490023C6
:100AD000414A89F80030012033702B7023700B805D
:100AE00013749374537482F8233082F8253082F89B
:100AF00024302FB0BDE8F083369B002B4CD0BDF8DE
:100B00000A305900002B47D02A4619E01B014FFA42
:100B100083FE15F87F5CA5F13003DBB2092B05D904
:100B2000A5F14103052B21D8A5F137035BB20132B2
:100B300092B25500EDB243EA0E038D4203702BDAF8
:100B40002EAB1D4415F880EC369B9818AEF130039F
:100B5000DBB2092BDAD9AEF14103052B0FD8AEF188
:100B6000370343F303034FEA031ED2E7A5F1610302
:100B7000052B9ABFA5F157035BB20023D7E7AEF16F
:100B80006103052B9DBFAEF1570343F303034FEA07
:100B9000031E4FF0000EBCE71FB109A9384604F050
:100BA000F2FF16B1BDF8083033800C4E0C4D0D49E4
:100BB00000232370084A337004202B700B70A8F8B0
:100BC00000308DE784A20008440500203C0100208D
:100BD00098A20008A4A200080000002042050020FE
:100BE0003E050020430500204005002010B50446C6
:100BF0009CB01F48FFF79CFC00230DF10B020092F4
:100C000001941A4603A86421FFF704FC9DF80B30F9
:100C1000FBB9E0B103A8174904F0D8FF30B38379DA
:100C20002C2B20D0FBB1C279303B9BB22C2A19B2BD
:100C300007D032B103EB8303303A02EB43039BB29C
:100C400019B29A1E1C2A07D85800713800B21CB07D
:100C500010BD00201CB010BD1F2914BF6FF06E0026
:100C60006FF03200F3E76FF06E00F0E70248EEE756
:100C7000C8A20008D4A2000816FCFFFF30B50C463D
:100C80009DB005461F48FFF753FC0DF10B020023F2
:100C90000194009203A81A466421FFF7BBFB9DF85C
:100CA0000B4004B928B91DB300242C7020461DB098
:100CB00030BD03A8144904F089FF0028F6D0FDB127
:100CC000C1790D291AD02A46073005F1310401E017
:100CD000A24211D002F8011B10F8011F531B0D296D
:100CE000DBB2F5D1012420460022EA541DB030BD0C
:100CF0002C4620461DB030BD3123F3E72346F1E7F3
:100D00000124D3E7DCA20008E8A2000830B50C46B5
:100D10009DB005461D48FFF70BFC0DF10B020023AB
:100D20000194009203A81A466421FFF773FB9DF813
:100D30000B40ECB9E0B103A8154904F047FF0DB32F
:100D4000817A0D2920D000F10A042B4605F13100EB
:100D500001E0834214D003F8011B14F8011F5A1B51
:100D60000D2992B2F5D100230120AB541DB030BD46
:100D70001DB1002028701DB030BD28461DB030BD0B
:100D80003122F0E70120F6E72246ECE7F0A2000866
:100D9000FCA2000830B50378ADF5057D73B10446BB
:100DA000002302E0B3F5E17F25D014F8012F0133D1
:100DB0009BB2002AF6D1B3F5E17F18D00C46104A59
:100DC0004FF40071009004A804F00EFE04A8FFF791
:100DD000AFFB0DF10F0500231A460194009519464B
:100DE0001846FFF717FB2A78B2FA82F2520910462A
:100DF0000DF5057D30BD002210460DF5057D30BD99
:100E000008A3000810B504469EB01348FFF790FBF6
:100E10000DF10F02002300926421019405A81A46E7
:100E2000FFF7F8FA05A80D4904F0D0FE30B104AA86
:100E30000B4904F02FFE049B012B08D09DF80F00F6
:100E40000130C0B2B0FA80F040091EB010BD0028D9
:100E5000F4D09DF80F00F5E720A300082CA30008AC
:100E600034A3000810B50C4684B098B90B48FFF7BE
:100E70005FFB00230DF10F028DE8140019461A469E
:100E80001846FFF7C7FA9DF80F00B0FA80F0400946
:100E900004B010BD0248FFF74BFBEAE754A300087B
:100EA00044A30008094A0A4B4FF4801151611A68A3
:100EB000084942F480721A60CA6822F48062CA60EB
:100EC0001A6822F480721A60704700BF0004014063
:100ED0000070004000280040F0B42E4B08242E4A39
:100EE000C3F8804013682D4C2D4D43F4807313607C
:100EF000CA274FF480135326676266626B61E3680A
:100F000023F48063E360A36823F48843A360E36869
:100F10005D0706D4234B01E0013B02D0E268520793
:100F2000FAD531B31D4B58619A6822F007029A60D6
:100F30009A6842F004029A60184A1748936800249D
:100F400043F4884393600168154B21F4807101607C
:100F500054621A680F4C42F480121A609A6812495F
:100F6000082542F4801201209A6025600870F0BCC8
:100F700070470E4B0003A3FB0023084A9B09013B6B
:100F80005361936823F007039360936843F0010370
:100F90009360D1E700E100E00070004000280040CD
:100FA0000004014080841E0045050020D34D6210DE
:100FB0001C4B1B78002B34D01B491C4B0A6942F098
:100FC00004020A611A6842F005021A601A6822F0E7
:100FD00002021A6030BF16490B6843F001030B6030
:100FE0000B68980706D4134B01E0013B02D00A6856
:100FF0009207FAD50E498B6823F003038B608B6848
:1010000043F001038B608B6803F00303012B08D1CD
:10101000084A01E0013A04D08B6803F00303012B76
:10102000F8D070474505002000ED00E0007000405A
:101030000038024080841E0070B5164642B10C464E
:101040008D1814F8011B034802F098F9AC42F8D14E
:10105000304670BD0038014070B5164642B10C46AE
:101060008D18044802F0A0F904F8010BAC42F8D145
:10107000304670BD00380140194B1A8A900707D5D9
:1010800018490A6801320A605A6B02F57A725A638B
:10109000134B1B8A590714D5134B1B8A5A0606D4C7
:1010A000124B1B781BB9124A1368013313600E4BA5
:1010B0001B8A5B0609D40A4A936B03F543435033FA
:1010C0009363074B00221A827047084B1A78002A54
:1010D000F1D1074A1268002AEDD001221A70EAE71E
:1010E0000008014048050020000802404C0500208F
:1010F00058050020014B1868704700BF48050020C4
:10110000034A116813685B1A8342FBD3704700BF20
:1011100048050020034B202208B91A8370475A83E0
:10112000704700BF000002400A4A4FF4807082B04E
:1011300000230949108301E0019B013301930A68F0
:10114000019BB3EB520FF7D3024B4FF480725A83DB
:1011500002B07047000802405005002010B4164B42
:10116000164C174983B00022DC60D960ADF8062028
:10117000BDF806309BB23E2B18D8BDF80630BDF83E
:1011800006209BB29B0092B203F1006350F822202C
:1011900003F500231A60BDF8063001339BB2ADF8A9
:1011A0000630BDF806309BB23E2BE6D9024B012239
:1011B0005A6003B010BC7047003C0240EFCDAB89D1
:1011C00005040302FC22014903F006BE00000808E2
:1011D00010B40478ECB1F1B1002213460AE09A424F
:1011E00018BF8454013292B201339BB2C45C64B123
:1011F00099420AD07F2CF2D1541E002AF4D0013338
:101200009BB2A2B2C45C002CF2D10023835410BC68
:1012100070472246F9E70A46F7E700BFF0B5884A6B
:1012200083B01368002143F0010313600191136838
:101230009C070DD4019B83498B4203D908E0019B95
:101240008B4205D8019B0133019313689807F6D5AB
:101250007B4C7D4DA268002342F00102A260E1694F
:101260007A4A41F00701E161606A4FF4E13140F4EC
:1012700018106062266A764846F4804646F00C06EE
:1012800026622E68734F46F4201646F494662E604C
:101290002E6A46F4EE462E626E6A46F4EE666E6282
:1012A00002F088F80123694A4FF416516A4802F0A7
:1012B00081F86A4B40225A603B680021586804F06C
:1012C000E1FA3B680021986804F0DCFA644804F015
:1012D0008DFA636A43F080536362636B13F40075A5
:1012E0003DD1604804F082FA5F49604A0B68CA2623
:1012F00043F4807353200B6056625062636B43F477
:10130000807363630195636B9A050DD4019B4D4A0D
:10131000934203D908E0019B934205D8019B013316
:101320000193636B9B05F6D5019A464B9A4200F2F6
:1013300082804F4C0023237041494C484B6B4A4AF2
:1013400043F4820300254B634562136823F48073E2
:101350001360237863B1474804F048FA08E0444C2E
:1013600000234548237004F041FA2378002BF2D182
:10137000424B4FF480425A834CF250371A6833493B
:1013800042F0805242F420221A609A883C4892B27D
:1013900042F440729A805A6A304C42F044025A62D7
:1013A00000F08AFB374804F021FA37494FF44073C4
:1013B0004B830A68012342F425020A60486A234AE3
:1013C00040F4EE4048624FF4E131304801F0F2FF62
:1013D000802363602E4804F009FA2E4B4FF47A7292
:1013E0005A6301214FF000720F20062681259F636A
:1013F00018859E8128481D809982226004F0F6F9A4
:10140000264804F0F3F9264A0023264913600868A9
:101410000B681B1AB3F57A7F07D213680133136088
:101420000B681B1AB3F57A7FF7D311681E4804F0D6
:1014300057F903B0F0BD0E4C012323707CE700BFC9
:10144000003802407F841E00000002400024F400A7
:1014500000380140D80000200044004000E100E0D6
:1014600070A300089CA30008007000400028004002
:1014700054050020CCA30008B0A3000800040240DB
:1014800000540040E8A30008000802400048004063
:10149000FCA300080008014010A4000828A40008CC
:1014A00050050020480500204CA4000800B500238A
:1014B00083B0014600935122024800F059FA03B06C
:1014C0005DF804FB0054004000B585B00DF10F033A
:1014D00001460093AA220123064800F0B5F818B18E
:1014E0007F2005B05DF804FB9DF90F0005B05DF8A5
:1014F00004FB00BF00540040F0B4354B82B01A88A2
:10150000002192B201929A883248D2B28DF803201B
:1015100019800378002B36D140F2FE3603F0FF022B
:10152000019B2D4C13F0080F2C4B2D4D1CBF1A8026
:1015300022701A889DF8031092B2C9B2A9541A8871
:10154000264992B2B24203D80A88013292B20A8086
:101550002178244E9DF80320715C1F4E9142224A4F
:1015600014D000212170117801F0FF0601B91E800E
:1015700012781D493AB11B88184A9BB2013BEB5CBB
:10158000174D0A2B12D002B0F0BC7047117801F051
:10159000FF070029E5D131780131C9B231703178C6
:1015A0000529E5D9012137701170E1E713889BB255
:1015B000023BEB5C0D2BE6D1138800269BB2023B6D
:1015C0000127EE540E70168026700770DBE700BF0F
:1015D00000440040600900205C0900205E090020F2
:1015E0005C05002064A400085D09002070B4144E5E
:1015F0003378EBB1B0B1134A147804F0FF037CB137
:101600000139002919DD0024234601E08B4207DA65
:10161000155D5C1CC554A3B2D55C1C46002DF5D1EC
:101620000022C254002301223370104670BC704760
:1016300003F0FF02104670BC70470023F0E700BFC4
:10164000600900205C0500200BB903207047F0B54D
:101650008FB0149C002C4BD004880025A4B244F415
:10166000807404800295848AE7070DD4029C944D0F
:10167000AC4203D908E0029CAC4205D8029C01347C
:101680000294848AE607F6D5029C8D4DAC421BD8A5
:10169000490000248EB206820394848AA40706D5EA
:1016A00008E0039C01340394848AA70702D4039CB6
:1016B000AC42F6D9039D824CA54202D8058BEF07B8
:1016C00018D402200FB0F0BD01200FB0F0BD0B9672
:1016D000858A6D0606D508E00B9D01350B95858A38
:1016E0006D0602D40B9D8D42F6D90B9D8D426AD9B1
:1016F0000320EAE792B2002502820495828A160648
:1017000006D508E0049A01320492828A150602D4B2
:10171000049AA242F6D9049A694CA242E8D80288F7
:10172000002592B242F4807202800595828AD60723
:1017300009D405E0059A01320592828AD20702D4C3
:10174000059AA242F6D9059C5D4A9442BCD8012B69
:1017500041F001013AD0022B00F088800024018280
:101760000A94818A890706D508E00A9901310A910D
:10177000818A8E0702D40A999142F6D90A9A504971
:101780008A42B5D8028BD207B2D505880024ADB203
:1017900045F48065DF1EA3F1020C03F1FF3E2646EF
:1017A000149A05809BB205E00134A5B2AB4202F168
:1017B000010246D9A7428ADC00F0BD80A44500F0B2
:1017C000A080A645F0D1058A1570EDE700230182BF
:1017D0000693838A9B0706D508E0069B0133069390
:1017E000838A9F0702D4069B9342F6D9069B344A0C
:1017F00093423FF67DAF038823F480631B041B0CE8
:101800000380038BDD077FF573AF038800219BB254
:1018100043F4007303800791838A5E0606D508E0CF
:10182000079B01330793838A5D0602D4079B93428B
:10183000F6D9079A224B9A423FF65AAF038A149A76
:10184000137000230193038BDA070DD5019B1C4A0B
:10185000934203D908E0019B934205D8019B0133D1
:101860000193038BDB07F6D400202EE700230182CF
:101870000893838A9C0706D508E0089B01330893E8
:10188000838A990702D4089B9342F6D9089B0C4A95
:1018900093423FF62DAF038823F480631B041B0C97
:1018A000038003889BB243F400630380038BDC074F
:1018B0007FF51EAF00230993838A5B070BD407E0F3
:1018C0007F841E00099B01330993838A5F0702D43A
:1018D000099B9342F6D9099A244B9A423FF608AFE6
:1018E0000388149A9BB243F400730380038A137035
:1018F000038A5370038823F400631B041B0C0380CA
:101900009FE70D96858A6D0706D508E00D9D013588
:101910000D95858A6D0702D40D9D8D42F6D90D9DDA
:101920008D423FF6E5AE0588ADB245F40075058001
:10193000058A157045E70C96858A6D0706D508E07F
:101940000C9D01350C95858A6D0702D40C9D8D4246
:10195000F6D90C9D8D423FF6CBAE058825F4806507
:101960002D042D0C0580058A157027E77F841E0045
:1019700030B404880025A4B244F4807486B0048096
:101980000195848AE5070DD4019C4A4DAC4203D9E8
:1019900008E0019CAC4205D8019C01340194848A82
:1019A000E407F6D5019D434CA5427CD849000025AB
:1019B00001820295818A890706D508E002990131E2
:1019C0000291818A8D0702D40299A142F6D9029C24
:1019D00038498C4203D9022006B030BC7047048BD2
:1019E000E407F8D592B2002402820394828A140696
:1019F00006D508E0039A01320392828A120602D4C5
:101A0000039A8A42F6D903992A4A91424FD80899F3
:101A1000E1B1DBB15C1E089BA4B21C44591E002539
:101A200011F8013F03820495838A1B0606D508E05E
:101A3000049B01330493838A1B0602D4049B9342C4
:101A4000F6D9049B934232D8A142E9D100230593F1
:101A5000838A5A070DD4059B164A934203D908E09E
:101A6000059B934205D8059B01330593838A5B0749
:101A7000F6D5059B0F4A934219D8038800219BB2E3
:101A800043F4007303800091038BDB0709D505E065
:101A9000009B01330093038BDD0702D5009B93422B
:101AA000F6D9002098E7012006B030BC704704202A
:101AB00092E700BF7F841E0010B4084C084A8B09CF
:101AC000A4FB0141A2FB0323890C4C1C9B090122AE
:101AD000818083830484028010BC704783DE1B43B3
:101AE000632D3E0500B585B00DF10F03014600934F
:101AF0000F2201230348FFF7A7FD9DF80F0005B053
:101B00005DF804FB00540040F0B515461C4607463E
:101B100085B009010DF1100E0F4E41F007010EF8CE
:101B2000011D2D01E400CDF800E0014601233046FF
:101B3000202205F0300504F00804FFF719FF2C43BC
:101B400004AB03F8024D00933946304601232322AB
:101B5000FFF70EFF05B0F0BD00540040F0B585B0B2
:101B600002AF0E46154601461C4600970623A822E2
:101B70001848FFF769FD9DF809309DF808209B0083
:101B800043EA9213990554BF1A4643F47C429DF8E8
:101B90000B309DF80A109B0043EA911352423280A9
:101BA0009A059DF80D209DF80C104FEA820242EA3A
:101BB000911248BF43F47C435B4291B22B808B056A
:101BC0004ABF6FEA815313466FEA9353238005B0EF
:101BD000F0BD00BF0054004000B589B00B46009036
:101BE000054A03A8142103F0FFFE03A9034803F0EC
:101BF00077FD09B05DF804FB74A4000880A4000818
:101C00002DE9F8431D4607460C46644864491646CC
:101C100003F066FD6349614803F062FD62495F4875
:101C200003F05EFD002D5DD1DFF8A4811FFA85F978
:101C30009C2303FB09F3FE18327912B9FB58002BE1
:101C400049D0A1452BD05949544803F049FD564984
:101C5000524803F045FDB9F1120F1BD04FF6FF7348
:101C6000132101220132894592B213D038F81210A3
:101C70009942F7D14E49494803F032FD4D4803F0EF
:101C80002FFD311D4C4803F02BFD4C4803F0AEFDF9
:101C90000135CBE74449414803F022FDEEE74849CE
:101CA0003E4803F01DFD122C10D04FF6FF71132398
:101CB000012201329C4292B208D038F812308B4295
:101CC000F7D14049354803F00BFDD7E73E4933488B
:101CD00003F006FDD2E73D49304803F001FD4846D8
:101CE000BDE8F883311DC9B20020FFF775FF2F4909
:101CF0002A4803F0F5FC122E4BD04FF6FF70344A01
:101D00001321012301338E429BB242D032F81310CB
:101D10008142F7D12649214803F0E2FC254803F02F
:101D2000DFFC9C2101FB06712348043103F0D8FC41
:101D3000211DC9B20020FFF74FFF2149174803F0CA
:101D4000CFFC122C20D04FF6FF7021490123132223
:101D5000013394429BB217D031F813208242F7D15D
:101D600018490E4803F0BCFC124803F0B9FC9C2152
:101D700001FB04711748043103F0B2FC1349074812
:101D800003F0AEFCBDE8F8830F49044803F0A8FC5B
:101D9000EAE70549014803F0A3FCBFE76CA400088B
:101DA00084A4000888A4000890A4000894A4000853
:101DB00008A5000898A40008F4A4000888A8000852
:101DC000F8A400080CA5000834B9000804A5000810
:101DD0005CA90008FCA4000810B50E4C0E49204672
:101DE00003F07EFC20460D4903F07AFC20460C49A6
:101DF00003F076FC0B49204603F072FC0A4803F01E
:101E0000F5FC0A4803F06CFCBDE81040084909489D
:101E100003F066BC6CA4000810A5000818A5000813
:101E20000CA500081CA5000820A5000898A400081F
:101E30007CA5000894A500082DE9F04F8146C1B0AB
:101E400001A8FFF7BFF95C4803F04AFC5B4803F0C8
:101E500047FC00210846FFF7BFFEFFF7BDFF002348
:101E600048461A4619469846FFF7CAFE4446824637
:101E700045464646524F534801F096FA722883462B
:101E80001ED00D2844D0BBF11B0F3BD0012E00F01B
:101E90008C80032D2BD0022EEDD1BBF1410F78D0D9
:101EA000BBF1420F6DD04246012321464846FFF761
:101EB000A7FE444801F078FA7228A0468346E0D194
:101EC0003D4803F00DFC3D4803F00AFC00210846A4
:101ED000FFF782FEFFF780FF00231A4619464846A7
:101EE000FFF78EFE012E82460ED0032DD3D1364948
:101EF000364803F0F5FB00210846FFF76DFE41B0C0
:101F0000BDE8F08F0135EDB2032DF0D00126B2E728
:101F10002D492E4803F0E4FB2D492C4803F0E0FB4B
:101F200000210846FFF758FE122C37D04FF6FF71FC
:101F300001231322013394429BB22FD037F8132090
:101F40008A42F7D19C2303FB04F301A859F803301C
:101F50009847204803F04AFC1A4801F025FA1A492C
:101F600083461A4803F0BCFB1949184803F0B8FB34
:101F7000FFF732FF0023424621464846FFF740FE66
:101F800081E70AF1FF339C4206DA0134A4B200264D
:101F900089E70CB1013CA4B2002684E70E4803F0A7
:101FA00025FC0E4803F022FCD6E7BBF15B0FABD15A
:101FB0000025022677E700BFACA50008D4A50008DD
:101FC0005CA900080038014018A500086CA40008AE
:101FD00004A50008DCA5000810A600086CA60008EF
:101FE000F0B57149D5B0714803F07AFB704803F041
:101FF000FDFB15A8FFF7E6F89DF85430002B40F0E4
:10200000A4806C4803F0F2FBBDF848116A4803F065
:1020100067FB9DF8850000F047FF20B19DF88430F4
:10202000002B40F0AE80654803F0E0FB9DF8050111
:1020300000F03AFF20B19DF80431002B40F0A6805B
:102040005F4803F0D3FB9DF84A115E4803F048FB5C
:102050005D4803F045FB9DF84B315C4F0F2B0CBFE7
:102060005B485C4803F0C2FB51995B4803F038FBC6
:102070009DF84C11594803F033FB594803F0B6FB67
:102080003B68002B66D03B79002B63D00026354699
:10209000002D52D0042D54D09C24013504FB06722F
:1020A000ADB204FB05F4711C04324E4803F018FB7A
:1020B0003B592E463C4413B12379002BE8D14A48C2
:1020C00003F00EFB01A9494803F0C4FB502101A80D
:1020D000FFF77EF801A802F040FE013800F0FF048F
:1020E000434803F083FBA54245D99C2303FB04F43A
:1020F00015A83B5998473E483E4C03F077FB3E48B5
:1021000003F074FB206842685368013B002B536066
:1021100041DB4268136801331360206842685368EA
:10212000013B002B53603ADB4268136801331360B4
:10213000324803F05BFB55B0F0BD314803F056FB6D
:10214000AAE7304803F052FBA6E715A92E4803F092
:10215000C7FA59E7244803F0C3FA01A9234803F05A
:1021600079FB01A85021FFF733F801A802F0F5FD33
:102170001F4803F03BFB0DF10501244803F0B0FAC2
:10218000B9E721A9224803F0ABFA4FE741A921485A
:1021900003F0A6FA57E7416803F030FBBDE741685A
:1021A00003F02CFBC4E700BF7CA5000884A6000850
:1021B000DCA6000804A700083CA7000850A70008F8
:1021C00084A70008B0A70008D0A700088CBD0008AD
:1021D000E8A70008F0A7000800A8000830A8000839
:1021E00048A80008B8A80008C4A8000880A40008EF
:1021F000C8A80008D800002034A9000888A8000852
:102200008CA80008A4A8000828A700081CA900089A
:1022100070A70008A0A70008BFF34F8F0449054B23
:10222000CA6802F4E0621343CB60BFF34F8FFEE74E
:1022300000ED00E00400FA0580B5144803F0D6FA7A
:1022400040F22151124A1348D369802443F080732D
:10225000114FD361C0F88440BB8A02F520520F4C65
:102260000F4D9BB2303243F0400301200D4EBB8234
:102270009460D56050601160B38A9BB243F0400314
:10228000B38215635463D0629162FEE764A90008CB
:102290000038024000E100E00048004004480040EF
:1022A000043801400038014038B500F130052946B6
:1022B0000446114803F014FA104803F097FA104945
:1022C000104803F0C7FA50210D48FEF781FF0C4873
:1022D00003F061FC7F2809D8421C0949284602F016
:1022E0007BFD2046BDE83840FEF738BF0648BDE814
:1022F000384003F07BBA00BFA4AA0008C8AA0008AF
:10230000B40B002080A40008E8AA000838B50446F1
:10231000054634F8F41F074803F0E2F9064803F0D5
:1023200065FA2146054803F095FA2846BDE838408D
:10233000FEF714BFFCAA000820AB00089CB80008F8
:1023400010B50446124803F051FA04F1F0011148A7
:1023500003F080FAD4F8F030B3F57A7F0ED3B3F5FA
:102360007A5F06D94FF47A53C4F8F0300A4803F084
:102370003DFA2046BDE81040FEF7F0BE4FF47A73F8
:10238000C4F8F030054803F031FAD4F8F030E6E74D
:1023900038AB000888AB0008C4AB00088CAB000861
:1023A00038B505460B4C0C4803F020FA21460B4883
:1023B00003F050FA20465021FEF70AFF2378284602
:1023C000302B0CBF0023012385F8F830BDE83840DE
:1023D000FEF7C4BEB40B0020FCAB000880A40008CC
:1023E00038B505460E4C0F4803F000FA21460E485A
:1023F00003F030FA0D4803F0F9F920465021FEF7BA
:10240000E7FE23782846312B0CBF0F23002385F8E5
:10241000F730FEF7A3FEBDE83840054803F0E6B903
:10242000B40B002048AC000880A4000888A800086D
:102430008CAC00082DE9F04100F1B00529460446B6
:102440002F4803F04DF92F4803F0D0F92E492F48BB
:1024500003F000FA2E4803F0C9F950212A48FEF78C
:10246000B7FE294803F097FB3F282BD82949064699
:10247000254803F07EFB28498046234803F079FB7A
:102480000746B8F1000F10D068BB002384F8F6307F
:10249000224803F0ABF9294694F8F60001F04AF916
:1024A0002046BDE8F041FEF759BE94F8B03073B94C
:1024B0001B4803F09BF9002FE7D02046BDE8F04110
:1024C000FEF74CBE1748BDE8F04103F08FB916483F
:1024D00003F08CF9012084F8F600294601F02AF96E
:1024E000002FEAD1D1E7721C2846074902F074FC9C
:1024F0000E4803F07BF92046BDE8F041FEF72EBE02
:10250000C0AC0008D4AC0008B40B002080A40008C4
:1025100088A8000834AD00083CAD000890AD000864
:1025200044AD0008E8AA000878AD0008ACAD00088A
:1025300030B504461C4B91B0196803A8FEF79EFB0A
:1025400094F8F83093B9194D194803F04FF929461A
:10255000184803F07FF928465021FEF739FE2B7802
:1025600003F0DF03592B0FD011B030BD94F8F610F3
:10257000B4F8F42020460193009103AB04F130013C
:1025800001F0DEFA11B030BD94F8F80094F8F610BE
:10259000B4F8F42003AB01900091204604F130011F
:1025A00001F0CEFA11B030BD50050020B40B002070
:1025B000C0AD000880A4000830B548209DB0FEF7EB
:1025C00083FF0DF10E0303AA0DF10A010546182041
:1025D000FFF7C4FA1820FFF785FA0446BDF90E008C
:1025E000BDF90C30BDF90A20294600901B4803F0C4
:1025F00077F8332C0CBF1A481A4803F0F7F81A483A
:1026000003F0F4F800210846FEF7F0FF4FF496605F
:10261000FEF776FD08A85021FEF7E8FFC8B108A92B
:10262000124803F05DF808A806AA04A901F0E4F92D
:1026300050B1DDE90601DDE90423CDE900010C48D4
:1026400003F04EF81DB030BD0A4803F0CFF81DB0BE
:1026500030BD094803F0CAF81DB030BD64AE0008B3
:10266000B8AE0008E8AE000814AF000868AF000874
:10267000E8AF00087CAF00082CAF00080148FFF766
:10268000DBBB00BF8CBD000810B504462E4803F02C
:10269000ADF82378002B51D12C4803F0A7F8B4F8FB
:1026A000F4102B4803F01CF894F8312022F020039A
:1026B000413B192B38D9303A092A35D9254803F03E
:1026C00095F894F8B12022F02003413B192B21D931
:1026D000303A092A1ED9204803F088F894F8F610F9
:1026E0001E4802F0FDFF1E4802F0FAFF94F8F73092
:1026F0000F2B0CBF1B481C4803F078F8D4F8F010DF
:102700001A4802F0EDFF94F8F8101948BDE810409F
:1027100002F0E6BF94F8B030002BDCD004F1B00139
:10272000144802F0DDFFD9E794F83030002BC5D013
:1027300004F13001104802F0D3FFC2E721460F48F0
:1027400002F0CEFFABE700BFDCA6000804A700083C
:102750003CA7000850A7000884A70008B0A70008FD
:10276000D0A70008E8A70008F0A7000800A8000804
:1027700030A80008A0A7000870A7000828A7000834
:1027800070B50646C4B04FF47A70FEF7B9FC334614
:10279000154AFF2104A803F027F904A8FDF7C8FE95
:1027A000124B0DF10F051A68002302EB4202019251
:1027B00004A800951A46FF21FDF72CFE044630B907
:1027C00031460B4802F08CFF204644B070BD002318
:1027D00004A905480B5502F083FF287810F1FF305B
:1027E00018BF012044B070BD34A700085005002078
:1027F0001CB0000810B5044682B02146234802F000
:102800006FFF234802F06CFF01A9224803F022F871
:10281000214802F0EBFF019B23F00203042B04D0BC
:102820001E4802F0E3FF02B010BD30211C4802F048
:1028300057FF1C491C4803F00DF850211948FEF7BA
:10284000C7FC184803F0A7F930281BD8421C1549CB
:10285000204602F0C1FA2046FEF780FC134802F041
:10286000C5FF019B042B0CBF11481248FFF788FFDE
:10287000B0FA80F040090028D5D00F4802F0B6FF2A
:1028800002B010BD0D4802F0B1FFE7E740B000080C
:1028900068B000089CB8000888A80008A8B0000824
:1028A000C4B00008B40B002080A40008ECB00008FD
:1028B00020B1000830B1000840B10008E8AA0008C3
:1028C00010B51D4882B002F091FF1C4802F008FFCD
:1028D0001B491C4802F0BEFF1B4802F087FF502135
:1028E0001748FEF775FC1949154803F042F91849D5
:1028F00000B3134803F03DF90446B8B9154802F097
:1029000075FFFEF711FC144802F070FF134B0094A2
:102910001A68214602EB8202019223462246204693
:10292000FDF778FD0E4802F061FFCEE70448FFF79F
:1029300027FFCAE702B010BD98B10008C4A800087C
:10294000B40B002080A4000888A80008B8B20008D2
:10295000C0B20008C8B20008E8B200085005002064
:1029600004B3000810B51E4C8EB01E4802F03EFFA6
:10297000216801A8FEF782F901A91B4802F0B0FE08
:102980001A48FFF7FDFE216801A8FEF7BFF901A96B
:10299000174802F0A5FE1748FFF7F2FE164802F0AE
:1029A00025FF1648FFF7ECFE154802F01FFF1548FB
:1029B000FFF7E6FE144802F019FF1448FFF7E0FEA7
:1029C0001349144802F08CFE134B144A14491B6837
:1029D00012680968134802F083FE0EB010BD00BFF4
:1029E0005005002014B3000830B3000848B30008B5
:1029F00050B3000868B3000870B300087CB3000847
:102A000084B3000898B30008A0B30008C0B300085E
:102A10007CA50008C8B30008CC00F81FD000F81F40
:102A2000D400F81FE8B30008F0B590F8F63083B092
:102A3000002B49D0294802F053FE01A9284802F092
:102A400009FF284802F0D2FE019A4FF47A7303FB83
:102A500002F30193FEF74EFB07462348FFF790FE73
:102A6000224802F0C3FE224E01992248A6FB013102
:102A7000890902F035FE3C46019BE41B9C421E483E
:102A800027D2FDF76FFF0546FEF734FBA6FB0023B8
:102A90004FF47A729B0902FB1303044643B1002DE5
:102AA000EAD02946144A154802F01AFE03B0F0BDD8
:102AB000019910483944091BA6FB0131890902F02C
:102AC0000FFE002DD8D0ECE70D4802F08FFE03B0CA
:102AD000F0BD0C4802F08AFE03B0F0BD44B400081B
:102AE0009CB8000888A8000868B4000878B40008FA
:102AF000D34D62109CB4000864090020E8B40008BB
:102B00000CB40008B4B400080148FFF739BE00BF98
:102B100004B50008F0B5FC21064683B0BF4802F0BA
:102B2000DFFD41F61B2CBE4B4FF47A7E07CB1B78A2
:102B3000A52730603373AA20002355250124716036
:102B4000B260A6F8F4C0C6F8F0E086F8303086F837
:102B5000B03086F8F63086F8F73086F8F97086F8E7
:102B6000FB0086F8FA5086F8F840AE4802F03EFEC8
:102B70003046FEF7F3FAAC4802F038FEAB4802F0FC
:102B800035FEAB4F2146AB4802F0AAFDAA48FDF73F
:102B9000CFFC3A680023019200931A461946184662
:102BA000FDF738FC0546002800F00F81A34802F02D
:102BB0001DFEA348FFF7E4FD0446A24802F016FEFE
:102BC000A148FFF7DDFDB0FA80F04009002C14BFEA
:102BD0000446441C41F28830FEF792FA21469B4895
:102BE00002F07EFD01259A48FFF7CAFD002800F09B
:102BF000E2809848FFF7C4FD05469748FFF7C0FDFF
:102C0000B0FA80F04009002D14BF0346431C9348DE
:102C10001C44FFF7B5FDA4B2002808BF0134894861
:102C200002F0E4FD8848FFF7ABFDA4B2002808BF1E
:102C3000013441F28830A4B2FEF762FA214683489B
:102C400002F04EFD8448FFF79BFD05468448FFF7E0
:102C500097FDB0FA80F383485B09002D14BF1D4631
:102C60005D1CFFF78DFD002808BF0135754802F097
:102C7000BDFD7548FFF784FDADB2002814BF28469E
:102C8000681C0444A4B241F28830FEF739FA2146A8
:102C90006E4802F025FD7448FFF772FD054669484D
:102CA00002F0A4FD6848FFF76BFDB0FA80F0400920
:102CB000002D08BF01300444A4B241F28830FEF771
:102CC0001FFA2146614802F00BFD6848FFF758FDE6
:102CD00005465C4802F08AFD5B48FFF751FDB0FAFB
:102CE00080F04009002D08BF01300444A4B241F235
:102CF0008830FEF705FA2146544802F0F1FC5C48A2
:102D0000FFF73EFD05465B48FFF73AFDB0FA80F35A
:102D10004C485B09002D14BF1D465D1C02F066FD8A
:102D20004948FFF72DFD002814BF2846681C0444BD
:102D3000A4B241F28830FEF7E3F92146434802F09D
:102D4000CFFC4D48FFF71CFD002814BF2046601C37
:102D500084B221463D4802F0C3FC1820FEF7C2FEB3
:102D6000332856D0454802F041FD0134A4B244480E
:102D700002F03CFD4820FEF799FB424802F036FD88
:102D80004820FEF7A1FBA0F10F03DBB2142B014694
:102D90002BD93D4802F0A4FC3046FFF7E3FD3B4849
:102DA00002F024FD3A4802F021FD384803B0BDE8A6
:102DB000F04002F01BBD4FF4FA60FEF7A1F9052DBB
:102DC0003FF417AF0135EDB20DE70134314802F0A1
:102DD0000DFD042C7FF4D6AE2F4802F081FC28466E
:102DE00006F1B00100F0A6FCE0E62C4802F078FC09
:102DF0003046FFF7B7FD254802F0F8FC002CD1D192
:102E0000274802F0F3FC214803B0BDE8F04002F08F
:102E1000EDBC244802F0EAFCA9E700BF10B50008A9
:102E200044B5000854B5000864B5000888B500082A
:102E300050050020ACB50008BCB5000814B6000869
:102E400030B6000840B6000804B5000858B60008BF
:102E50006CB6000880B6000894B60008A0B600085A
:102E6000ACB60008C4B60008DCB60008F8B6000826
:102E700004B7000818B7000830B7000840B70008CA
:102E800078B70008B4B70008CCB70008C8A8000895
:102E900068B80008C4B50008D0B5000838B8000804
:102EA00078B8000864B7000820F02003413B192BD4
:102EB00005D9303809288CBF002001207047012037
:102EC000704700BF30B50D4685B0FDF731FB094BAB
:102ED0000DF10F041A68002302EB4202019228460A
:102EE00000941A464FF40071FDF794FA9DF80F0014
:102EF00005B030BD5005002070B56D4988B06D48F3
:102F0000FFF7E0FF002840F0838004466A4802F0A3
:102F1000E7FB03AA6949664802F0BCFD03996848CB
:102F20004900713902F0DCFB039801F0FDFA02461A
:102F30000B4601F0ADF90022624B01F0A7F95AA34C
:102F4000D3E9002301F056FB00225F4B01F0A0F90A
:102F500001F062FD86B25D4802F048FC5C4802F078
:102F600045FCA5B2002C00F08880032D00F08D8078
:102F7000082D00F09280142D00F08B801C2C7CD04A
:102F8000AE427ED0202002F0C3FB0134322CE8D1C7
:102F9000504802F02BFC46494F48FFF793FF0028AA
:102FA0003FD105AA4D4904AB414802F073FD049A94
:102FB00005998D3A4A4802F093FB4A48FDF7B8FA62
:102FC000494B0DF10B011A68002302EB42028DE818
:102FD000060037484FF400711A46FDF71BFA00212E
:102FE0004248FFF76FFF00B3414802F0FFFB0021AA
:102FF0004048FFF767FF00282BD12D493E48FFF7D7
:1030000061FF00282ED03D4802F0F0FB08B070BDF3
:103010003B4802F0EBFB26492F48FFF753FF0028FF
:10302000BFD0384802F0E2FBC7E721492D48FFF73F
:1030300049FF98B906AA34491D4802F02BFD0699AC
:10304000324802F04DFB00212A48FFF73BFF0028E1
:10305000D3D02F4802F0CAFB08B070BD2D4802F053
:10306000C5FBC4E707AA2C49114802F013FD0799D4
:103070002A4802F035FB08B070BD294802F030FB49
:103080007EE7284802F02CFB7FE7274802F028FB68
:1030900076E7264802F024FB72E7254802F020FB81
:1030A0006EE700BFAFF30080E17A14AE47E1DA3F8C
:1030B000800D0020C8A2000888B8000890B8000859
:1030C000A0B8000800405C400000494088A8000803
:1030D000D4B8000838B9000860B900086CB9000815
:1030E00090B9000820A3000850050020ECB90008A2
:1030F000FCB9000874BA0008A8BA0008D8BA0008D9
:1031000044B90008D0B9000824BA000848BA000839
:1031100084BA000858BA0008B4BA0008C8BA00084F
:103120000CB900082CB9000814B9000824B900082B
:103130001CB900082DE9F0410746E6B0FDF7DAFFBB
:10314000364D0646A5FB0738FF234FEA981804467C
:103150008DF80D3003E09DF80D30FF2B20D1A41B1E
:10316000BC421DD20DF10E010DF10D00FDF77AFBF1
:10317000FDF7C0FFA5FB00234FF47A729B0902FB09
:1031800013030446002BE6D1811BA5FB0131244823
:10319000A8EB911102F0A4FA9DF80D30FF2BDED0C0
:1031A000204802F023FB9DF80D00FF2827D01E4B7E
:1031B00007AC1A680023BDF80E10019200941A465D
:1031C000FDF72CFC204605A900F036F99DF81820E3
:1031D0009DF81710154802F083FABDF80E3000254F
:1031E0001946204604AAE55400F084F9049969B10F
:1031F0000F4802F075FA012066B0BDE8F0810D4875
:1032000002F0F4FA002066B0BDE8F0810A4802F04E
:10321000EDFA012066B0BDE8F08100BFD34D621029
:10322000F4BA000888A800085005002040BB000838
:103230005CBB000800BB000868BB00082DE9F0413A
:1032400090F8F65086B02DB13C4802F0CFFA06B0A7
:10325000BDE8F081DFF820810646394802F0C6FA61
:103260004146384802F0F6FA374802F0BFFA5021DA
:103270004046FDF7ADFF354802F0B8FA05A93448DD
:1032800002F0E8FA304802F0B1FA059F4FF47A7381
:1032900003FB07F72F4C0121CDF800800295019523
:1032A000224608464FF4BD73059700F079F90746AA
:1032B00058B3294802F09AFA7D1EADB22544013C6C
:1032C00014F8011F254802F00BFAAC42F8D1244C47
:1032D0001D4802F08BFA20684000FDF755F9FF28E1
:1032E000054618D02368B6F8F42003EB4303019396
:1032F00000973146174BFDF7F9F904280FD019480C
:1033000002F074FA06B0BDE8F081174802F06EFAD8
:1033100006B0BDE8F081154802F068FA97E7144856
:1033200002F064FA134802F061FA0598FFF702FF11
:1033300021682846FDF792F989E700BF80BB0008A5
:10334000E4BB000880A4000888A8000818BC000896
:1033500088AB0008040C0020C0BC0008D8BC0008E2
:103360005005002000BD000860BC0008E0BC00085B
:1033700028BD000858BD0008640B00208180038828
:103380005B06FCD5704700BF0B785BB101F1FF0213
:103390009BB2838003885B06FCD511F8013F0BB11B
:1033A0009142F5D1704700BF03889B06FCD5808809
:1033B000C0B270472DE9F843054610460C461E463C
:1033C00001F050FC01F0C2F880462046894601F029
:1033D0009BF80022174B01F00DF902460B464046C0
:1033E000494601F031FA01F037FB074601F092FC43
:1033F000044601F037FC0146384601F081FB01F03C
:10340000A5F800220B4B01F0F5F801F005FB40EAAE
:10341000041080B2288136B942F20C03AB8100233C
:103420002B80BDE8F88342F22C03AB8100232B8074
:10343000BDE8F8830000304003789B090B700378E7
:10344000C3F301134B70037803F00F038B704378C1
:103450005B09CB70437803F01F030B718278C3784C
:1034600043EA0223CB80704770B4027814090E2C13
:1034700002F00F032FD00F2C26D00D2C12D0A4B2A7
:1034800001250E2B15D00F2B1ED00D2B2CD09BB24F
:103490000E7842193444E81880B20C704A604B70C0
:1034A00070BC704744780E2B4FF0020504F10D04F8
:1034B000E9D14319425D5B78023543EA022303F206
:1034C0000D139BB2ADB2E3E7FF2A4FF6FF7070BC5D
:1034D00008BF0120704746788478032544EA062413
:1034E00004F20D14A4B2CCE7435D01350D33ADB247
:1034F000CEE700BF2DE9F04F037883B09C09012C83
:1035000003D0002003B0BDE8F08F03F00F03082BB9
:1035100003D9022003B0BDE8F08F1C1D8C42154674
:1035200088460646477826D2035D2044FF2B22D0EA
:1035300000230DF1080A99464FF6FF7B0AF8083D73
:1035400001E0A04517D95146FFF78EFF0444A4B20D
:1035500009F1010958451FFA89F906EB04001CD04E
:10356000335DFF2B04D0B9F10A0FEAD10420C9E77B
:10357000B9F10A0FFAD035B17B09022B05D000232F
:103580002B600520BEE70520BCE707F01F000528DB
:10359000F5D1013433192B60B4E70320B2E700BF43
:1035A0002DE9F04F604D83B02C784FF0510E82F82A
:1035B00000E000F01F070026DDF830E0D470147141
:1035C000577096709EF800C00134BCF12F0F2C701C
:1035D000BDF8388003D0002003B0BDE8F08F00298B
:1035E0005FD10F460525514C164671462046802274
:1035F000994602F0D8FA207800286AD000239E4627
:103600004B49013402E014F8010B68B12F28FAD1BC
:10361000092BE0D841F8234004F801EC14F8010B21
:103620005A1C93B20028F1D1002B52D04D45D2D272
:10363000044603F1FF3A1FFA8AF3DFF8F4B001936E
:10364000A3B2002B69D00027BA465BF8240002F031
:10365000A2FA82B20C2A4FEA840127D84AEA000073
:103660006B1C70559DB2A2B15BF80130681C1978D3
:1036700080B281457155AED91544ADB205E013F85D
:10368000011F315490B28145A5D9854200F1010254
:10369000F5D1019BA3421CD0A94504F10104CFD868
:1036A00099E701280FD0374605259CE705F1010E63
:1036B0004AF00D0373550D381FFA8EFE023506F8D9
:1036C0000E00ADB2D0E76121967151710725062732
:1036D00089E70D9BFBB1B8F1000F1CD0FF23735598
:1036E0000D9B1A786B1C0235ADB29BB2A945F25402
:1036F0007FF671AF0D9B08F1FF3292B21A4406E0DB
:1037000013F8010F70558DB2A9457FF664AF9A4248
:1037100005F10101F4D128465EE7C7F10B07FFB2BE
:103720003B014FFA83FA90E728100020800F002019
:10373000001000202DE9F043914C0E46238AADF590
:10374000017D190405466AD48E4802F04FF8DFF86F
:1037500088828D4802F04AF80124002721468B48D0
:1037600001F0BEFF8A48FCF7E3FED8F800200023F2
:10377000019200971A4619461846FCF74BFE013491
:1037800050B9042CEAD1834802F030F801252846CC
:103790000DF5017DBDE8F0837F4802F027F87F48F2
:1037A00002F024F801270DF10B043946774801F0A7
:1037B00097FF7B48FCF7BCFED8F80020002302EB03
:1037C0008202019200941A464FF4FA7103A8FCF7A2
:1037D00021FE237883B9012D6AD0724903A802F033
:1037E000F5F9002875D0704802F000F80125284648
:1037F0000DF5017DBDE8F08340F6B830FDF780FCA3
:1038000023780137002BE6D0042FCED1002567485E
:1038100001F0ECFF28460DF5017DBDE8F08364481A
:1038200001F0E4FFFCF7D2FDFDF77EFC614801F0FA
:10383000DDFFFDF75FFC238A07461A0440F1928002
:1038400041F2873801E0414508D86420FDF758FC73
:10385000FDF750FC238AC11B1B04F4D441F65833F6
:1038600099421CD8DFF87081534801F039FFD8F82D
:103870000020002302EB8202019200931A461946AF
:103880001846FCF7C7FD8146FDF734FC0446B9F144
:10389000000F5AD0E11B494801F022FF59E70025EB
:1038A000474801F0A3FF28460DF5017DBDE8F083F0
:1038B0005EB133784BB1434903A802F087F9002881
:1038C00052D0414801F092FF90E7404801F08EFF4E
:1038D0008CE73F4E3F4803AD01F088FF0FCE0FC588
:1038E00096E8030085E8030003A8FCF721FED8F85A
:1038F0000020002302EB42020192009403A81A4622
:103900004FF4FA71FCF786FD2578334E0DBB334832
:1039100001F06CFF3248FCF70BFE33682A46019336
:1039200000942B4629462846FCF774FD2378ABB952
:1039300033682A4603EB8303019329462B46284626
:103940000094FCF767FD012521E7264801F04EFFB2
:10395000A0E7254801F04AFF002518E7234801F0B9
:1039600045FF14E700217DE7214801F03FFF334682
:10397000204A4FF4FA7103A802F036F8B4E700BF0A
:103980000000024088CB0008C0CB0008ACB500089E
:10399000BCB50008DCCD0008FCCD000808CE00084E
:1039A000F8CB0008D4CC000854CD00082CCE000879
:1039B00058CA0008B4CA000814CB00085CCB000841
:1039C000D0CA000848CC0008C0CC000808CC0008C9
:1039D0003CCD0008ECCC00085005002084CD000848
:1039E000B0CD000834CB000864CD0008C0CD00087D
:1039F0005CCC0008A4CC00082DE9704F8B4690B039
:103A00004B49924602F028FFB0B14A4902F0B1F8A2
:103A100090B9044606AE4649002002F01DFF01346D
:103A2000E4B2054646F8040F0028F4D1062C03D969
:103A30000C9B1B78412B04D00023184610B0BDE826
:103A4000708F079C204602F0A6F80328F4D9099E3F
:103A5000304602F0A0F80328EED9227804A88DF8A9
:103A6000102062788DF812508DF8112001F072F953
:103A7000CDE90001A01C01F06DF9327880468DF887
:103A80001020727804A88DF81120B27889468DF83C
:103A900013508DF8122001F05DF9CDE90201F01C00
:103AA00001F058F904460D46BBF1000F12D0089BF7
:103AB00040461B7849464E2B4FF000021E4B21D04A
:103AC00000F0C2FEDDE9002300F0E2FB01F100415D
:103AD0008BE80300BAF1000F27D00A9B20461B7821
:103AE0002946452B4FF00002134B14D000F0ACFEDA
:103AF000DDE9022300F0CCFB01F100418AE803007C
:103B000001239AE700F0A0FEDDE9002300F0C0FBEE
:103B1000CBE90001DEE700F097FEDDE9022300F0CB
:103B2000B7FB0123CAE9000187E7012385E700BF4E
:103B300070CE000874CE000800004E400000000067
:103B40002DE9F04FAAA7D7E900670FF2AC29D9E910
:103B500000899BB09DF89040CDE9166705468A46DE
:103B60000D929B46CDE914899DF89460002C64D099
:103B7000A74801F03BFEA748FEF702FE5021A648E9
:103B8000FDF734FD8146002868D1A44801F02EFEDF
:103B90004820FDF799FCA24E804611AB0DF1420280
:103BA00010A91820FDF7DAFF3068FDF71FF89D4FC8
:103BB000BDF94410BDF94220BDF940E0CDF80080C8
:103BC0000490CDF828905B46DDE9148903910292B8
:103BD000CDF804E0DDE916123846CDE90812CDE94A
:103BE0000689914AC82101F0FFFE384601F0D3FF53
:103BF000394602468D4801F073FD002C59D03168DA
:103C00003846FDF7C7F8002800F08581884801F0A4
:103C1000EDFD00231393139A336886489A4280F08F
:103C20009081FCF79FFE139B013313930028F2D081
:103C30008049814801F054FDD5E0804801F0D6FD6F
:103C40002B7823B19AF80030002B40F06B817C4830
:103C500001F0CCFD00201BB0BDE8F08F16AA14A91E
:103C60006D48FFF7C9FE8146002800F06F814FF0D4
:103C70000109002E8CD062A7D7E90067714801F0D6
:103C8000B5FDDDE91601DDE91423CDE90001CDF82C
:103C900008906D4801F024FD5BA3D3E90023CDE932
:103CA00000676A48CDE91423CDE9166701F018FDD5
:103CB0006EE7384601F06FFF80B24FF4BD73644A7F
:103CC000029021460197CDF800A00220FFF768FC82
:103CD000ADF84600BDF846105E4889B201F000FD1F
:103CE000ADF84A40BDF84A20BDF8463092B29BB2CA
:103CF0009A421DD2564C2746BDF84A3056489BB2D0
:103D0000E35C0F2BBDF84A3088BF54489BB2F95C86
:103D100001F0E6FCBDF84A3001339BB2ADF84A3001
:103D2000BDF84A20BDF8463092B29BB29A42E3D326
:103D30004B4801F05BFD3068FCF726FCFF28384C4F
:103D4000074600F00A810146464801F0C9FCBDF86B
:103D50004600236880B203EB430329460D9A8DE8A1
:103D600009003B4B3846FCF7C1FC042814BF3E4811
:103D70003E4801F03BFDFDF7BDF90023FF228046E0
:103D80003B481393ADF848308DF83F2001F02EFDED
:103D90009DF83F108F4200F0E98041F2873401E046
:103DA000A3420DD812A90DF13F00FCF75BFDFDF712
:103DB000A1F99DF83F1005468F42C8EB0003EFD1F3
:103DC000BDF848202B4801F08BFC9DF83F30BB42EA
:103DD00054D0294801F00AFD31683846FCF73EFC12
:103DE000002800F0A68001201BB0BDE8F08F00BFC6
:103DF000E5D76A6A34503E405D34643C4AF84D4031
:103E0000D1AE42CA4F3E3E409411178046F74D4016
:103E10007CCE000868B400082800002020CF0008ED
:103E200050050020B0130020ECD0000888D1000815
:103E3000A8D100082C10002050D3000890CE000814
:103E4000A4CE000800D000085CD00008A4D0000870
:103E500034120020E0D10008FCD1000800D2000894
:103E600088A8000824D2000838D2000858D20008D8
:103E700084D3000864D200088CD20008BDF8481032
:103E80000029A6D0B1F5BD7F6CD23368384C03EB66
:103E900043020023019200941A463846FCF7BEFD07
:103EA000204618A9FFF7C8FAC8EB05039DF864205F
:103EB0009DF863102F4801F013FC2F4801F096FC89
:103EC0000023ADF84A30BDF84A30BDF848209BB217
:103ED0009A4288BF25461AD9BDF84A3027489BB276
:103EE000E35C0F2BBDF84A3088BF25489BB2E95CE4
:103EF00001F0F6FBBDF84A30BDF8482001339BB213
:103F0000ADF84A30BDF84A309BB29A42E4D81D4819
:103F100001F06CFC60E71C4801F068FC01201BB05C
:103F2000BDE8F08F53460D9A2946184801F0D8FB9A
:103F300024E63946164801F0D3FB01201BB0BDE84A
:103F4000F08F144801F052FC012084E6124801F081
:103F50004DFC002E3FF41CAE8DE6104801F046FCEF
:103F6000002078E60E4801F0BBFB35E7454627E721
:103F700034120020A4D20008DCD20008FCD10008D2
:103F800000D2000888A80008C4D1000804CF0008A7
:103F900020D3000870D3000874CF000804D20008B2
:103FA000F4D2000870B5DAB0FDF738F900231A46EC
:103FB00003211820FDF7A8FD6A4801F017FC4820EE
:103FC000FDF774FA684801F011FC684801F00EFC36
:103FD0001BA8FDF7F7F8599B654A23F0FF039342AE
:103FE00005D0644801F002FC1BA8FEF793FD43F6E0
:103FF0009822579BA3F57A73934205D95E4801F046
:10400000F5FB4FF47A7357939DF89C302F2B10D00B
:104010005A4801F0EBFB47A99DF86201FFF78AFBC4
:10402000002840F08D80564801F0E0FBFDF7D8FFF6
:10403000FCE7544B1B8A5B06EAD59DF863310F2BD6
:10404000E6D147A99DF86201FFF774FB044660B30F
:104050004D4D05E04D4801F043FB3220FDF750F88F
:104060002868494CFCF7CEFE0028F3D0484801F000
:10407000BDFB216802A8FCF701FE0021BDF85C0130
:10408000FCF72AFF41F27073579A9A4221D94148AE
:1040900001F026FB2168012001EB4101FCF7E2FE63
:1040A00020BB3D4801F0A2FB20E03C4801F09EFB14
:1040B0001BA88DF86341FDF751F8BFF34F8F3849C6
:1040C000384BCA6802F4E0621343CB60BFF34F8FF2
:1040D000FEE7354801F08AFB2168002001EB410131
:1040E000FCF7C0FE10B1314801F080FB41F2707462
:1040F000002611E09DF864119DF86231BDF8602141
:104100000191009327A902AB1BA8FFF719FD00201E
:10411000FDF700F8FCF74CFF0120FCF7FBFF579B75
:10412000A342E7D9FDF700F82A68002302EB8202D8
:10413000019200961A4619461846FCF76BF9D9E722
:104140001B4801F053FB104B0020196801EB4101A3
:10415000FCF788FE00287FF469AF164801F046FBA3
:1041600064E700BFB0D30008CCD30008F0D3000848
:1041700000A555AA10D4000884D4000884D70008EC
:10418000D8D40008000802405005002010D60008CE
:1041900088A8000844D6000860D60008D0D50008DA
:1041A00000ED00E00400FA05B8D6000834D7000896
:1041B00028D500084CD500080549064A064B9A4206
:1041C000BEBF51F8040B42F8040BF8E70348004760
:1041D00000DB000800000020200100208101000811
:1041E0002649274A002301E041F8043B9142FBD3D2
:1041F000FFF7D8FEFEE7FEE7FEE7FEE7FEE7FEE795
:10420000FEE7FEE7FEE7FEE7FEE7FEE7FEE7FEE786
:10421000FEE7FEE7FEE7FEE7FEE7FEE7FEE7FEE776
:10422000FEE7FEE7FEE7FEE7FEE7FEE7FEE7FEE766
:10423000FEE7FEE7FEE7FEE7FEE7FEE7FEE7FEE756
:10424000FEE7FEE7FEE7FEE7FEE7FEE7FEE7FEE746
:10425000FEE7FEE7FEE7FEE7FEE7FEE7FEE7FEE736
:10426000FEE7FEE7FEE7FEE7FEE7FEE7FEE7FEE726
:10427000FEE7FEE7FEE7FEE7FEE7FEE7200100209F
:104280008814002081F0004102E000BF83F0004369
:1042900030B54FEA41044FEA430594EA050F08BFE1
:1042A00090EA020F1FBF54EA000C55EA020C7FEAA5
:1042B000645C7FEA655C00F0E2804FEA5454D4EB22
:1042C0005555B8BF6D420CDD2C4480EA020281EAEC
:1042D000030382EA000083EA010180EA020281EA24
:1042E0000303362D88BF30BD11F0004F4FEA013176
:1042F0004FF4801C4CEA113102D0404261EB410185
:1043000013F0004F4FEA03334CEA133302D052420A
:1043100063EB430394EA050F00F0A780A4F10104C6
:10432000D5F1200E0DDB02FA0EFC22FA05F2801800
:1043300041F1000103FA0EF2801843FA05F35941E6
:104340000EE0A5F120050EF1200E012A03FA0EFC65
:1043500028BF4CF0020C43FA05F3C01851EBE3718F
:1043600001F0004507D54FF0000EDCF1000C7EEBAC
:1043700000006EEB0101B1F5801F1BD3B1F5001FEA
:104380000CD349085FEA30004FEA3C0C04F1010409
:104390004FEA445212F5800F80F09A80BCF1004F32
:1043A00008BF5FEA500C50F1000041EB045141EAB4
:1043B000050130BD5FEA4C0C404141EB010111F4B5
:1043C000801FA4F10104E9D191F0000F04BF014660
:1043D0000020B1FA81F308BF2033A3F10B03B3F13E
:1043E00020020CDA0C3208DD02F1140CC2F10C02CE
:1043F00001FA0CF021FA02F10CE002F11402D8BF2C
:10440000C2F1200C01FA02F120FA0CFCDCBF41EAF7
:104410000C019040E41AA2BF01EB0451294330BDC6
:104420006FEA04041F3C1CDA0C340EDC04F11404A3
:10443000C4F1200220FA04F001FA02F340EA03007A
:1044400021FA04F345EA030130BDC4F10C04C4F1C0
:10445000200220FA02F001FA04F340EA03002946A0
:1044600030BD21FA04F0294630BD94F0000F83F4EA
:10447000801306BF81F480110134013D4EE77FEACD
:10448000645C18BF7FEA655C29D094EA050F08BF19
:1044900090EA020F05D054EA000C04BF19461046FA
:1044A00030BD91EA030F1EBF0021002030BD5FEA3E
:1044B000545C05D14000494128BF41F0004130BD66
:1044C00014F580043CBF01F5801130BD01F00045BA
:1044D00045F0FE4141F470014FF0000030BD7FEA2D
:1044E000645C1ABF194610467FEA655C1CBF0B4628
:1044F000024650EA013406BF52EA033591EA030F3F
:1045000041F4002130BD00BF90F0000F04BF002136
:10451000704730B54FF4806404F132044FF0000569
:104520004FF0000150E700BF90F0000F04BF0021E2
:10453000704730B54FF4806404F1320410F0004548
:1045400048BF40424FF000013EE700BF42004FEA43
:10455000E2014FEA31014FEA02701FBF12F07F43C0
:1045600093F07F4F81F06051704792F0000F14BFBD
:1045700093F07F4F704730B54FF4607401F0004501
:1045800021F0004120E700BF50EA010208BF704758
:1045900030B54FF000050AE050EA010208BF70474D
:1045A00030B511F0004502D5404261EB41014FF4B6
:1045B000806404F132045FEA915C3FF4DCAE4FF0BA
:1045C00003025FEADC0C18BF03325FEADC0C18BFA1
:1045D000033202EBDC02C2F1200300FA03FC20FAF2
:1045E00002F001FA03FE40EA0E0021FA02F114443F
:1045F000C1E600BF70B54FF0FF0C4CF4E06C1CEA54
:1046000011541DBF1CEA135594EA0C0F95EA0C0FC8
:1046100000F0DEF82C4481EA030621EA4C5123EA3B
:104620004C5350EA013518BF52EA033541F480116A
:1046300043F4801338D0A0FB02CE4FF00005E1FB1D
:1046400002E506F00042E0FB03E54FF00006E1FB67
:1046500003569CF0000F18BF4EF0010EA4F1FF04AA
:10466000B6F5007F64F5407404D25FEA4E0E6D41EA
:1046700046EB060642EAC62141EA55514FEAC520FB
:1046800040EA5E504FEACE2EB4F1FD0C88BFBCF577
:10469000E06F1ED8BEF1004F08BF5FEA500E50F128
:1046A000000041EB045170BD06F0004646EA0101EE
:1046B00040EA020081EA0301B4EB5C04C2BFD4EB20
:1046C0000C0541EA045170BD41F480114FF0000E19
:1046D000013C00F3AB8014F1360FDEBF002001F087
:1046E000004170BDC4F10004203C35DA0C341BDC01
:1046F00004F11404C4F1200500FA05F320FA04F0D3
:1047000001FA05F240EA020001F0004221F0004106
:1047100010EBD37021FA04F642EB06015EEA430E79
:1047200008BF20EAD37070BDC4F10C04C4F12005A9
:1047300000FA04F320FA05F001FA04F240EA02005C
:1047400001F0004110EBD37041F100015EEA430E2D
:1047500008BF20EAD37070BDC4F1200500FA05F24D
:104760004EEA020E20FA04F301FA05F243EA0203CC
:1047700021FA04F001F0004121FA04F220EA0200DB
:1047800000EBD3705EEA430E08BF20EAD37070BD21
:1047900094F0000F0FD101F00046400041EB010101
:1047A00011F4801F08BF013CF7D041EA060195F0E3
:1047B000000F18BF704703F00046520043EB03039D
:1047C00013F4801F08BF013DF7D043EA060370478A
:1047D00094EA0C0F0CEA135518BF95EA0C0F0CD095
:1047E00050EA410618BF52EA4306D1D181EA0301DB
:1047F00001F000414FF0000070BD50EA410606BFD5
:104800001046194652EA430619D094EA0C0F02D119
:1048100050EA013613D195EA0C0F05D152EA03365E
:104820001CBF104619460AD181EA030101F000417C
:1048300041F0FE4141F470014FF0000070BD41F0C5
:10484000FE4141F4780170BD70B54FF0FF0C4CF49F
:10485000E06C1CEA11541DBF1CEA135594EA0C0FBE
:1048600095EA0C0F00F0A7F8A4EB050481EA030E0B
:1048700052EA03354FEA013100F088804FEA0333F2
:104880004FF0805545EA131343EA12634FEA0222C0
:1048900045EA111545EA10654FEA00260EF0004181
:1048A0009D4208BF964244F1FD0404F5407402D2D3
:1048B0005B084FEA3202B61A65EB03055B084FEA64
:1048C00032024FF480104FF4002CB6EB020E75EB61
:1048D000030E22BFB61A754640EA0C005B084FEA89
:1048E0003202B6EB020E75EB030E22BFB61A754606
:1048F00040EA5C005B084FEA3202B6EB020E75EB51
:10490000030E22BFB61A754640EA9C005B084FEAC8
:104910003202B6EB020E75EB030E22BFB61A7546D5
:1049200040EADC0055EA060E18D04FEA051545EAC4
:1049300016754FEA06164FEAC30343EA52734FEA6D
:10494000C2025FEA1C1CC0D111F4801F0BD141EAE6
:1049500000014FF000004FF0004CB6E711F4801F4B
:1049600004BF01430020B4F1FD0C88BFBCF5E06F2B
:104970003FF6AFAEB5EB030C04BFB6EB020C5FEA3B
:10498000500C50F1000041EB045170BD0EF0004E90
:104990004EEA113114EB5C04C2BFD4EB0C0541EAC2
:1049A000045170BD41F480114FF0000E013C90E6BF
:1049B00045EA060E8DE60CEA135594EA0C0F08BF83
:1049C00095EA0C0F3FF43BAF94EA0C0F0AD150EA82
:1049D00001347FF434AF95EA0C0F7FF425AF104615
:1049E00019462CE795EA0C0F06D152EA03353FF43D
:1049F000FDAE1046194622E750EA410618BF52EABA
:104A000043067FF4C5AE50EA41047FF40DAF52EA8D
:104A100043057FF4EBAE12E74A0011D212F5001203
:104A200011D20DD56FF47873B3EB62520ED44FEA06
:104A3000C12343F0004343EA505323FA02F0704786
:104A40004FF00000704750EA013002D14FF0FF30C4
:104A500070474FF0000070474FEA4102B2F1E04367
:104A600024BFB3F5001CDCF1FE5C0DD901F0004C55
:104A70004FEAC0024CEA5070B2F1004F40EB8300A5
:104A800008BF20F00100704711F0804F21D113F1D1
:104A90003872BCBF01F00040704741F480114FEA0A
:104AA0005252C2F11802C2F1200C10FA0CF320FA93
:104AB00002F018BF40F001004FEAC1234FEAD323B0
:104AC00003FA0CFC40EA0C0023FA02F34FEA43031A
:104AD000CCE77FEA625307D150EA01331EBF4FF0A3
:104AE000FE4040F44000704701F0004040F0FE40BE
:104AF00040F40000704700BF80F0004002E000BFBB
:104B000081F0004142001FBF5FEA410392EA030FB8
:104B10007FEA226C7FEA236C6AD04FEA1262D2EB02
:104B20001363C1BFD218414048404140B8BF5B4207
:104B3000192B88BF704710F0004F40F4000020F0A0
:104B40007F4018BF404211F0004F41F4000121F0B6
:104B50007F4118BF494292EA030F3FD0A2F1010200
:104B600041FA03FC10EB0C00C3F1200301FA03F13E
:104B700000F0004302D5494260EB4000B0F5000F61
:104B800013D3B0F1807F06D340084FEA310102F120
:104B90000102FE2A51D2B1F1004F40EBC25008BFD2
:104BA00020F0010040EA03007047490040EB00009C
:104BB00010F4000FA2F10102EDD1B0FA80FCACF1CB
:104BC000080CB2EB0C0200FA0CF0AABF00EBC250CA
:104BD00052421843BCBFD0401843704792F0000FB8
:104BE00081F4000106BF80F400000132013BB5E70B
:104BF0004FEA41037FEA226C18BF7FEA236C21D081
:104C000092EA030F04D092F0000F08BF08467047E5
:104C100090EA010F1CBF0020704712F07F4F04D1B3
:104C2000400028BF40F00040704712F100723CBFC6
:104C300000F50000704700F0004343F0FE4040F4F0
:104C4000000070477FEA226216BF08467FEA2363AE
:104C50000146420206BF5FEA412390EA010F40F499
:104C6000800070474FF0000304E000BF10F00043E5
:104C700048BF40425FEA000C08BF704743F09643CC
:104C800001464FF000001CE050EA010208BF7047E7
:104C90004FF000030AE000BF50EA010208BF70476E
:104CA00011F0004302D5404261EB41015FEA010C83
:104CB00002BF84460146002043F0B64308BFA3F17B
:104CC0008053A3F50003BCFA8CF2083AA3EBC2535D
:104CD00010DB01FA02FC634400FA02FCC2F120027C
:104CE000BCF1004F20FA02F243EB020008BF20F0B3
:104CF0000100704702F1200201FA02FCC2F1200219
:104D000050EA4C0021FA02F243EB020008BF20EA0D
:104D1000DC70704742000ED2B2F1FE4F0BD34FF061
:104D20009E03B3EB126209D44FEA002343F0004321
:104D300023FA02F070474FF00000704712F1610F44
:104D400001D1420202D14FF0FF3070474FF0000016
:104D5000704700BF002101F077BD0A22002101F059
:104D60005FBE000008B5074B044613B10021AFF346
:104D70000080054B1868836A03B19847204605F008
:104D80002BFA00BF00000000B4D700080E4B70B52E
:104D90001E460E4C0025E41AA410A54204D056F875
:104DA000253098470135F8E705F018FA084B094C0B
:104DB0001E46E41AA4100025A54204D056F825305A
:104DC00098470135F8E770BD180100201801002050
:104DD000180100201C01002010B5431E0A44914216
:104DE00004D011F8014B03F8014FF8E710BD03465A
:104DF0000244934202D003F8011BFAE770472DE901
:104E0000F04788B0149F002B1E461299B8BF03F1DB
:104E1000004327F02007B6BF1E4600232D23462F50
:104E20001446109DDDF84CA00B7003D0452F03D124
:104E3000013501E0032300E0022307AA049206AA39
:104E400003928DE828042246334601F065FF472F80
:104E5000804602D1119BDB0728D5462F08EB0509B8
:104E600011D198F80030302B0AD1002200232046BF
:104E7000314605F013F918B9C5F10105CAF800501B
:104E8000DAF800309944002200232046314605F02C
:104E900005F908B9302202E0CDF81C9006E0079B26
:104EA000994503D9591C07911A70F8E74046079BAA
:104EB000159AC8EB0303136008B0BDE8F0870346FA
:104EC00073B50029B8BF494203F8022BB4BF2D22A5
:104ED0002B22092942701ADD0DF1070216460A2518
:104EE00091FBF5F405FB1411092C01F1300102F8D6
:104EF000011D2146F4DC3031541E02F8011CB4427D
:104F00001A460AD214F8012B03F8012BF7E71A46C8
:104F10003024214402F8024B5970101A02B070BDBF
:104F20002DE9F04F91B00C46DDF8688016461F461B
:104F3000054603F04FF903681846099300F02BFE6D
:104F400000230E93D8F800300A90073323F00703AC
:104F500003F1080294F81890D4F800B0C8F80020C3
:104F6000D3E90023C4E91223D4F84CA0D4F8488034
:104F70002AF000430B934FF0FF32A74B40460B99AA
:104F800005F0BEF8A0B94FF0FF32A34B40460B9995
:104F900005F098F860B9002200234046514605F01C
:104FA00087F810B12D2384F843309C4B9C4A0AE0CB
:104FB000424653464046514605F0A2F8002800F00C
:104FC0009281984B984AB9F1470F8CBF904698460A
:104FD000032323612BF0040323604FF0000A3DE01C
:104FE000B9F1670F00F08A81B9F1470F00F08681AF
:104FF00023600193636800210DF133020590029252
:105000000093424653460691CDF81090CDF80CE03F
:105010002846FFF7F4FE09F0DF03472B804600F037
:105020008481B9F1650F0D9900F28D8101394A46ED
:1050300004F150000D91FFF742FF0E9A824683184B
:10504000012A236100F37C812268D10700F1788175
:105050009DF8333013B12D2384F843300097334645
:105060000FAA2146284600F09FF9013002D14FF0E7
:10507000FF3096E123685A0501D4236965E0B9F150
:10508000650F40F2D580D4E912010022002305F01B
:1050900005F878B30123654A31462846B847013000
:1050A000E5D00E9B0D9A9A420BDB2368D80708D4F3
:1050B00023689B0740F111814FF0000804F11909A2
:1050C00006E10A9B099A31462846B8470130CED0FE
:1050D0004FF0000804F11A090E9B013B9845E7DAEE
:1050E00001234A4631462846B8470130BFD008F16F
:1050F0000108F1E70D9B002B29DC01234B4A3146C7
:105100002846B8470130B2D00D9B23B90E9B13B986
:105110002368D907CCD50A9B099A31462846B84757
:105120000130A4D04FF0000904F11A0A0D9B5B4234
:10513000994509DA0123524631462846B8470130DD
:1051400095D009F10109F1E70E9B4246A7E00E9ABE
:10515000A36D9A42A8BF1A46002A914606DC4FF07A
:10516000000A29EAE97904F11A0B11E013463146E5
:1051700042462846B8470130F1D178E701235A4624
:1051800031462846B84701303FF471AF0AF1010AB1
:10519000A36DC9EB03029245F0DB08EB03090D9AFE
:1051A0000E9B9A420FDB2368DA070CD40E9B0D9AF4
:1051B0009844C9EB08089B1A9845A8BF9846B8F1CF
:1051C000000F08DC0FE00A9B099A31462846B847D1
:1051D0000130EBD14BE743464A4631462846B847B3
:1051E00001303FF444AF4FF0000928EAE87804F1B9
:1051F0001A0A09E00123524631462846B8470130D1
:105200003FF435AF09F101090D9A0E9B9B1AC8EBCB
:1052100003039945EEDB4BE7FFFFEF7FB8D70008AC
:10522000BCD70008C0D70008C4D70008EEDA0008D1
:105230000E9A012A01DCDB0738D5012342463146AC
:105240002846B84701303FF412AF0A9B099A31460D
:105250002846B84701303FF40AAFD4E912010022D2
:10526000002304F01BFF20B14FF0000804F11A09DD
:105270000EE00E9B08F10102013B19E001234A46B2
:1052800031462846B84701303FF4F1AE08F1010835
:105290000E9B013B9845F1DB534604F15002314629
:1052A0002846B84701307FF403AFE0E642460123C9
:1052B00031462846B8470130EED1D8E601234A46A8
:1052C00031462846B84701303FF4D1AE08F1010815
:1052D000E3680F9A9B1A9845F0DBE0680F9B9842B1
:1052E000B8BF18465DE062680EA8531C0DF1340E7D
:1052F0004BF480637FF474AE062201E012B9012200
:10530000626075E6002106910DF133018DE80C0015
:10531000236005904246CDF81090CDF80CE0029144
:1053200053462846FFF76BFD80460D9BD81C02DBD9
:10533000626893421DDDA9F102095FFA89F970E6FE
:105340000133236184E6B9F1660F14D10029636843
:1053500007DD216113B92268D2071DD501330B4443
:1053600019E013B92268D00701D5023313E00123F5
:1053700011E04FF067090D9B0E9A934205DB2268FE
:105380002361D10708D5013305E0002BD4BFC3F159
:1053900002030123134423610D9B4FF0000AA36510
:1053A00056E611B0BDE8F08F2DE9F04791461F4653
:1053B0000A698B6806469342B8BF1346C9F80030A5
:1053C00091F843200C46DDF8208012B10133C9F872
:1053D00000302368990642BFD9F800300233C9F87B
:1053E0000030256815F0060510D104F1190A07E010
:1053F0000123524639463046C04701301AD00135A4
:10540000E368D9F800209B1A9D42F1DB94F8433001
:105410002268003318BF012392060FD5E11830200F
:1054200081F843005A1C94F845102244023382F854
:10543000431003E04FF0FF30BDE8F08704F1430272
:1054400039463046C0470130F4D02268D9F80050C0
:10545000E36802F00602042A08BF5D1B2269A36804
:105460000CBF25EAE57500259342C4BF9B1AED18D1
:105470004FF000091A344D4509D001232246394620
:105480003046C0470130D5D009F10109F3E70020CB
:10549000BDE8F0872DE9F04317460A7E85B06E2AF5
:1054A000984606460C460C9B01F1430E00F0AE8078
:1054B00011D8632A22D009D8002A00F0BB80582ACC
:1054C00040F0CA8081F84520834955E0642A1ED007
:1054D000692A1CD0C0E0732A00F0B08009D86F2A76
:1054E0002ED0702A40F0B8800A6842F020020A608C
:1054F0003EE0752A24D0782A3AD0ADE01A6801F14E
:105500004205111D1960136884F84230A8E0216833
:105510001A6811F0800F02D0111D196008E011F017
:10552000400F02F10401196002D0B2F9003000E02E
:105530001368002B3CDA2D225B4284F8432037E0CD
:1055400021681A6811F0800F02D0111D196007E060
:1055500011F0400F02F10401196001D0138800E03E
:105560001368227E5C496F2A14BF0A2208221BE0BE
:1055700078225A4984F845202268186812F0800F72
:1055800000F104051D6003D1550601D5038800E034
:105590000368D00744BF42F0200222601BB9226892
:1055A00022F0200222601022002084F8430001E053
:1055B00049490A226568002DA56008DB206820F0B3
:1055C000040020602BB9002D7DD175460CE0002B26
:1055D00079D07546B3FBF2F002FB1033CB5C05F8D3
:1055E000013D03460028F5D1082A0BD12368DA07CC
:1055F00008D5236962689A42DEBF302305F8013C72
:1056000005F1FF35C5EB0E0323612EE008681A682B
:1056100010F0800F496903D0101D1860136808E06E
:1056200010F0400F02F104001860136801D01980D7
:1056300000E0196000232361754616E01A68111D09
:105640001960156800216268284602F041FE08B121
:10565000401B6060636804E004F1420584F8422066
:1056600001232361002384F84330CDF800803B46BA
:1056700003AA21463046FFF797FE013002D14FF0D2
:10568000FF3026E023692A4639463046C0470130BC
:10569000F5D023689B0710D5002504F1190907E010
:1056A00001234A4639463046C0470130E7D001352C
:1056B000E368039A9B1A9D42F2DBE068039B9842E1
:1056C000B8BF184605E00B7804F1420584F8423073
:1056D0008AE705B0BDE8F083C8D70008D9D700082D
:1056E0000FB40A4B13B51C6824B1A36913B9204643
:1056F00002F0ACF905AB049AA1682046019303F0CF
:10570000BDFD02B0BDE8104004B07047D8000020D5
:1057100038B5084B05461C6824B1A36913B9204667
:1057200002F094F9A26829462046BDE8384004F00A
:1057300095B900BFD800002070B50E46054618B1D7
:1057400083690BB902F082F9AB69AC6813B92846DA
:1057500002F07CF9224B9C4201D16C6808E0214B9D
:105760009C4201D1AC6803E01F4B9C4208BFEC682F
:10577000A3891B0701D523693BB92146284601F0BF
:10578000BFF910B14FF0FF3070BD013EA36816F8AD
:10579000011F013BA36091B1002B04DAA26993427F
:1057A00006DB0A2904D023685A1C22601970EDE731
:1057B0002246284601F03EF90130E7D1E2E7002B0E
:1057C00008DA22460A21284601F034F90130D9D0FE
:1057D0000A2070BD23680A205A1C2260187070BD10
:1057E00050D9000870D9000890D90008024B014632
:1057F0001868FFF7A1BF00BFD800002038B50C46DD
:10580000054618B183690BB902F020F90E4B9C4292
:1058100001D16C6808E00D4B9C4201D1AC6803E0FB
:105820000B4B9C4208BFEC682146284604F068F9FF
:1058300038B96368013B636023685A1C226018789A
:1058400038BD4FF0FF3038BD50D9000870D900087E
:1058500090D900080FB40A4B13B51C6824B1A36992
:1058600013B9204602F0F2F805AB049A61682046AD
:10587000019303F073FF02B0BDE8104004B070471D
:10588000D800002000294FF480630CBF02220022C0
:1058900000F000B82DE9F7431D464F4B04461E6843
:1058A0000F46904626B1B36913B9304602F0CEF8E0
:1058B0004A4B9C4201D1746808E0494B9C4201D19B
:1058C000B46803E0474B9C4208BFF468B8F1020F8C
:1058D00004D0B8F1010F79D8002D77DB214630468E
:1058E00002F038F8616B41B104F14403994202D0EF
:1058F000304603F0F3F8002363630023A361636081
:10590000A3891B0603D52169304603F0E7F8A38974
:10591000B8F1020F23F44A6323F00303A3811ED0DE
:1059200001AB6A462146304602F06AFCA38918435F
:10593000A0810DB9009D00E02FBB284602F0C0FCFD
:105940000746D0B9DDF80090A94502D14FF0FF30ED
:1059500006E0484602F0B4FC074678B9F6E70020B6
:10596000A38943F00203A3810023A36004F147034A
:1059700023602361012363612AE0A9464D46A38980
:1059800043F08003A381B36913B9304602F05EF897
:10599000B8F1010F08BFA389276004BF43F00103DA
:1059A000A381A389276103F0080080B2656158B123
:1059B00013F001034FF000001DBF6D42A060A56110
:1059C000A56008BF184603E0A06001E04FF0FF307B
:1059D00003B0BDE8F08300BFD800002050D9000814
:1059E00070D9000890D900080CB430B5164B0C1EC5
:1059F0009DB01D6804DA8B232B604FF0FF301EE052
:105A00004FF40273ADF814300CBF234604F1FF339A
:105A1000049307934FF6FF7302900690ADF816308B
:105A2000209A21AB02A92846019303F05BF9431C9D
:105A3000BCBF8B232B6014B1029B00221A701DB0D7
:105A4000BDE8304002B07047D80000200EB400B569
:105A50004FF402719CB0ADF814106FF00041049146
:105A600007914FF6FF711DAB02900690084853F85E
:105A7000042BADF81610006802A9019303F032F967
:105A8000029B00221A701CB05DF804EB03B0704753
:105A9000D80000200EB430B59CB01FAC4FF401729A
:105AA00054F8045BADF814200290069000F073F8EF
:105AB0000B4B03900B9300230F9314934FF6FF733C
:105AC00007900848ADF816302A46234602A9006818
:105AD000019403F057FA1CB0BDE8304003B07047A2
