:020000040800F2
:100000000040012065430008A3430008A543000801
:10001000A7430008A9430008AB4300080000000004
:10002000000000000000000000000000AD430008D8
:10003000AF43000800000000B1430008B3430008CC
:10004000B7430008B9430008BB430008290F000864
:10005000BF430008C1430008C3430008C54300086C
:10006000C7430008C9430008CB430008CD4300083C
:10007000CF430008D1430008D3430008D54300080C
:10008000D7430008D9430008DB430008DD430008DC
:10009000DF430008E1430008E3430008E5430008AC
:1000A000E7430008FD100008EB430008ED4300089B
:1000B000EF430008F1430008F3430008F54300084C
:1000C000F7430008F9430008FB430008FD4300081C
:1000D000FF43000801440008A9150008F5010008C5
:1000E00007440008094400080B4400080D440008B8
:1000F0000F44000811440008134400081544000888
:1001000017440008194400081B4400081D44000857
:100110001F44000821440008234400082544000827
:100120002744000810B5054C237833B9044B13B1AC
:100130000448AFF300800123237010BD200100208C
:10014000000000003CD80008084B10B51BB108495E
:100150000848AFF300800848036803B910BD074B97
:10016000002BFBD0BDE81040184700BF0000000086
:10017000240100203CD800082001002000000000DD
:10018000154B002B08BF134B9D46A3F5803A002169
:100190008B460F461348144A121A04F0FEFE0F4B0A
:1001A000002B00D098470E4B002B00D09847002022
:1001B000002104000D000D48002802D00C48AFF3C8
:1001C000008004F0B9FE2000290003F0B7FF04F01E
:1001D0009FFE00BF0000080000400120000000005A
:1001E000000000002001002088180020000000000E
:1001F000000000002DE9F043684B83B01A8800210D
:1002000092B201929A886648D2B28DF80320198082
:100210000278002A4DD1019B1B075FD4614A9DF8EB
:100220000330002B68D0604C138827469DF80310DC
:100230009BB2C9B25D4DDFF86CE1E1544FF00108AB
:10024000002101EBC10301EB43032B449E7C06F02C
:10025000FF0C86B95E7C06F0FF09002E5BD1168884
:10026000B6B214F806C01E7CF6B29E5DB44500F02E
:10027000848083F8109001310229E2D113884C491F
:100280009BB2E35C4B4E0D78755D9D4258D00023C8
:100290000B70138848499BB2E35C484D0C782C5D89
:1002A0009C425BD000230B70138801339BB21380F8
:1002B00022E09B88DBB28DF803309DF803300D2BD4
:1002C00019D09DF803300A2B15D09DF80330202B50
:1002D00011D03B4B0121334A19700DE002F0FF01B0
:1002E000324D304A324C344B1180217019702974D0
:1002F00085F8231093E72B4A13882A4A9BB2B3F55B
:10030000806F05D340F2FF302E4B01211080197011
:1003100003B0BDE8F0831688B6B2A65D0A2EAAD156
:10032000BEF80060B6B2013EBE5D0D2EA3D180F8CE
:10033000008083F8128083F811C083F810C09AE718
:100340000B780133DBB20B700B78012BA1D91E4D5A
:100350000123002603700E702B709AE70B7801338F
:10036000DBB20B700B78042B9ED9174B01260025AE
:10037000022406700D701C7096E71E7C0136F6B2E2
:100380001E741E7CF6B29E5D06F0FF0C002E7FF4FC
:1003900072AF83F810C083F811806CE7004800400A
:1003A00044090020420900203C01002000000020F8
:1003B0003C050020F4A500083D050020ECA5000840
:1003C00045090020400900204609002070B40B4A6E
:1003D0000B4E0C4D0C4C0D480D49002333702B7007
:1003E000237003700B8013749374537482F823305A
:1003F00082F8253082F8243070BC7047000000205D
:100400004609002044090020400900204509002039
:10041000420900202DE9F04F002483B03D4E0194A5
:1004200034780D9F64B9019CA74203D808E0019D70
:10043000AF4205D9019C013401943578002DF6D0E6
:10044000347804F0FF08F4B90AB182F800800BB1E7
:1004500000221A700023037018462F4F2F4D304C86
:100460003049314A33703B702B7023700B8013740A
:100470009374537482F8233082F8253082F8243044
:1004800003B0BDE8F08FDFF890A00124DFF894906E
:100490008AF80040B9F800C01FFA8CFCD0B1BCF15A
:1004A000000F33D0B1F1010B32D00CF1FF3E1FFA37
:1004B0008EFE1E490EF1010E451E002401E05C4532
:1004C00005D00F5D0134744505F8017FF7D1A4B262
:1004D00000210155114C0AB12178117010490BB15E
:1004E0000A781A700C9B33B1B8F1020F0C9A0CBF4A
:1004F0000123002313700023337060468AF8003014
:10050000094A23700B70A9F80030B0E76446DFE7B2
:100510005C46DDE746090020440900204009002030
:100520004509002042090020000000203C01002075
:10053000F0B50E4ADFF84CE00D4F0E4E0E4D0F4C4D
:1005400000238EF800303B7033702B7023801374BF
:100550009374537482F8233082F8253082F8243063
:100560000146BDE8F040064802F0DABF0000002076
:1005700044090020400900204509002042090020CC
:100580000048004046090020F0B5044683B02A48E0
:10059000FFF7CEFF0023294A019313782BB107E020
:1005A000019B01330193137813B9019B9C42F7D847
:1005B0001378224D03F0FF022BB3022A204F25D0DF
:1005C0000123204E3B7033881F4A9BB20024104603
:1005D0001E49D45405F0D0FBA8B1007A1C4B1D492C
:1005E0001D4A3038C0B22C703C700C7014703480CE
:1005F0001C749C745C7483F8234083F8254083F852
:10060000244003B0F0BDFF2003B0F0BD104A114EEE
:10061000114C0C490023FF202B703B70337023706A
:100620000B8013749374537482F8233082F825304E
:1006300082F8243003B0F0BDACA3000846090020C6
:1006400044090020420900203C010020BCA300080E
:10065000000000204009002045090020F0B587B0C7
:1006600003461B4A0C4601A8142105F093FA01A881
:10067000FFF75EFF0023174A009313782BB107E0C2
:10068000009B01330093137813B9009B9C42F7D869
:100690001378104903F0FF00C3B10023022808BFFC
:1006A00018460D4A0D4F0E4E0E4D0F4C0B7018BFD5
:1006B00001203B7033702B70238013749374537438
:1006C00082F8233082F8253082F8243007B0F0BD5C
:1006D000C8A30008460900200000002044090020AB
:1006E0004009002045090020420900202DE9F04F73
:1006F000514C93B003938146E36820688A461546BF
:100700006168A26806AC0FC44C494D48BDF87070D2
:100710001D9E4C4C02F004FF0023049323782BB160
:1007200007E0049B01330493237813B9049B9E4292
:10073000F7D82378434903F0FF02002B74D000233D
:100740000B704149DFF814810B704049DFF810B19C
:100750000B703F49022A0B70ABF8003088F810305C
:1007600088F8123088F8113088F8233088F825305E
:1007700088F824305CD037498DE8A00053464A46BB
:100780000AA805F039FA0AA92D4802F0C9FECFB12E
:10079000039D2F44A94615F8013B12AA02EB13133F
:1007A00013F8301C264802F0B5FE99F8003012AA62
:1007B00003F00F031344224813F8301C02F0AAFE82
:1007C000BD42E7D124491E4802F0AAFE002305934A
:1007D00023782BB107E0059B01330593237813B9E8
:1007E000059B9E42F7D82378164903F0FF02DBB140
:1007F00000230B701449022A0B7014490B70144922
:100800000B70ABF8003088F8103088F8123088F898
:10081000113088F8233088F8253088F8243007D044
:10082000042013B0BDE8F08F002013B0BDE8F08FB6
:10083000012013B0BDE8F08F9CA30008D8A30008E6
:1008400000480040460900204409002040090020DB
:1008500045090020E8A300089CCA00080000002009
:1008600042090020F8B5374DAA7C4AB902F0FF03CF
:1008700008B1FF22027009B100220A801846F8BDB3
:100880000746314E314A33880C469BB20021D15481
:1008900010462F4905F070FA17B1437A303B3B7090
:1008A00084B300232380C27A0B30303A092A46D819
:1008B000194603EB83035A0092B222800378303A40
:1008C00013449BB2238010F8012F0131303A092ADA
:1008D000C9B22BD80529ECD1002213461D4F1E4C5E
:1008E0001E481F493A70227002700A7032802A74C2
:1008F000AA746A7485F8232085F8252085F82420B9
:100900001846F8BD134B14481449154A1C7004705E
:1009100001230C70147034802C74AC746C7485F8E2
:10092000234085F8254085F82440A7E74B1F18BFD2
:100930000123084F084C094809490022D2E7012346
:10094000F7E700BF00000020420900203C01002022
:1009500004A40008460900204409002040090020A2
:1009600045090020F0B5254DADF5057D95F825200C
:100970002AB902F0FF0318460DF5057DF0BD0646C5
:100980001F4F20493A884FF0000E92B202AC01F896
:1009900002E00846234601AA1B4905F051F90198D7
:1009A0009EB148B32346721E04EB000E0DF5027C87
:1009B00001E0634507D013F8011B734502F8011FDE
:1009C000A3EB0401F5D100237354104E104C1149D0
:1009D000114A002380B2337023700B7013703B8078
:1009E0002B74AB746B7485F8233085F8253085F84B
:1009F00024300DF5057DF0BD0146E4E70000002040
:100A0000420900203C01002010A4000846090020F3
:100A10004409002040090020450900202DE9F04349
:100A2000AFB017461E4602460B4604A86549379DDF
:100A300005F0E2F804A8FFF77BFD634C0023039365
:100A400023782BB107E0039B01330393237813B979
:100A5000039B9D42F7D82378DFF86C9103F0FF00E9
:100A600073B302282FD0DFF88081584AB8F80030DD
:100A700010469BB256490025D55405F07DF90EA9C4
:100A80000DF10A030191009309AA02AB514905F047
:100A9000D7F8042830D0504B504C5149514A89F86E
:100AA0000050022025700D701570A8F800501D74BC
:100AB0009D745D7483F8235083F8255083F8245087
:100AC0002FB0BDE8F083454E454D464C46490023C6
:100AD000414A89F80030012033702B7023700B805D
:100AE00013749374537482F8233082F8253082F89B
:100AF00024302FB0BDE8F083369B002B4CD0BDF8DE
:100B00000A305900002B47D02A4619E01B014FFA42
:100B100083FE15F87F5CA5F13003DBB2092B05D904
:100B2000A5F14103052B21D8A5F137035BB20132B2
:100B300092B25500EDB243EA0E038D4203702BDAF8
:100B40002EAB1D4415F880EC369B9818AEF130039F
:100B5000DBB2092BDAD9AEF14103052B0FD8AEF188
:100B6000370343F303034FEA031ED2E7A5F1610302
:100B7000052B9ABFA5F157035BB20023D7E7AEF16F
:100B80006103052B9DBFAEF1570343F303034FEA07
:100B9000031E4FF0000EBCE71FB109A9384605F04F
:100BA000C8F816B1BDF8083033800C4E0C4D0D4915
:100BB00000232370084A337004202B700B70A8F8B0
:100BC00000308DE72CA40008460900203C010020DD
:100BD00040A400084CA400080000002044090020A4
:100BE00040090020450900204209002010B50446B4
:100BF0009CB01F48FFF79CFC00230DF10B020092F4
:100C000001941A4603A86421FFF704FC9DF80B30F9
:100C1000FBB9E0B103A8174905F0AEF830B383790A
:100C20002C2B20D0FBB1C279303B9BB22C2A19B2BD
:100C300007D032B103EB8303303A02EB43039BB29C
:100C400019B29A1E1C2A07D85800713800B21CB07D
:100C500010BD00201CB010BD1F2914BF6FF06E0026
:100C60006FF03200F3E76FF06E00F0E70248EEE756
:100C7000ACA40008B8A4000816FCFFFF30B50C4671
:100C80009DB005461F48FFF753FC0DF10B020023F2
:100C90000194009203A81A466421FFF7BBFB9DF85C
:100CA0000B4004B928B91DB300242C7020461DB098
:100CB00030BD03A8144905F05FF80028F6D0FDB157
:100CC000C1790D291AD02A46073005F1310401E017
:100CD000A24211D002F8011B10F8011F531B0D296D
:100CE000DBB2F5D1012420460022EA541DB030BD0C
:100CF0002C4620461DB030BD3123F3E72346F1E7F3
:100D00000124D3E7C0A40008CCA4000830B50C46E9
:100D10009DB005461D48FFF70BFC0DF10B020023AB
:100D20000194009203A81A466421FFF773FB9DF813
:100D30000B40ECB9E0B103A8154905F01DF80DB35F
:100D4000817A0D2920D000F10A042B4605F13100EB
:100D500001E0834214D003F8011B14F8011F5A1B51
:100D60000D2992B2F5D100230120AB541DB030BD46
:100D70001DB1002028701DB030BD28461DB030BD0B
:100D80003122F0E70120F6E72246ECE7D4A4000880
:100D9000E0A400082DE9F041074684B030488846B9
:100DA00004F0FAFD3978002955D03B46002102E0D5
:100DB000B1F5617F47D013F8015F013189B2002D91
:100DC000F6D10C46274804F061FDB4F5617F2FD0C1
:100DD000254E264804F0E0FD2346254A4FF4806165
:100DE0000097304604F0D6FE3146224804F04EFD0E
:100DF0003046FFF79DFB204804F0CEFD00230DF1A7
:100E00000F0200924FF480611A46CDF804803046FC
:100E1000FFF700FB00253146184886F8FF5304F021
:100E200035FD9DF80F303BB9154804F0B5FD01259F
:100E3000284604B0BDE8F081124804F0ADFD284614
:100E400004B0BDE8F0810025064804F01FFD2846E7
:100E500004B0BDE8F08103480C4604F017FDB7E785
:100E6000ECA4000804A500084005002018A500080F
:100E700030A5000848A500085CA5000874A5000876
:100E800098A5000888A5000810B504469EB0134830
:100E9000FFF74EFB0DF10F02002300926421019435
:100EA00005A81A46FFF7B6FA05A80D4904F064FF35
:100EB00030B104AA0B4904F0C3FE049B012B08D0F7
:100EC0009DF80F000130C0B2B0FA80F040091EB0AA
:100ED00010BD0028F4D09DF80F00F5E7A8A5000884
:100EE000B4A50008BCA5000810B50C4684B098B99C
:100EF0000B48FFF71DFB00230DF10F028DE81400D6
:100F000019461A461846FFF785FA9DF80F00B0FA01
:100F100080F0400904B010BD0248FFF709FBEAE782
:100F2000DCA50008CCA50008094A0A4B4FF4801143
:100F300051611A68084942F480721A60CA6822F442
:100F40008062CA601A6822F480721A60704700BF1B
:100F5000000401400070004000280040F0B42E4B17
:100F600008242E4AC3F8804013682D4C2D4D43F4BD
:100F700080731360CA274FF480135326676266623A
:100F80006B61E36823F48063E360A36823F4884320
:100F9000A360E3685D0706D4234B01E0013B02D068
:100FA000E2685207FAD531B31D4B58619A6822F0B6
:100FB00007029A609A6842F004029A60184A174839
:100FC0009368002443F4884393600168154B21F42F
:100FD0008071016054621A680F4C42F480121A60EA
:100FE0009A681249082542F4801201209A6025600F
:100FF0000870F0BC70470E4B0003A3FB0023084AA7
:101000009B09013B5361936823F007039360936846
:1010100043F001039360D1E700E100E0007000407D
:10102000002800400004014080841E004709002081
:10103000D34D62101C4B1B78002B34D01B491C4B2A
:101040000A6942F004020A611A6842F005021A6055
:101050001A6822F002021A6030BF16490B6843F08A
:1010600001030B600B68980706D4134B01E0013BAA
:1010700002D00A689207FAD50E498B6823F0030361
:101080008B608B6843F001038B608B6803F0030374
:10109000012B08D1084A01E0013A04D08B6803F023
:1010A0000303012BF8D070474709002000ED00E052
:1010B000007000400038024080841E0070B5164663
:1010C00042B10C468D1814F8011B034802F022FAB5
:1010D000AC42F8D1304670BD0038014070B51646BC
:1010E00042B10C468D18044802F02AFA04F8010BAC
:1010F000AC42F8D1304670BD00380140194B1A8A15
:10110000900707D518490A6801320A605A6B02F540
:101110007A725A63134B1B8A590714D5134B1B8AD7
:101120005A0606D4124B1B781BB9124A13680133B6
:1011300013600E4B1B8A5B0609D40A4A936B03F5B6
:10114000434350339363074B00221A827047084B86
:101150001A78002AF1D1074A1268002AEDD001223C
:101160001A70EAE700080140480900200008024020
:101170004C09002058090020014B1868704700BF37
:1011800048090020034A116813685B1A8342FBD3A5
:10119000704700BF48090020034B202208B91A837A
:1011A00070475A83704700BF000002400A4A4FF45C
:1011B000807082B000230949108301E0019B013354
:1011C00001930A68019BB3EB520FF7D3024B4FF424
:1011D00080725A8302B07047000802405009002014
:1011E00010B4164B164C174983B00022DC60D9604E
:1011F000ADF80620BDF806309BB2402B18D8BDF8DC
:101200000630BDF806209BB29B0092B203F100634A
:1012100050F8222003F500231A60BDF80630013390
:101220009BB2ADF80630BDF806309BB2402BE6D934
:10123000024B01225A6003B010BC7047003C0240D0
:10124000EFCDAB89050403024FF48272014903F02C
:1012500099BE00BF0000080810B40478ECB1F1B1E9
:10126000002213460AE09A4218BF8454013292B217
:1012700001339BB2C45C64B199420AD07F2CF2D195
:10128000541E002AF4D001339BB2A2B2C45C002CDD
:10129000F2D10023835410BC70472246F9E70A4676
:1012A000F7E700BFF0B5914A83B01368002143F01F
:1012B00001031360019113689E070DD4019B8C49B3
:1012C0008B4203D908E0019B8B4205D8019B013377
:1012D000019313689D07F6D5864B19461A6842F0AC
:1012E00004021A600B68834A5C07FBD51146136839
:1012F00043F0030313600B68D807FCD57B4C7E4D8D
:10130000A268002342F00102A260E1697B4A41F039
:101310000701E161606A4FF4E13140F41810606246
:10132000266A774846F4804646F00C0626622E6808
:10133000744F46F4201646F494662E602E6A46F4E6
:10134000EE462E626E6A46F4EE666E6202F0FEF8BB
:1013500001236A4A4FF416516B4802F0F7F86B4BC1
:1013600040225A603B680021586804F061FB3B68EA
:101370000021986804F05CFB654804F00DFB636A8B
:1013800043F080536362636B13F400753DD1614891
:1013900004F002FB6049614A0B68CA2643F480737B
:1013A00053200B6056625062636B43F48073636337
:1013B0000195636B9A050DD4019B4D4A934203D965
:1013C00008E0019B934205D8019B01330193636BB5
:1013D0009B05F6D5019A464B9A4200F28280504C0A
:1013E0000023237041494D484B6B4B4A43F4820321
:1013F00000254B634562136823F4807313602378E0
:1014000063B1484804F0C8FA08E0454C0023464858
:10141000237004F0C1FA2378002BF2D1434B4FF430
:1014200080425A834CF250371A68344942F0805255
:1014300042F420221A609A883D4892B242F44072E7
:101440009A805A6A314C42F044025A6200F08CFB96
:10145000384804F0A1FA38494FF440734B830A68C6
:10146000012342F425020A60486A244A40F4EE400F
:1014700048624FF4E131314802F068F8802363603C
:101480002F4804F089FA2F4B4FF47A725A630121E6
:101490004FF000720F20062681259F6318859E81DC
:1014A00029481D809982226004F076FA274804F0CA
:1014B00073FA274A00232749136008680B681B1A30
:1014C000B3F57A7F07D21368013313600B681B1AD8
:1014D000B3F57A7FF7D311681F4804F0D7F903B04A
:1014E000F0BD0F4C012323707CE700BF00380240A1
:1014F0007F841E00003C0240000002400024F400F3
:1015000000380140D80000200044004000E100E025
:10151000F8A5000824A6000800700040002800403C
:101520005409002054A6000838A600080004024010
:101530000054004070A60008000802400048004027
:1015400084A600080008014098A60008B0A600087C
:101550005009002048090020D4A6000800B5002347
:1015600083B0014600935122024800F059FA03B0BB
:101570005DF804FB0054004000B585B00DF10F0389
:1015800001460093AA220123064800F0B5F818B1DD
:101590007F2005B05DF804FB9DF90F0005B05DF8F4
:1015A00004FB00BF00540040F0B4354B82B01A88F1
:1015B000002192B201929A883248D2B28DF803206B
:1015C00019800378002B36D140F2FE3603F0FF027B
:1015D000019B2D4C13F0080F2C4B2D4D1CBF1A8076
:1015E00022701A889DF8031092B2C9B2A9541A88C1
:1015F000264992B2B24203D80A88013292B20A80D6
:101600002178244E9DF80320715C1F4E9142224A9E
:1016100014D000212170117801F0FF0601B91E805D
:1016200012781D493AB11B88184A9BB2013BEB5C0A
:10163000174D0A2B12D002B0F0BC7047117801F0A0
:10164000FF070029E5D131780131C9B23170317815
:101650000529E5D9012137701170E1E713889BB2A4
:10166000023BEB5C0D2BE6D1138800269BB2023BBC
:101670000127EE540E70168026700770DBE700BF5E
:1016800000440040600D00205C0D00205E0D002035
:101690005C090020ECA600085D0D002070B4144E1B
:1016A0003378EBB1B0B1134A147804F0FF037CB186
:1016B0000139002919DD0024234601E08B4207DAB5
:1016C000155D5C1CC554A3B2D55C1C46002DF5D13C
:1016D0000022C254002301223370104670BC7047B0
:1016E00003F0FF02104670BC70470023F0E700BF14
:1016F000600D00205C0900200BB903207047F0B595
:101700008FB0149C002C4BD004880025A4B244F464
:10171000807404800295848AE7070DD4029C944D5E
:10172000AC4203D908E0029CAC4205D8029C0134CB
:101730000294848AE607F6D5029C8D4DAC421BD8F4
:10174000490000248EB206820394848AA40706D539
:1017500008E0039C01340394848AA70702D4039C05
:10176000AC42F6D9039D824CA54202D8058BEF0707
:1017700018D402200FB0F0BD01200FB0F0BD0B96C1
:10178000858A6D0606D508E00B9D01350B95858A87
:101790006D0602D40B9D8D42F6D90B9D8D426AD900
:1017A0000320EAE792B2002502820495828A160697
:1017B00006D508E0049A01320492828A150602D402
:1017C000049AA242F6D9049A694CA242E8D8028847
:1017D000002592B242F4807202800595828AD60773
:1017E00009D405E0059A01320592828AD20702D413
:1017F000059AA242F6D9059C5D4A9442BCD8012BB9
:1018000041F001013AD0022B00F0888000240182CF
:101810000A94818A890706D508E00A9901310A915C
:10182000818A8E0702D40A999142F6D90A9A5049C0
:101830008A42B5D8028BD207B2D505880024ADB252
:1018400045F48065DF1EA3F1020C03F1FF3E26463E
:10185000149A05809BB205E00134A5B2AB4202F1B7
:10186000010246D9A7428ADC00F0BD80A44500F001
:10187000A080A645F0D1058A1570EDE7002301820E
:101880000693838A9B0706D508E0069B01330693DF
:10189000838A9F0702D4069B9342F6D9069B344A5B
:1018A00093423FF67DAF038823F480631B041B0C37
:1018B0000380038BDD077FF573AF038800219BB2A4
:1018C00043F4007303800791838A5E0606D508E01F
:1018D000079B01330793838A5D0602D4079B9342DB
:1018E000F6D9079A224B9A423FF65AAF038A149AC6
:1018F000137000230193038BDA070DD5019B1C4A5B
:10190000934203D908E0019B934205D8019B013320
:101910000193038BDB07F6D400202EE7002301821E
:101920000893838A9C0706D508E0089B0133089337
:10193000838A990702D4089B9342F6D9089B0C4AE4
:1019400093423FF62DAF038823F480631B041B0CE6
:10195000038003889BB243F400630380038BDC079E
:101960007FF51EAF00230993838A5B070BD407E042
:101970007F841E00099B01330993838A5F0702D489
:10198000099B9342F6D9099A244B9A423FF608AF35
:101990000388149A9BB243F400730380038A137084
:1019A000038A5370038823F400631B041B0C038019
:1019B0009FE70D96858A6D0706D508E00D9D0135D8
:1019C0000D95858A6D0702D40D9D8D42F6D90D9D2A
:1019D0008D423FF6E5AE0588ADB245F40075058051
:1019E000058A157045E70C96858A6D0706D508E0CF
:1019F0000C9D01350C95858A6D0702D40C9D8D4296
:101A0000F6D90C9D8D423FF6CBAE058825F4806556
:101A10002D042D0C0580058A157027E77F841E0094
:101A200030B404880025A4B244F4807486B00480E5
:101A30000195848AE5070DD4019C4A4DAC4203D937
:101A400008E0019CAC4205D8019C01340194848AD1
:101A5000E407F6D5019D434CA5427CD849000025FA
:101A600001820295818A890706D508E00299013131
:101A70000291818A8D0702D40299A142F6D9029C73
:101A800038498C4203D9022006B030BC7047048B21
:101A9000E407F8D592B2002402820394828A1406E5
:101AA00006D508E0039A01320392828A120602D414
:101AB000039A8A42F6D903992A4A91424FD8089943
:101AC000E1B1DBB15C1E089BA4B21C44591E002589
:101AD00011F8013F03820495838A1B0606D508E0AE
:101AE000049B01330493838A1B0602D4049B934214
:101AF000F6D9049B934232D8A142E9D10023059341
:101B0000838A5A070DD4059B164A934203D908E0ED
:101B1000059B934205D8059B01330593838A5B0798
:101B2000F6D5059B0F4A934219D8038800219BB232
:101B300043F4007303800091038BDB0709D505E0B4
:101B4000009B01330093038BDD0702D5009B93427A
:101B5000F6D9002098E7012006B030BC7047042079
:101B600092E700BF7F841E0010B4084C084A8B091E
:101B7000A4FB0141A2FB0323890C4C1C9B090122FD
:101B8000818083830484028010BC704783DE1B4302
:101B9000632D3E0500B585B00DF10F03014600939E
:101BA0000F2201230348FFF7A7FD9DF80F0005B0A2
:101BB0005DF804FB00540040F0B515461C4607468E
:101BC00085B009010DF1100E0F4E41F007010EF81E
:101BD000011D2D01E400CDF800E00146012330464F
:101BE000202205F0300504F00804FFF719FF2C430C
:101BF00004AB03F8024D00933946304601232322FB
:101C0000FFF70EFF05B0F0BD00540040F0B585B001
:101C100002AF0E46154601461C4600970623A82231
:101C20001848FFF769FD9DF809309DF808209B00D2
:101C300043EA9213990554BF1A4643F47C429DF837
:101C40000B309DF80A109B0043EA911352423280F8
:101C50009A059DF80D209DF80C104FEA820242EA89
:101C6000911248BF43F47C435B4291B22B808B05B9
:101C70004ABF6FEA815313466FEA9353238005B03E
:101C8000F0BD00BF0054004000B589B00B46009085
:101C9000054A03A8142103F07DFF03A9034803F0BC
:101CA000F5FD09B05DF804FBFCA6000808A70008D4
:101CB0002DE9F8431E4680460D46654865491446A1
:101CC00003F0E4FD6449624803F0E0FD63496048C5
:101CD00003F0DCFD002E5CD1DFF8A891B4B208EB74
:101CE000C4077B681B781BB958F83430002B49D0E7
:101CF000AC422BD05A49564803F0C8FD57495448C6
:101D000003F0C4FD142C1CD04FF6FF7315210122E3
:101D100001328C4292B214D039F812109942F7D1A4
:101D200050494B4803F0B2FD4F4803F0AFFD7A68CD
:101D3000611C4E4803F0AAFD4D4803F02DFE01360C
:101D4000CCE74649424803F0A1FDEDE74949404848
:101D500003F09CFD142C10D04FF6FF7115220123C7
:101D6000013395429BB208D039F813208A42F7D14B
:101D70004149374803F08AFDD6E74049344803F02B
:101D800085FDD1E73E49324803F080FD2046BDE89D
:101D9000F883211DC9B20020FFF776FF30492C4897
:101DA00003F074FD142C4DD04FF6FF703549152209
:101DB0000123013394429BB244D031F81320824274
:101DC000F7D12849224803F061FD274803F05EFD62
:101DD00008EBC4035A68611C244803F057FD291D11
:101DE000C9B20020FFF750FF2249194803F04EFD09
:101DF000142D22D04FF6FF70224915220123013302
:101E000095429BB219D031F813208242F7D11A497A
:101E10000F4803F03BFD08EBC508134803F036FDFF
:101E2000D8F80420691C184803F030FD144908480C
:101E300003F02CFD0220BDE8F8831049044803F0AC
:101E400025FDE8E70549024803F020FDBDE700BF96
:101E5000F4A600080CA7000810A7000818A700089F
:101E60001CA700089CA7000820A700087CA7000862
:101E70001CAB000888A70008A0A70008FCBE00084B
:101E800098A70008F0AB00088CA7000810B50E4C0E
:101E90000E49204603F0FAFC20460D4903F0F6FCFB
:101EA00020460C4903F0F2FC0B49204603F0EEFCFF
:101EB0000A4803F071FD0A4803F0E8FCBDE8104051
:101EC0000849094803F0E2BCF4A60008A4A70008EA
:101ED000ACA70008A0A70008B0A70008B4A7000896
:101EE00020A7000810A8000828A800082DE9F04F36
:101EF0008046C3B001A8FFF7A7F9714803F0C6FCFC
:101F0000704803F0C3FC00210846FFF7BDFEFFF751
:101F1000BDFF002340461A4619469B46FFF7C8FE00
:101F20005C4681465D465E46674F684801F008FBA7
:101F3000A0F13003DBB2092B824634D80DF80B0038
:101F4000BBF1000F00F09A809DF800109DF8013061
:101F50003039313B01EB810103EB410189B2494545
:101F600028BF49465B4689B2224640460C46FFF7E9
:101F70009FFE4FF0000BBAF11B0F1DD0012E00F099
:101F80009780032D6FD0022ECFD1BAF1410F7FD0B1
:101F9000BAF1420F75D021462246012340460C4635
:101FA000FFF786FEC1E7722844D00D280AD0BAF1A7
:101FB0001B0F4FF0000BE1D10135EDB2032D52D0D4
:101FC0000126B2E74249434803F060FC42494148D8
:101FD00003F05CFC00210846FFF756FE142C5CD091
:101FE0004FF6FF7115220123013394429BB254D066
:101FF00037F813208A42F7D101A858F834309847AF
:10200000364803F0C9FC314801F09AFA304982465B
:10201000304803F03BFC30492E4803F037FCFFF713
:1020200035FF0023224621464046FFF741FE4FF090
:10203000000BA0E7224803F029FC224803F026FC0D
:1020400000210846FFF720FEFFF720FF00231A4675
:1020500019464046FFF72CFE012E81464FF0000B3B
:10206000ACD0032D8FD11A491A4803F00FFC002180
:102070000846FFF709FE43B0BDE8F08F4FF0010BB3
:1020800079E709F1FF339C420EDB2146002683E706
:10209000002CFAD0611E89B2F8E7114803F07CFCED
:1020A000104803F079FCAEE7611C89B2002673E7A3
:1020B000BAF15B0F82D12146002502266CE700BFF2
:1020C00040A8000868A80008F0AB000800380140EC
:1020D000ACA70008F4A6000898A7000870A800089C
:1020E000A4A8000800A90008F0B57049D7B070484E
:1020F00003F0CCFB6F4803F04FFC15A8FFF7A4F8E2
:102100009DF85430002B40F0A2806B4803F044FC53
:10211000BDF84811694803F0B9FB9DF8850000F04F
:102120008FFF20B19DF88430002B40F0AC806448D4
:1021300003F032FC9DF8050100F082FF20B19DF80C
:102140000431002B40F0A4805E4803F025FC9DF88C
:102150004A115D4803F09AFB5C4803F097FB9DF839
:102160004B315B4F0F2B0CBF5A485B4803F014FCFC
:1021700051995A4803F08AFB9DF84C11584803F0D6
:1021800085FB584803F008FC3B68002B64D07D6851
:102190002B78002B60D000263446002C4FD0042C26
:1021A00051D001342A46711CA4B24F4803F06EFB93
:1021B00057F834202646464B2AB103EBC4035D682A
:1021C0002B78002BE9D1494803F060FB01A948486E
:1021D00003F016FC502101A8FFF73EF801A802F019
:1021E00092FE013800F0FF05424803F0D5FBAC42F7
:1021F00043D957F8353015A898473E483E4C03F070
:10220000CBFB3E4803F0C8FB206842685368013BA3
:10221000002B536041DB4268136801331360206870
:1022200042685368013B002B53603ADB42681368F5
:1022300001331360324803F0AFFB57B0F0BD3148B3
:1022400003F0AAFBADE7304803F0A6FBA9E715A908
:102250002E4803F01BFB5BE7244803F017FB01A9A2
:10226000234803F0CDFB01A85021FEF7F5FF01A89C
:1022700002F049FE1F4803F08FFB0DF105012448D1
:1022800003F004FBB9E721A9224803F0FFFA51E764
:1022900041A9214803F0FAFA59E7416803F084FBA9
:1022A000BDE7416803F080FBC4E700BF10A8000849
:1022B00018A9000870A9000898A90008D0A900086A
:1022C000E4A9000818AA000844AA000864AA0008A3
:1022D000ECC600087CAA000884AA000894AA00089A
:1022E000C4AA0008DCAA00084CAB000858AB0008E0
:1022F00008A700085CAB0008D8000020C8AB0008A5
:102300001CAB000820AB000838AB0008BCA90008D3
:10231000B0AB000804AA000834AA0008BFF34F8F2E
:102320000449054BCA6802F4E0621343CB60BFF373
:102330004F8FFEE700ED00E00400FA0580B5144879
:1023400003F02AFB40F22151124A1348D36980243A
:1023500043F08073114FD361C0F88440BB8A02F50B
:1023600020520F4C0F4D9BB2303243F040030120FE
:102370000D4EBB829460D56050601160B38A9BB2F1
:1023800043F04003B38215635463D0629162FEE769
:10239000FCAB00080038024000E100E000480040CB
:1023A00004480040043801400038014008B50448A2
:1023B00003F0F2FABDE80840024803F0EDBA00BFAE
:1023C0003CAD000860AD000838B500F13005294685
:1023D0000446114803F05AFA104803F0DDFA104998
:1023E000104803F00DFB50210D48FEF735FF0C4857
:1023F00003F0A7FC7F2809D8421C0949284602F0AF
:10240000C1FD2046BDE83840FEF7EABE0648BDE8FB
:10241000384003F0C1BA00BFA0AF0008C4AF000845
:10242000B40F002008A70008E4AF000838B5044640
:10243000054634F8F41F074803F028FA064803F06D
:10244000ABFA2146054803F0DBFA2846BDE83840E0
:10245000FEF7C6BEF8AF00081CB0000864BE000856
:1024600010B50446124803F097FA04F1F001114840
:1024700003F0C6FAD4F8F030B3F57A7F0ED3B3F593
:102480007A5F06D94FF47A53C4F8F0300A4803F063
:1024900083FA2046BDE81040FEF7A2BE4FF47A73DF
:1024A000C4F8F030054803F077FAD4F8F030E6E7E6
:1024B00034B0000884B00008C0B0000888B000083C
:1024C00038B505460B4C0C4803F066FA21460B481C
:1024D00003F096FA20465021FEF7BEFE23782846E8
:1024E000302B0CBF0023012385F8F830BDE83840BD
:1024F000FEF776BEB40F0020F8B0000808A7000869
:1025000038B505460E4C0F4803F046FA21460E48F2
:1025100003F076FA0D4803F03FFA20465021FEF70B
:102520009BFE23782846312B0CBF0F23002385F810
:10253000F730FEF755FEBDE83840054803F02CBAE9
:10254000B40F002044B1000808A700081CAB000825
:1025500088B1000810B5044682B0154803F01CFA93
:10256000144803F019FA01A9134803F049FA134873
:1025700003F012FA019B012B13D0022B0AD0104852
:1025800003F084F92046FEF72BFE0E4803F004FA10
:1025900002B010BDD4F8FC3043F00103C4F8FC30A5
:1025A000F0E7D4F8FC3023F00103C4F8FC30E9E78D
:1025B000BCB10008F4B1000864BE00081CAB000800
:1025C00020B2000878B200082DE9F04100F1B00512
:1025D000294604462F4803F059F92F4803F0DCF947
:1025E0002E492F4803F00CFA2E4803F0D5F950215C
:1025F0002A48FEF731FE294803F0A3FB3F282BD8D9
:1026000029490646254803F08AFB28498046234885
:1026100003F085FB0746B8F1000F10D068BB00231C
:1026200084F8F630224803F0B7F9294694F8F6000A
:1026300001F04CF92046BDE8F041FEF7D1BD94F819
:10264000B03073B91B4803F0A7F9002FE7D020463C
:10265000BDE8F041FEF7C4BD1748BDE8F04103F006
:102660009BB9164803F098F9012084F8F600294632
:1026700001F02CF9002FEAD1D1E7721C2846074956
:1026800002F080FC0E4803F087F92046BDE8F041D7
:10269000FEF7A6BD88B200089CB20008B40F002067
:1026A00008A700081CAB0008FCB2000804B300082F
:1026B00058B300080CB30008E4AF000840B30008AA
:1026C00074B3000830B504461C4B91B0196803A8D8
:1026D000FEF7D4FA94F8F83093B9194D194803F07D
:1026E0005BF92946184803F08BF928465021FEF77C
:1026F000B3FD2B7803F0DF03592B0FD011B030BDA1
:1027000094F8F610B4F8F42020460193009103AB3E
:1027100004F1300101F0E0FA11B030BD94F8F80096
:1027200094F8F610B4F8F42003AB01900091204621
:1027300004F1300101F0D0FA11B030BD5009002091
:10274000B40F002088B3000808A7000830B548205F
:102750009DB0FEF711FF0DF10E0303AA0DF10A0162
:1027600005461820FFF752FA1820FFF713FA04461F
:10277000BDF90E00BDF90C30BDF90A2029460090C4
:102780001B4803F083F8332C0CBF1A481A4803F097
:1027900003F91A4803F000F900210846FEF77EFF0E
:1027A0004FF49660FEF7EEFC08A85021FEF776FF86
:1027B000C8B108A9124803F069F808A806AA04A934
:1027C00001F0E6F950B1DDE90601DDE90423CDE9C8
:1027D00000010C4803F05AF81DB030BD0A4803F060
:1027E000DBF81DB030BD094803F0D6F81DB030BD90
:1027F0002CB4000880B40008B0B40008DCB40008B1
:1028000030B50008B0B5000844B50008F4B40008BD
:102810000148FFF76BBB00BFECC6000810B50446CB
:102820002E4803F0B9F82378002B51D12C4803F03F
:10283000B3F8B4F8F4102B4803F028F894F83120DA
:1028400022F02003413B192B38D9303A092A35D9D7
:10285000254803F0A1F894F8B12022F02003413B71
:10286000192B21D9303A092A1ED9204803F094F8AF
:1028700094F8F6101E4803F009F81E4803F006F815
:1028800094F8F7300F2B0CBF1B481C4803F084F85A
:10289000D4F8F0101A4802F0F9FF94F8F81019482B
:1028A000BDE8104002F0F2BF94F8B030002BDCD04D
:1028B00004F1B001144802F0E9FFD9E794F8303090
:1028C000002BC5D004F13001104802F0DFFFC2E751
:1028D00021460F4802F0DAFFABE700BF70A90008FD
:1028E00098A90008D0A90008E4A9000818AA0008BF
:1028F00044AA000864AA00087CAA000884AA000868
:1029000094AA0008C4AA000834AA000804AA00086F
:10291000BCA9000870B50646C4B04FF47A70FEF743
:1029200031FC3346154AFF2104A803F033F904A80B
:10293000FDF7FEFD124B0DF10F051A68002302EBA7
:102940004202019204A800951A46FF21FDF762FD9C
:10295000044630B931460B4802F098FF204644B097
:1029600070BD002304A905480B5502F08FFF28789D
:1029700010F1FF3018BF012044B070BDC8A9000895
:1029800050090020E4B5000810B5044682B0214685
:10299000234802F07BFF234802F078FF01A9224878
:1029A00003F02EF8214802F0F7FF019B23F0020309
:1029B000042B04D01E4802F0EFFF02B010BD3021FE
:1029C0001C4802F063FF1C491C4803F019F8502111
:1029D0001948FEF741FC184803F0B3F930281BD81A
:1029E000421C1549204602F0CDFA2046FEF7F8FBBE
:1029F000134802F0D1FF019B042B0CBF1148124871
:102A0000FFF788FFB0FA80F040090028D5D00F48C2
:102A100002F0C2FF02B010BD0D4802F0BDFFE7E7B3
:102A200008B6000830B6000864BE00081CAB0008F9
:102A300070B600088CB60008B40F002008A7000884
:102A4000B4B60008E8B60008F8B6000808B70008F1
:102A5000E4AF000810B51D4882B002F09DFF1C488D
:102A600002F014FF1B491C4802F0CAFF1B4802F089
:102A700093FF50211748FEF7EFFB1949154803F063
:102A80004EF9184900B3134803F049F90446B8B9A0
:102A9000154802F081FFFEF789FB144802F07CFF25
:102AA000134B00941A68214602EB820201922346DE
:102AB00022462046FDF7AEFC0E4802F06DFFCEE741
:102AC0000448FFF727FFCAE702B010BD60B700084F
:102AD00058AB0008B40F002008A700081CAB000882
:102AE00080B8000888B8000890B80008B0B800089E
:102AF00050090020CCB8000810B51E4C8EB01E48FE
:102B000002F04AFF216801A8FEF7B8F801A91B48A6
:102B100002F0BCFE1A48FFF7FDFE216801A8FEF78F
:102B2000F5F801A9174802F0B1FE1748FFF7F2FEC9
:102B3000164802F031FF1648FFF7ECFE154802F088
:102B40002BFF1548FFF7E6FE144802F025FF144856
:102B5000FFF7E0FE1349144802F098FE134B144AA5
:102B600014491B6812680968134802F08FFE0EB002
:102B700010BD00BF50090020DCB80008F8B80008FC
:102B800010B9000818B9000830B9000838B90008B1
:102B900044B900084CB9000860B9000868B90008D9
:102BA00088B9000810A8000890B90008CC00F81FE8
:102BB000D000F81FD400F81FB0B90008F0B590F8A5
:102BC000F63083B0002B49D0294802F05FFE01A9FE
:102BD000284802F015FF284802F0DEFE019A4FF463
:102BE0007A7303FB02F30193FEF7C6FA0746234804
:102BF000FFF790FE224802F0CFFE224E01992248B4
:102C0000A6FB0131890902F041FE3C46019BE41B11
:102C10009C421E4827D2FDF7A5FE0546FEF7ACFAFA
:102C2000A6FB00234FF47A729B0902FB13030446B0
:102C300043B1002DEAD02946144A154802F026FE79
:102C400003B0F0BD019910483944091BA6FB0131BE
:102C5000890902F01BFE002DD8D0ECE70D4802F0E8
:102C60009BFE03B0F0BD0C4802F096FE03B0F0BD31
:102C70000CBA000864BE00081CAB000830BA00089B
:102C800040BA0008D34D621064BA0008640D0020F9
:102C9000B0BA0008D4B900087CBA00080148FFF7B0
:102CA00039BE00BFCCBA0008F0B54FF482710646B9
:102CB00083B0C04802F0EAFD41F2336CBE4B4FF4E2
:102CC0007A7E07CB1B88A5273060B381AA2000231A
:102CD000552501247160B260A6F8F4C0C6F8F0E092
:102CE00086F8303086F8B03086F8F63086F8F7305F
:102CF000C6F8FC3086F8007186F8020186F80151AA
:102D000086F8F840AD4802F047FE3046FEF768FA14
:102D1000AB4802F041FEAB4802F03EFEAA4F21460E
:102D2000AA4802F0B3FDAA48FDF702FC3A68002366
:102D3000019200931A4619461846FDF76BFB0546AB
:102D4000002800F00F81A34802F026FEA248FFF7FA
:102D5000E1FD0446A14802F01FFEA148FFF7DAFD9D
:102D6000B0FA80F04009002C14BF0446441C41F224
:102D70008830FEF707FA21469A4802F087FD0125C0
:102D80009948FFF7C7FD002800F0E2809748FFF759
:102D9000C1FD05469648FFF7BDFDB0FA80F0400939
:102DA000002D14BF0346431C92481C44FFF7B2FD9C
:102DB000A4B2002808BF0134884802F0EDFD88481D
:102DC000FFF7A8FDA4B2002808BF013441F2883003
:102DD000A4B2FEF7D7F92146824802F057FD844895
:102DE000FFF798FD05468448FFF794FDB0FA80F39D
:102DF00082485B09002D14BF1D465D1CFFF78AFD4C
:102E0000002808BF0135754802F0C6FD7448FFF779
:102E100081FDADB2002814BF2846681C0444A4B24A
:102E200041F28830FEF7AEF921466E4802F02EFDE1
:102E30007348FFF76FFD0546684802F0ADFD68482E
:102E4000FFF768FDB0FA80F04009002D08BF01309F
:102E50000444A4B241F28830FEF794F92146614857
:102E600002F014FD6748FFF755FD05465B4802F088
:102E700093FD5B48FFF74EFDB0FA80F04009002D4E
:102E800008BF01300444A4B241F28830FEF77AF959
:102E90002146544802F0FAFC5B48FFF73BFD05462B
:102EA0005A48FFF737FDB0FA80F34C485B09002D14
:102EB00014BF1D465D1C02F06FFD4948FFF72AFD57
:102EC000002814BF2846681C0444A4B241F288308C
:102ED000FEF758F92146434802F0D8FC4C48FFF76A
:102EE00019FD002814BF2046601C84B221463D48CD
:102EF00002F0CCFC1820FEF74DFE332856D0454892
:102F000002F04AFD0134A4B2434802F045FD4820D6
:102F1000FEF724FB414802F03FFD4820FEF72CFB62
:102F2000A0F10F03DBB2142B01462BD93C4802F071
:102F3000ADFC3046FFF7E0FD3A4802F02DFD3A487F
:102F400002F02AFD374803B0BDE8F04002F024BD8E
:102F50004FF4FA60FEF716F9052D3FF417AF01356F
:102F6000EDB20DE70134314802F016FD042C7FF478
:102F7000D6AE2F4802F08AFC284606F1B00100F0D8
:102F8000A5FCE0E62B4802F081FC3046FFF7B4FDDB
:102F9000244802F001FD002CD1D1274802F0FCFCAE
:102FA000204803B0BDE8F04002F0F6BC234802F030
:102FB000F3FCA9E7D8BA00080CBB00081CBB00084A
:102FC0002CBB000850BB00085009002074BB00084F
:102FD00084BB0008DCBB0008F8BB000808BC000884
:102FE000CCBA000820BC000834BC000848BC00086B
:102FF0005CBC000868BC000874BC00088CBC0008FD
:10300000A4BC0008C0BC0008CCBC0008E0BC0008A0
:10301000F8BC000808BD000840BD00087CBD0008E1
:1030200094BD00085CAB000830BE00088CBB0008F3
:1030300098BB000800BE000840BE00082CBD000878
:1030400020F02003413B192B05D9303809288CBFCB
:103050000020012070470120704700BF30B50D46A9
:1030600085B0FDF765FA094B0DF10F041A680023CE
:1030700002EB42020192284600941A464FF4007176
:10308000FDF7C8F99DF80F0005B030BD50090020CC
:1030900070B56D4988B005466C48FFF7DFFF002822
:1030A0004FD104466A4802F0F1FB03AA6949664819
:1030B00002F0C6FD039968484900713902F0E6FB49
:1030C000D5F8FC30DB0771D45F496448FFF7C6FFD1
:1030D00000283FD105AA624904AB5B4802F0B0FD6D
:1030E000049A05998D3A5F4802F0D0FB5E48FDF7DF
:1030F0001FFA5E4B0DF10B011A68002302EB42022E
:103100008DE8060050484FF400711A46FDF782F929
:1031100000215748FFF7A2FF00B3564802F03CFCDD
:1031200000215548FFF79AFF00282BD14649534804
:10313000FFF794FF00282ED0514802F02DFC08B074
:1031400070BD504802F028FC3F494448FFF786FF15
:103150000028BFD04C4802F01FFCC7E73A4942485C
:10316000FFF77CFF98B906AA4849374802F068FD86
:103170000699474802F08AFB00213F48FFF76EFF9F
:103180000028D3D0434802F007FC08B070BD424885
:1031900002F002FCC4E707AA40492B4802F050FDA8
:1031A00007993F4802F072FB08B070BD039801F028
:1031B00091FA02460B4601F041F90022394B01F029
:1031C0003BF91FA3D3E9002301F0EAFA0022364BB2
:1031D00001F034F901F0F6FC86B2344802F0DCFB71
:1031E000334802F0D9FBA5B29CB1032D21D0082DA4
:1031F0001BD0142D15D01C2C0BD0AE420DD020208E
:1032000002F05CFB0134322CEDD12A4802F0C4FB01
:103210005AE7294802F03AFBEFE7284802F036FB6C
:10322000F0E7274802F032FBE7E7264802F02EFBE2
:10323000E3E7254802F02AFBDFE700BFAFF3008099
:10324000E17A14AE47E1DA3F80110020ACA4000817
:1032500050BE000858BE000868BE000828BF00081D
:1032600034BF000858BF0008A8A500085009002076
:10327000B4BF0008C4BF00083CC0000870C000080C
:10328000A0C000080CBF000898BF0008ECBF0008F1
:1032900010C000084CC0000820C000087CC0000816
:1032A00090C0000800405C40000049401CAB000892
:1032B0009CBE000800BF0008D4BE0008F4BE000891
:1032C000ECBE0008E4BE0008DCBE00082DE9F041B9
:1032D0000746E6B0FDF750FF364D0646A5FB07381A
:1032E000FF234FEA981804468DF80D3003E09DF84F
:1032F0000D30FF2B20D1A41BBC421DD20DF10E01BD
:103300000DF10D00FDF7AEFAFDF736FFA5FB00232A
:103310004FF47A729B0902FB13030446002BE6D19B
:10332000811BA5FB01312448A8EB911102F0AEFAF4
:103330009DF80D30FF2BDED0204802F02DFB9DF8CC
:103340000D00FF2827D01E4B07AC1A680023BDF8DC
:103350000E10019200941A46FDF760FB204605A965
:1033600000F036F99DF818209DF81710154802F066
:103370008DFABDF80E3000251946204604AAE55402
:1033800000F084F9049969B10F4802F07FFA012036
:1033900066B0BDE8F0810D4802F0FEFA002066B08C
:1033A000BDE8F0810A4802F0F7FA012066B0BDE8F6
:1033B000F08100BFD34D6210BCC000081CAB0008F8
:1033C0005009002008C1000824C10008C8C0000836
:1033D00030C100082DE9F04190F8F65086B02DB1CB
:1033E0003C4802F0D9FA06B0BDE8F081DFF8208150
:1033F0000646394802F0D0FA4146384802F000FB50
:10340000374802F0C9FA50214046FDF725FF3548FC
:1034100002F0C2FA05A9344802F0F2FA304802F08C
:10342000BBFA059F4FF47A7303FB07F72F4C01217A
:10343000CDF8008002950195224608464FF4BD73F1
:10344000059700F079F9074658B3294802F0A4FA25
:103450007D1EADB22544013C14F8011F254802F041
:1034600015FAAC42F8D1244C1D4802F095FA2068B8
:103470004000FDF789F8FF28054618D02368B6F804
:10348000F42003EB4303019300973146174BFDF7FC
:103490002DF904280FD0194802F07EFA06B0BDE8D5
:1034A000F081174802F078FA06B0BDE8F0811548BF
:1034B00002F072FA97E7144802F06EFA134802F02D
:1034C0006BFA0598FFF702FF21682846FDF7C6F85A
:1034D00089E700BF48C10008ACC1000808A7000880
:1034E0001CAB0008E0C1000884B0000804100020F4
:1034F00088C20008A0C2000850090020C8C2000805
:1035000028C20008A8C20008F0C2000820C30008B2
:10351000640F0020818003885B06FCD5704700BFE4
:103520000B785BB101F1FF029BB2838003885B06DD
:10353000FCD511F8013F0BB19142F5D1704700BFA6
:1035400003889B06FCD58088C0B270472DE9F843FC
:10355000054610460C461E4601F05AFC01F0CCF818
:1035600080462046894601F0A5F80022174B01F05D
:1035700017F902460B464046494601F03BFA01F076
:1035800041FB074601F09CFC044601F041FC01466A
:10359000384601F08BFB01F0AFF800220B4B01F035
:1035A000FFF801F00FFB40EA041080B2288136B921
:1035B00042F20C03AB8100232B80BDE8F88342F27A
:1035C0002C03AB8100232B80BDE8F8830000304042
:1035D00003789B090B700378C3F301134B700378D6
:1035E00003F00F038B7043785B09CB70437803F0D3
:1035F0001F030B718278C37843EA0223CB807047A4
:1036000070B4027814090E2C02F00F032FD00F2C87
:1036100026D00D2C12D0A4B201250E2B15D00F2BC5
:103620001ED00D2B2CD09BB20E7842193444E818D2
:1036300080B20C704A604B7070BC704744780E2B9F
:103640004FF0020504F10D04E9D14319425D5B78A6
:10365000023543EA022303F20D139BB2ADB2E3E756
:10366000FF2A4FF6FF7070BC08BF012070474678F4
:103670008478032544EA062404F20D14A4B2CCE7AE
:10368000435D01350D33ADB2CEE700BF2DE9F04FFC
:10369000037883B09C09012C03D0002003B0BDE85F
:1036A000F08F03F00F03082B03D9022003B0BDE80D
:1036B000F08F1C1D8C42154688460646477826D258
:1036C000035D2044FF2B22D000230DF1080A994608
:1036D0004FF6FF7B0AF8083D01E0A04517D9514697
:1036E000FFF78EFF0444A4B209F1010958451FFAFF
:1036F00089F906EB04001CD0335DFF2B04D0B9F12F
:103700000A0FEAD10420C9E7B9F10A0FFAD035B19E
:103710007B09022B05D000232B600520BEE7052086
:10372000BCE707F01F000528F5D1013433192B60E1
:10373000B4E70320B2E700BF2DE9F04F604D83B03E
:103740002C784FF0510E82F800E000F01F070026A1
:10375000DDF830E0D4701471577096709EF800C098
:103760000134BCF12F0F2C70BDF8388003D000203D
:1037700003B0BDE8F08F00295FD10F460525514CFD
:103780001646714620468022994602F0E2FA2078D9
:1037900000286AD000239E464B49013402E014F809
:1037A000010B68B12F28FAD1092BE0D841F823404A
:1037B00004F801EC14F8010B5A1C93B20028F1D163
:1037C000002B52D04D45D2D2044603F1FF3A1FFAE6
:1037D0008AF3DFF8F4B00193A3B2002B69D000277D
:1037E000BA465BF8240002F0ACFA82B20C2A4FEA27
:1037F000840127D84AEA00006B1C70559DB2A2B123
:103800005BF80130681C197880B281457155AED9DA
:103810001544ADB205E013F8011F315490B2814553
:10382000A5D9854200F10102F5D1019BA3421CD02C
:10383000A94504F10104CFD899E701280FD03746F4
:1038400005259CE705F1010E4AF00D0373550D386F
:103850001FFA8EFE023506F80E00ADB2D0E76121E8
:10386000967151710725062789E70D9BFBB1B8F1C9
:10387000000F1CD0FF2373550D9B1A786B1C02356B
:10388000ADB29BB2A945F2547FF671AF0D9B08F122
:10389000FF3292B21A4406E013F8010F70558DB250
:1038A000A9457FF664AF9A4205F10101F4D128469B
:1038B0005EE7C7F10B07FFB23B014FFA83FA90E7CF
:1038C0002814002080130020001400202DE9F0436C
:1038D000914C0E46238AADF5017D190405466AD444
:1038E0008E4802F059F8DFF888828D4802F054F8CB
:1038F0000124002721468B4801F0C8FF8A48FCF7C5
:1039000017FED8F800200023019200971A461946A6
:103910001846FCF77FFD013450B9042CEAD18348E6
:1039200002F03AF8012528460DF5017DBDE8F08347
:103930007F4802F031F87F4802F02EF801270DF1A0
:103940000B043946774801F0A1FF7B48FCF7F0FDF6
:10395000D8F80020002302EB8202019200941A465C
:103960004FF4FA7103A8FCF755FD237883B9012DB4
:103970006AD0724903A802F0FFF9002875D0704898
:1039800002F00AF8012528460DF5017DBDE8F08317
:1039900040F6B830FDF7F6FB23780137002BE6D070
:1039A000042FCED10025674801F0F6FF28460DF51B
:1039B000017DBDE8F083644801F0EEFFFCF706FDF1
:1039C000FDF7F4FB614801F0E7FFFDF7D5FB238A23
:1039D00007461A0440F1928041F2873801E04145E0
:1039E00008D86420FDF7CEFBFDF7C6FB238AC11B78
:1039F0001B04F4D441F6583399421CD8DFF8708187
:103A0000534801F043FFD8F80020002302EB820264
:103A1000019200931A4619461846FCF7FBFC8146B2
:103A2000FDF7AAFB0446B9F1000F5AD0E11B494843
:103A300001F02CFF59E70025474801F0ADFF28466B
:103A40000DF5017DBDE8F0835EB133784BB143499C
:103A500003A802F091F9002852D0414801F09CFFE0
:103A600090E7404801F098FF8CE73F4E3F4803AD98
:103A700001F092FF0FCE0FC596E8030085E8030022
:103A800003A8FCF755FDD8F80020002302EB420202
:103A90000192009403A81A464FF4FA71FCF7BAFC9D
:103AA0002578334E0DBB334801F076FF3248FCF7E2
:103AB0003FFD33682A46019300942B462946284649
:103AC000FCF7A8FC2378ABB933682A4603EB8303E1
:103AD000019329462B4628460094FCF79BFC0125C0
:103AE00021E7264801F058FFA0E7254801F054FFE0
:103AF000002518E7234801F04FFF14E700217DE778
:103B0000214801F049FF3346204A4FF4FA7103A8D7
:103B100002F040F8B4E700BF00000240D4C800083B
:103B20000CC9000874BB000884BB000828CB00083F
:103B300048CB000854CB000844C9000820CA00083C
:103B4000A0CA000878CB0008A4C7000800C8000875
:103B500060C80008A8C800081CC8000894C900086C
:103B60000CCA000854C9000888CA000838CA0008EE
:103B700050090020D0CA0008FCCA000880C800080C
:103B8000B0CA00080CCB0008A8C90008F0C900089A
:103B90002DE9704F8B4690B04B49924602F030FFB2
:103BA000B0B14A4902F0BBF890B9044606AE4649A6
:103BB000002002F025FF0134E4B2054646F8040F68
:103BC0000028F4D1062C03D90C9B1B78412B04D080
:103BD0000023184610B0BDE8708F079C204602F005
:103BE000B0F80328F4D9099E304602F0AAF8032859
:103BF000EED9227804A88DF8102062788DF8125042
:103C00008DF8112001F07CF9CDE90001A01C01F034
:103C100077F9327880468DF81020727804A88DF8F4
:103C20001120B27889468DF813508DF8122001F0DA
:103C300067F9CDE90201F01C01F062F904460D4676
:103C4000BBF1000F12D0089B40461B7849464E2B13
:103C50004FF000021E4B21D000F0CCFEDDE9002326
:103C600000F0ECFB01F100418BE80300BAF1000F1A
:103C700027D00A9B20461B782946452B4FF000028F
:103C8000134B14D000F0B6FEDDE9022300F0D6FBA2
:103C900001F100418AE8030001239AE700F0AAFE3F
:103CA000DDE9002300F0CAFBCBE90001DEE700F00C
:103CB000A1FEDDE9022300F0C1FB0123CAE90001F6
:103CC00087E7012385E700BFBCCB0008C0CB000815
:103CD00000004E40000000002DE9F04FAAA7D7E9F0
:103CE00000670FF2AC29D9E900899BB09DF890409C
:103CF000CDE9166705468A460D929B46CDE91489A3
:103D00009DF89460002C64D0A74801F045FEA748B8
:103D1000FEF700FE5021A648FDF7C0FC81460028B2
:103D200068D1A44801F038FE4820FDF725FCA24EDA
:103D3000804611AB0DF1420210A91820FDF766FF75
:103D40003068FCF753FF9D4FBDF94410BDF9422088
:103D5000BDF940E0CDF800800490CDF828905B4696
:103D6000DDE9148903910292CDF804E0DDE9161231
:103D70003846CDE90812CDE90689914AC82101F0FB
:103D800009FF384601F0DDFF394602468D4801F053
:103D90007DFD002C59D031683846FCF7FBFF002828
:103DA00000F08581884801F0F7FD00231393139AF2
:103DB000336886489A4280F09081FCF7D3FD139BCC
:103DC000013313930028F2D08049814801F05EFD51
:103DD000D5E0804801F0E0FD2B7823B19AF800305F
:103DE000002B40F06B817C4801F0D6FD00201BB019
:103DF000BDE8F08F16AA14A96D48FFF7C9FE8146E9
:103E0000002800F06F814FF00109002E8CD062A7CE
:103E1000D7E90067714801F0BFFDDDE91601DDE972
:103E20001423CDE90001CDF808906D4801F02EFD76
:103E30005BA3D3E90023CDE900676A48CDE91423E9
:103E4000CDE9166701F022FD6EE7384601F079FFF3
:103E500080B24FF4BD73644A029021460197CDF8B9
:103E600000A00220FFF768FCADF84600BDF8461040
:103E70005E4889B201F00AFDADF84A40BDF84A201B
:103E8000BDF8463092B29BB29A421DD2564C27469C
:103E9000BDF84A3056489BB2E35C0F2BBDF84A3060
:103EA00088BF54489BB2F95C01F0F0FCBDF84A3081
:103EB00001339BB2ADF84A30BDF84A20BDF8463018
:103EC00092B29BB29A42E3D34B4801F065FD306851
:103ED000FCF75AFBFF28384C074600F00A810146E0
:103EE000464801F0D3FCBDF84600236880B203EBDE
:103EF000430329460D9A8DE809003B4B3846FCF7F1
:103F0000F5FB042814BF3E483E4801F045FDFDF78F
:103F100033F90023FF2280463B481393ADF8483025
:103F20008DF83F2001F038FD9DF83F108F4200F0E2
:103F3000E98041F2873401E0A3420DD812A90DF1C6
:103F40003F00FCF78FFCFDF717F99DF83F10054681
:103F50008F42C8EB0003EFD1BDF848202B4801F099
:103F600095FC9DF83F30BB4254D0294801F014FD28
:103F700031683846FCF772FB002800F0A68001206B
:103F80001BB0BDE8F08F00BFE5D76A6A34503E40F1
:103F90005D34643C4AF84D40D1AE42CA4F3E3E408B
:103FA0009411178046F74D40C8CB000830BA00087E
:103FB000280000206CCC000850090020B017002019
:103FC00038CE0008D4CE0008F4CE00082C1400200F
:103FD0009CD00008DCCB0008F0CB00084CCD0008DA
:103FE000A8CD0008F0CD0008341600202CCF000822
:103FF00048CF00084CCF00081CAB000870CF000869
:1040000084CF0008A4CF0008D0D00008B0CF0008AB
:10401000D8CF0008BDF848100029A6D0B1F5BD7F63
:104020006CD23368384C03EB4302002301920094B6
:104030001A463846FCF7F2FC204618A9FFF7C8FAE2
:10404000C8EB05039DF864209DF863102F4801F02C
:104050001DFC2F4801F0A0FC0023ADF84A30BDF84C
:104060004A30BDF848209BB29A4288BF25461AD9EB
:10407000BDF84A3027489BB2E35C0F2BBDF84A30AD
:1040800088BF25489BB2E95C01F000FCBDF84A30CE
:10409000BDF8482001339BB2ADF84A30BDF84A3034
:1040A0009BB29A42E4D81D4801F076FC60E71C48B8
:1040B00001F072FC01201BB0BDE8F08F53460D9A51
:1040C0002946184801F0E2FB24E63946164801F07B
:1040D000DDFB01201BB0BDE8F08F144801F05CFC53
:1040E000012084E6124801F057FC002E3FF41CAE7C
:1040F0008DE6104801F050FC002078E60E4801F0F3
:10410000C5FB35E7454627E734160020F0CF000809
:1041100028D0000848CF00084CCF00081CAB00088E
:1041200010CF000850CC00086CD00008BCD00008AC
:10413000C0CC000850CF000840D0000870B5DCB0FB
:10414000FDF7B0F800231A4603211820FDF734FDCF
:104150006E4801F021FC4820FDF700FA6C4801F0A0
:104160001BFC6C4801F018FC1BA8FDF76DF85B9B6D
:10417000694A23F07F43934205D0684801F00CFC64
:104180001BA8FEF791FD43F69822579BA3F57A737F
:10419000934205D9624801F0FFFB4FF47A735793BD
:1041A0009DF89C302F2B13D05E4801F0F5FB47A9FA
:1041B0009DF86201FFF78AFB002840F081805A4891
:1041C00001F0EAFB5A9BDB073FD4FDF78DFFFCE7CC
:1041D000564B1B8A5A06E7D59DF863310F2BE3D166
:1041E00047A99DF86201FFF771FB0446002878D0CB
:1041F0004F4D05E04F4801F049FB3220FCF7C2FF6C
:1042000028684B4CFCF740FE0028F3D04A4801F0E8
:10421000C3FB216802A8FCF731FD0021BDF85C0159
:10422000FCF79CFE41F27073579A9A4211D94348A9
:1042300001F02CFB2168012001EB4101FCF754FE49
:10424000A0B93F4801F0A8FB10E03E48FDF74EFE44
:10425000BBE73D4801F0A0FB2168002001EB4101D4
:10426000FCF742FE10B1394801F096FB41F2707440
:10427000002611E09DF864119DF86231BDF86021BF
:104280000191009327A902AB1BA8FFF725FD002091
:10429000FCF782FFFCF7CEFE0120FCF77DFF579B69
:1042A000A342E7D9FCF782FF2A68002302EB8202CF
:1042B000019200961A4619461846FCF7ABF8D9E762
:1042C000234801F069FB1A4B0020196801EB4101FA
:1042D000FCF70AFE00287FF475AF1E4801F05CFB76
:1042E00070E71D4801F058FB1BA88DF86341FCF7EF
:1042F00077FFBFF34F8F1949194BCA6802F4E06288
:104300001343CB60BFF34F8FFEE700BFFCD0000824
:1043100018D100083CD10008A555AA005CD10008BE
:10432000D0D10008D0D4000824D2000800080240F0
:10433000500900205CD300081CAB000890D3000893
:10434000ACD30008ECC6000804D4000880D40008F0
:1043500074D2000898D200081CD3000800ED00E0D9
:104360000400FA050549064A064B9A42BEBF51F8B9
:10437000040B42F8040BF8E70348004748D800084C
:104380000000002020010020810100082649274A62
:10439000002301E041F8043B9142FBD3FFF7CEFE3E
:1043A000FEE7FEE7FEE7FEE7FEE7FEE7FEE7FEE7E5
:1043B000FEE7FEE7FEE7FEE7FEE7FEE7FEE7FEE7D5
:1043C000FEE7FEE7FEE7FEE7FEE7FEE7FEE7FEE7C5
:1043D000FEE7FEE7FEE7FEE7FEE7FEE7FEE7FEE7B5
:1043E000FEE7FEE7FEE7FEE7FEE7FEE7FEE7FEE7A5
:1043F000FEE7FEE7FEE7FEE7FEE7FEE7FEE7FEE795
:10440000FEE7FEE7FEE7FEE7FEE7FEE7FEE7FEE784
:10441000FEE7FEE7FEE7FEE7FEE7FEE7FEE7FEE774
:10442000FEE7FEE7FEE7FEE72001002088180020F7
:1044300081F0004102E000BF83F0004330B54FEA55
:1044400041044FEA430594EA050F08BF90EA020FC2
:104450001FBF54EA000C55EA020C7FEA645C7FEA55
:10446000655C00F0E2804FEA5454D4EB5555B8BF78
:104470006D420CDD2C4480EA020281EA030382EAE9
:10448000000083EA010180EA020281EA0303362D7B
:1044900088BF30BD11F0004F4FEA01314FF4801C4E
:1044A0004CEA113102D0404261EB410113F0004F60
:1044B0004FEA03334CEA133302D0524263EB430317
:1044C00094EA050F00F0A780A4F10104D5F1200EB5
:1044D0000DDB02FA0EFC22FA05F2801841F1000110
:1044E00003FA0EF2801843FA05F359410EE0A5F1E4
:1044F00020050EF1200E012A03FA0EFC28BF4CF015
:10450000020C43FA05F3C01851EBE37101F00045CA
:1045100007D54FF0000EDCF1000C7EEB00006EEBD7
:104520000101B1F5801F1BD3B1F5001F0CD3490861
:104530005FEA30004FEA3C0C04F101044FEA4452B8
:1045400012F5800F80F09A80BCF1004F08BF5FEA3F
:10455000500C50F1000041EB045141EA050130BD1F
:104560005FEA4C0C404141EB010111F4801FA4F1C2
:104570000104E9D191F0000F04BF01460020B1FA17
:1045800081F308BF2033A3F10B03B3F120020CDA4F
:104590000C3208DD02F1140CC2F10C0201FA0CF02D
:1045A00021FA02F10CE002F11402D8BFC2F1200C92
:1045B00001FA02F120FA0CFCDCBF41EA0C01904048
:1045C000E41AA2BF01EB0451294330BD6FEA040491
:1045D0001F3C1CDA0C340EDC04F11404C4F120027C
:1045E00020FA04F001FA02F340EA030021FA04F38E
:1045F00045EA030130BDC4F10C04C4F1200220FAE5
:1046000002F001FA04F340EA0300294630BD21FA22
:1046100004F0294630BD94F0000F83F4801306BFE8
:1046200081F480110134013D4EE77FEA645C18BFDC
:104630007FEA655C29D094EA050F08BF90EA020F73
:1046400005D054EA000C04BF1946104630BD91EA6B
:10465000030F1EBF0021002030BD5FEA545C05D16E
:104660004000494128BF41F0004130BD14F58004AD
:104670003CBF01F5801130BD01F0004545F0FE4121
:1046800041F470014FF0000030BD7FEA645C1ABF56
:10469000194610467FEA655C1CBF0B46024650EA8D
:1046A000013406BF52EA033591EA030F41F40021B9
:1046B00030BD00BF90F0000F04BF0021704730B53F
:1046C0004FF4806404F132044FF000054FF0000114
:1046D00050E700BF90F0000F04BF0021704730B5D5
:1046E0004FF4806404F1320410F0004548BF4042AA
:1046F0004FF000013EE700BF42004FEAE2014FEAFF
:1047000031014FEA02701FBF12F07F4393F07F4FD9
:1047100081F06051704792F0000F14BF93F07F4F0B
:10472000704730B54FF4607401F0004521F000414E
:1047300020E700BF50EA010208BF704730B54FF0D4
:1047400000050AE050EA010208BF704730B511F0D9
:10475000004502D5404261EB41014FF4806404F111
:1047600032045FEA915C3FF4DCAE4FF003025FEA93
:10477000DC0C18BF03325FEADC0C18BF033202EB1B
:10478000DC02C2F1200300FA03FC20FA02F001FA75
:1047900003FE40EA0E0021FA02F11444C1E600BF14
:1047A00070B54FF0FF0C4CF4E06C1CEA11541DBFC7
:1047B0001CEA135594EA0C0F95EA0C0F00F0DEF892
:1047C0002C4481EA030621EA4C5123EA4C5350EA77
:1047D000013518BF52EA033541F4801143F48013C8
:1047E00038D0A0FB02CE4FF00005E1FB02E506F059
:1047F0000042E0FB03E54FF00006E1FB03569CF0AE
:10480000000F18BF4EF0010EA4F1FF04B6F5007FB3
:1048100064F5407404D25FEA4E0E6D4146EB060625
:1048200042EAC62141EA55514FEAC52040EA5E50AE
:104830004FEACE2EB4F1FD0C88BFBCF5E06F1ED858
:10484000BEF1004F08BF5FEA500E50F1000041EB8F
:10485000045170BD06F0004646EA010140EA02003C
:1048600081EA0301B4EB5C04C2BFD4EB0C0541EA5E
:10487000045170BD41F480114FF0000E013C00F373
:10488000AB8014F1360FDEBF002001F0004170BD97
:10489000C4F10004203C35DA0C341BDC04F11404B0
:1048A000C4F1200500FA05F320FA04F001FA05F23C
:1048B00040EA020001F0004221F0004110EBD37009
:1048C00021FA04F642EB06015EEA430E08BF20EA35
:1048D000D37070BDC4F10C04C4F1200500FA04F3D8
:1048E00020FA05F001FA04F240EA020001F000416A
:1048F00010EBD37041F100015EEA430E08BF20EADD
:10490000D37070BDC4F1200500FA05F24EEA020E24
:1049100020FA04F301FA05F243EA020321FA04F053
:1049200001F0004121FA04F220EA020000EBD3700A
:104930005EEA430E08BF20EAD37070BD94F0000F0A
:104940000FD101F00046400041EB010111F4801F3E
:1049500008BF013CF7D041EA060195F0000F18BFEF
:10496000704703F00046520043EB030313F4801F2B
:1049700008BF013DF7D043EA0603704794EA0C0FE5
:104980000CEA135518BF95EA0C0F0CD050EA4106FB
:1049900018BF52EA4306D1D181EA030101F0004178
:1049A0004FF0000070BD50EA410606BF10461946A0
:1049B00052EA430619D094EA0C0F02D150EA0136AC
:1049C00013D195EA0C0F05D152EA03361CBF1046ED
:1049D00019460AD181EA030101F0004141F0FE418C
:1049E00041F470014FF0000070BD41F0FE4141F410
:1049F000780170BD70B54FF0FF0C4CF4E06C1CEA10
:104A000011541DBF1CEA135594EA0C0F95EA0C0FC4
:104A100000F0A7F8A4EB050481EA030E52EA03357F
:104A20004FEA013100F088804FEA03334FF08055A0
:104A300045EA131343EA12634FEA022245EA1115CD
:104A400045EA10654FEA00260EF000419D4208BF7E
:104A5000964244F1FD0404F5407402D25B084FEA2B
:104A60003202B61A65EB03055B084FEA32024FF4D7
:104A700080104FF4002CB6EB020E75EB030E22BF34
:104A8000B61A754640EA0C005B084FEA3202B6EBF4
:104A9000020E75EB030E22BFB61A754640EA5C00A3
:104AA0005B084FEA3202B6EB020E75EB030E22BF33
:104AB000B61A754640EA9C005B084FEA3202B6EB34
:104AC000020E75EB030E22BFB61A754640EADC00F3
:104AD00055EA060E18D04FEA051545EA16754FEA55
:104AE00006164FEAC30343EA52734FEAC2025FEA73
:104AF0001C1CC0D111F4801F0BD141EA00014FF002
:104B000000004FF0004CB6E711F4801F04BF0143D2
:104B10000020B4F1FD0C88BFBCF5E06F3FF6AFAEEE
:104B2000B5EB030C04BFB6EB020C5FEA500C50F17E
:104B3000000041EB045170BD0EF0004E4EEA113101
:104B400014EB5C04C2BFD4EB0C0541EA045170BD08
:104B500041F480114FF0000E013C90E645EA060E4C
:104B60008DE60CEA135594EA0C0F08BF95EA0C0F7A
:104B70003FF43BAF94EA0C0F0AD150EA01347FF4C2
:104B800034AF95EA0C0F7FF425AF104619462CE799
:104B900095EA0C0F06D152EA03353FF4FDAE1046FC
:104BA000194622E750EA410618BF52EA43067FF44D
:104BB000C5AE50EA41047FF40DAF52EA43057FF4DD
:104BC000EBAE12E74A0011D212F5001211D20DD548
:104BD0006FF47873B3EB62520ED44FEAC12343F003
:104BE000004343EA505323FA02F070474FF00000AD
:104BF000704750EA013002D14FF0FF3070474FF05C
:104C0000000070474FEA4102B2F1E04324BFB3F520
:104C1000001CDCF1FE5C0DD901F0004C4FEAC00233
:104C20004CEA5070B2F1004F40EB830008BF20F017
:104C30000100704711F0804F21D113F13872BCBFD1
:104C400001F00040704741F480114FEA5252C2F126
:104C50001802C2F1200C10FA0CF320FA02F018BF6F
:104C600040F001004FEAC1234FEAD32303FA0CFCC2
:104C700040EA0C0023FA02F34FEA4303CCE77FEA51
:104C8000625307D150EA01331EBF4FF0FE4040F49B
:104C90004000704701F0004040F0FE4040F400004A
:104CA000704700BF80F0004002E000BF81F000418B
:104CB00042001FBF5FEA410392EA030F7FEA226CC2
:104CC0007FEA236C6AD04FEA1262D2EB1363C1BF52
:104CD000D218414048404140B8BF5B42192B88BFC1
:104CE000704710F0004F40F4000020F07F4018BFE4
:104CF000404211F0004F41F4000121F07F4118BF04
:104D0000494292EA030F3FD0A2F1010241FA03FCAB
:104D100010EB0C00C3F1200301FA03F100F0004393
:104D200002D5494260EB4000B0F5000F13D3B0F15B
:104D3000807F06D340084FEA310102F10102FE2ACA
:104D400051D2B1F1004F40EBC25008BF20F001003A
:104D500040EA03007047490040EB000010F4000FE8
:104D6000A2F10102EDD1B0FA80FCACF1080CB2EB7B
:104D70000C0200FA0CF0AABF00EBC25052421843DA
:104D8000BCBFD0401843704792F0000F81F400017F
:104D900006BF80F400000132013BB5E74FEA410352
:104DA0007FEA226C18BF7FEA236C21D092EA030FBE
:104DB00004D092F0000F08BF0846704790EA010F38
:104DC0001CBF0020704712F07F4F04D1400028BF65
:104DD00040F00040704712F100723CBF00F5000047
:104DE000704700F0004343F0FE4040F4000070477D
:104DF0007FEA226216BF08467FEA23630146420229
:104E000006BF5FEA412390EA010F40F4800070473B
:104E10004FF0000304E000BF10F0004348BF4042E1
:104E20005FEA000C08BF704743F0964301464FF01D
:104E300000001CE050EA010208BF70474FF0000379
:104E40000AE000BF50EA010208BF704711F00043BA
:104E500002D5404261EB41015FEA010C02BF84468A
:104E60000146002043F0B64308BFA3F18053A3F5E9
:104E70000003BCFA8CF2083AA3EBC25310DB01FA30
:104E800002FC634400FA02FCC2F12002BCF1004FB4
:104E900020FA02F243EB020008BF20F00100704745
:104EA00002F1200201FA02FCC2F1200250EA4C0099
:104EB00021FA02F243EB020008BF20EADC707047DF
:104EC00042000ED2B2F1FE4F0BD34FF09E03B3EB74
:104ED000126209D44FEA002343F0004323FA02F0A0
:104EE00070474FF00000704712F1610F01D142028C
:104EF00002D14FF0FF3070474FF00000704700BF05
:104F0000002101F075BD0A22002101F05DBE000004
:104F100008B5074B044613B10021AFF30080054BE1
:104F20001868836A03B19847204605F029FA00BF44
:104F30000000000000D500080E4B70B51E460E4C58
:104F40000025E41AA410A54204D056F8253098474D
:104F50000135F8E705F016FA084B094C1E46E41A2D
:104F6000A4100025A54204D056F8253098470135F5
:104F7000F8E770BD1801002018010020180100207A
:104F80001C01002010B5431E0A44914204D011F8C0
:104F9000014B03F8014FF8E710BD0346024493426A
:104FA00002D003F8011BFAE770472DE9F04788B0FB
:104FB000149F002B1E461299B8BF03F1004327F03F
:104FC0002007B6BF1E4600232D23462F1446109DF2
:104FD000DDF84CA00B7003D0452F03D1013501E063
:104FE000032300E0022307AA049206AA03928DE895
:104FF00028042246334601F063FF472F804602D142
:10500000119BDB0728D5462F08EB050911D198F82D
:105010000030302B0AD1002200232046314605F013
:1050200011F918B9C5F10105CAF80050DAF80030D5
:105030009944002200232046314605F003F908B9BF
:10504000302202E0CDF81C9006E0079B994503D979
:10505000591C07911A70F8E74046079B159AC8EB50
:105060000303136008B0BDE8F087034673B5002959
:10507000B8BF494203F8022BB4BF2D222B220929C5
:1050800042701ADD0DF1070216460A2591FBF5F470
:1050900005FB1411092C01F1300102F8011D214614
:1050A000F4DC3031541E02F8011CB4421A460AD214
:1050B00014F8012B03F8012BF7E71A46302421449A
:1050C00002F8024B5970101A02B070BD2DE9F04F72
:1050D00091B00C46DDF8688016461F46054603F081
:1050E0004DF903681846099300F02BFE00230E9338
:1050F000D8F800300A90073323F0070303F10802C1
:1051000094F81890D4F800B0C8F80020D3E9002330
:10511000C4E91223D4F84CA0D4F848802AF0004304
:105120000B934FF0FF32A74B40460B9905F0BCF8AC
:10513000A0B94FF0FF32A34B40460B9905F096F80B
:1051400060B9002200234046514605F085F810B1B1
:105150002D2384F843309C4B9C4A0AE04246534638
:105160004046514605F0A0F8002800F09281984B87
:10517000984AB9F1470F8CBF9046984603232361A4
:105180002BF0040323604FF0000A3DE0B9F1670FF4
:1051900000F08A81B9F1470F00F086812360019306
:1051A000636800210DF1330205900292009342469C
:1051B00053460691CDF81090CDF80CE02846FFF745
:1051C000F4FE09F0DF03472B804600F08481B9F13B
:1051D000650F0D9900F28D8101394A4604F15000A6
:1051E0000D91FFF742FF0E9A82468318012A236130
:1051F00000F37C812268D10700F178819DF833307B
:1052000013B12D2384F84330009733460FAA21466B
:10521000284600F09FF9013002D14FF0FF3096E1AF
:1052200023685A0501D4236965E0B9F1650F40F29E
:10523000D580D4E912010022002305F003F878B3E9
:105240000123654A31462846B8470130E5D00E9B18
:105250000D9A9A420BDB2368D80708D423689B0772
:1052600040F111814FF0000804F1190906E10A9B91
:10527000099A31462846B8470130CED04FF0000891
:1052800004F11A090E9B013B9845E7DA01234A46CF
:1052900031462846B8470130BFD008F10108F1E790
:1052A0000D9B002B29DC01234B4A31462846B84789
:1052B0000130B2D00D9B23B90E9B13B92368D907D7
:1052C000CCD50A9B099A31462846B8470130A4D06C
:1052D0004FF0000904F11A0A0D9B5B42994509DA67
:1052E0000123524631462846B847013095D009F18E
:1052F0000109F1E70E9B4246A7E00E9AA36D9A4280
:10530000A8BF1A46002A914606DC4FF0000A29EA97
:10531000E97904F11A0B11E013463146424628465A
:10532000B8470130F1D178E701235A463146284683
:10533000B84701303FF471AF0AF1010AA36DC9EB20
:1053400003029245F0DB08EB03090D9A0E9B9A428B
:105350000FDB2368DA070CD40E9B0D9A9844C9EB37
:1053600008089B1A9845A8BF9846B8F1000F08DCBA
:105370000FE00A9B099A31462846B8470130EBD125
:105380004BE743464A4631462846B84701303FF48A
:1053900044AF4FF0000928EAE87804F11A0A09E05E
:1053A0000123524631462846B84701303FF435AF15
:1053B00009F101090D9A0E9B9B1AC8EB030399454D
:1053C000EEDB4BE7FFFFEF7F04D5000808D50008B0
:1053D0000CD5000810D5000836D800080E9A012A0E
:1053E00001DCDB0738D50123424631462846B84761
:1053F00001303FF412AF0A9B099A31462846B8475C
:1054000001303FF40AAFD4E912010022002304F076
:1054100019FF20B14FF0000804F11A090EE00E9BAD
:1054200008F10102013B19E001234A4631462846B2
:10543000B84701303FF4F1AE08F101080E9B013B83
:105440009845F1DB534604F1500231462846B847EF
:1054500001307FF403AFE0E642460123314628469F
:10546000B8470130EED1D8E601234A4631462846F6
:10547000B84701303FF4D1AE08F10108E3680F9A54
:105480009B1A9845F0DBE0680F9B9842B8BF18461E
:105490005DE062680EA8531C0DF1340E4BF480637E
:1054A0007FF474AE062201E012B90122626075E653
:1054B000002106910DF133018DE80C002360059069
:1054C0004246CDF81090CDF80CE0029153462846A4
:1054D000FFF76BFD80460D9BD81C02DB6268934290
:1054E0001DDDA9F102095FFA89F970E60133236134
:1054F00084E6B9F1660F14D10029636807DD2161E4
:1055000013B92268D2071DD501330B4419E013B932
:105510002268D00701D5023313E0012311E04FF0D8
:1055200067090D9B0E9A934205DB22682361D10720
:1055300008D5013305E0002BD4BFC3F102030123DA
:10554000134423610D9B4FF0000AA36556E611B08A
:10555000BDE8F08F2DE9F04791461F460A698B6838
:1055600006469342B8BF1346C9F8003091F843206D
:105570000C46DDF8208012B10133C9F800302368F1
:10558000990642BFD9F800300233C9F800302568C7
:1055900015F0060510D104F1190A07E0012352465F
:1055A00039463046C04701301AD00135E368D9F892
:1055B00000209B1A9D42F1DB94F8433022680033AF
:1055C00018BF012392060FD5E118302081F843005F
:1055D0005A1C94F845102244023382F8431003E029
:1055E0004FF0FF30BDE8F08704F143023946304602
:1055F000C0470130F4D02268D9F80050E36802F0C7
:105600000602042A08BF5D1B2269A3680CBF25EAB5
:10561000E57500259342C4BF9B1AED184FF00009B1
:105620001A344D4509D00123224639463046C04739
:105630000130D5D009F10109F3E70020BDE8F0877A
:105640002DE9F04317460A7E85B06E2A9846064635
:105650000C460C9B01F1430E00F0AE8011D8632A7A
:1056600022D009D8002A00F0BB80582A40F0CA8016
:1056700081F84520834955E0642A1ED0692A1CD050
:10568000C0E0732A00F0B08009D86F2A2ED0702AAB
:1056900040F0B8800A6842F020020A603EE0752AB5
:1056A00024D0782A3AD0ADE01A6801F14205111DE4
:1056B0001960136884F84230A8E021681A6811F074
:1056C000800F02D0111D196008E011F0400F02F1A7
:1056D0000401196002D0B2F9003000E01368002B19
:1056E0003CDA2D225B4284F8432037E021681A68B7
:1056F00011F0800F02D0111D196007E011F0400F6A
:1057000002F10401196001D0138800E01368227EC1
:105710005C496F2A14BF0A2208221BE078225A49EA
:1057200084F845202268186812F0800F00F1040503
:105730001D6003D1550601D5038800E00368D0073A
:1057400044BF42F0200222601BB9226822F02002EE
:1057500022601022002084F8430001E049490A2217
:105760006568002DA56008DB206820F0040020603B
:105770002BB9002D7DD175460CE0002B79D07546F4
:10578000B3FBF2F002FB1033CB5C05F8013D03469E
:105790000028F5D1082A0BD12368DA0708D5236938
:1057A00062689A42DEBF302305F8013C05F1FF35FF
:1057B000C5EB0E0323612EE008681A6810F0800F15
:1057C000496903D0101D1860136808E010F0400FFD
:1057D00002F104001860136801D0198000E019601C
:1057E00000232361754616E01A68111D19601568BB
:1057F00000216268284602F03FFE08B1401B60604D
:10580000636804E004F1420584F842200123236127
:10581000002384F84330CDF800803B4603AA21469C
:105820003046FFF797FE013002D14FF0FF3026E0FF
:1058300023692A4639463046C0470130F5D02368EF
:105840009B0710D5002504F1190907E001234A46FA
:1058500039463046C0470130E7D00135E368039A46
:105860009B1A9D42F2DBE068039B9842B8BF184642
:1058700005E00B7804F1420584F842308AE705B070
:10588000BDE8F08314D5000825D500080FB40A4BF5
:1058900013B51C6824B1A36913B9204602F0AAF914
:1058A00005AB049AA1682046019303F0BBFD02B04A
:1058B000BDE8104004B07047D800002038B5084B50
:1058C00005461C6824B1A36913B9204602F092F979
:1058D000A26829462046BDE8384004F093B900BFCD
:1058E000D800002070B50E46054618B183690BB983
:1058F00002F080F9AB69AC6813B9284602F07AF976
:10590000224B9C4201D16C6808E0214B9C4201D1A2
:10591000AC6803E01F4B9C4208BFEC68A3891B07DF
:1059200001D523693BB92146284601F0BDF910B1E4
:105930004FF0FF3070BD013EA36816F8011F013B18
:10594000A36091B1002B04DAA269934206DB0A2915
:1059500004D023685A1C22601970EDE722462846BD
:1059600001F03CF90130E7D1E2E7002B08DA2246EA
:105970000A21284601F032F90130D9D00A2070BD41
:1059800023680A205A1C2260187070BD98D600083F
:10599000B8D60008D8D60008024B01461868FFF7B1
:1059A000A1BF00BFD800002038B50C46054618B18D
:1059B00083690BB902F01EF90E4B9C4201D16C6851
:1059C00008E00D4B9C4201D1AC6803E00B4B9C42BC
:1059D00008BFEC682146284604F066F938B96368C8
:1059E000013B636023685A1C2260187838BD4FF071
:1059F000FF3038BD98D60008B8D60008D8D60008C1
:105A00000FB40A4B13B51C6824B1A36913B920461F
:105A100002F0F0F805AB049A61682046019303F0A8
:105A200071FF02B0BDE8104004B07047D8000020FC
:105A300000294FF480630CBF0222002200F000B85E
:105A40002DE9F7431D464F4B04461E680F4690460E
:105A500026B1B36913B9304602F0CCF84A4B9C42E8
:105A600001D1746808E0494B9C4201D1B46803E05D
:105A7000474B9C4208BFF468B8F1020F04D0B8F15C
:105A8000010F79D8002D77DB2146304602F036F839
:105A9000616B41B104F14403994202D0304603F0F6
:105AA000F1F8002363630023A3616360A3891B06ED
:105AB00003D52169304603F0E5F8A389B8F1020F58
:105AC00023F44A6323F00303A3811ED001AB6A468B
:105AD0002146304602F068FCA3891843A0810DB925
