:020000040800F2
:1000000000400120E5420008234300082543000882
:1000100027430008294300082B4300080000000084
:100020000000000000000000000000002D43000858
:100030002F4300080000000031430008334300084C
:1000400037430008394300083B430008A50E000869
:100050003F4300084143000843430008454300086C
:1000600047430008494300084B4300084D4300083C
:100070004F4300085143000853430008554300080C
:1000800057430008594300085B4300085D430008DC
:100090005F430008614300086343000865430008AC
:1000A00067430008791000086B4300086D4300089F
:1000B0006F4300087143000873430008754300084C
:1000C00077430008794300087B4300087D4300081C
:1000D0007F4300088143000825150008F50100084A
:1000E00087430008894300088B4300088D430008BC
:1000F0008F4300089143000893430008954300088C
:1001000097430008994300089B4300089D4300085B
:100110009F430008A1430008A3430008A54300082B
:10012000A743000810B5054C237833B9044B13B12D
:100130000448AFF300800123237010BD200100208C
:10014000000000001CD70008084B10B51BB108497F
:100150000848AFF300800848036803B910BD074B97
:10016000002BFBD0BDE81040184700BF0000000086
:10017000240100201CD700082001002000000000FE
:10018000154B002B08BF134B9D46A3F5803A002169
:100190008B460F461348144A121A04F0BEFE0F4B4A
:1001A000002B00D098470E4B002B00D09847002022
:1001B000002104000D000D48002802D00C48AFF3C8
:1001C000008004F079FE2000290003F077FF04F09E
:1001D0005FFE00BF0000080000400120000000009A
:1001E0000000000020010020881400200000000012
:1001F000000000002DE9F043684B83B01A8800210D
:1002000092B201929A886648D2B28DF80320198082
:100210000278002A4DD1019B1B075FD4614A9DF8EB
:100220000330002B68D0604C138827469DF80310DC
:100230009BB2C9B25D4DDFF86CE1E1544FF00108AB
:10024000002101EBC10301EB43032B449E7C06F02C
:10025000FF0C86B95E7C06F0FF09002E5BD1168884
:10026000B6B214F806C01E7CF6B29E5DB44500F02E
:10027000848083F8109001310229E2D113884C491F
:100280009BB2E35C4B4E0D78755D9D4258D00023C8
:100290000B70138848499BB2E35C484D0C782C5D89
:1002A0009C425BD000230B70138801339BB21380F8
:1002B00022E09B88DBB28DF803309DF803300D2BD4
:1002C00019D09DF803300A2B15D09DF80330202B50
:1002D00011D03B4B0121334A19700DE002F0FF01B0
:1002E000324D304A324C344B1180217019702974D0
:1002F00085F8231093E72B4A13882A4A9BB2B3F55B
:10030000806F05D340F2FF302E4B01211080197011
:1003100003B0BDE8F0831688B6B2A65D0A2EAAD156
:10032000BEF80060B6B2013EBE5D0D2EA3D180F8CE
:10033000008083F8128083F811C083F810C09AE718
:100340000B780133DBB20B700B78012BA1D91E4D5A
:100350000123002603700E702B709AE70B7801338F
:10036000DBB20B700B78042B9ED9174B01260025AE
:10037000022406700D701C7096E71E7C0136F6B2E2
:100380001E741E7CF6B29E5D06F0FF0C002E7FF4FC
:1003900072AF83F810C083F811806CE7004800400A
:1003A00042050020400500203C0100200000002004
:1003B0003C050020D0A400083D050020C8A400088A
:1003C000430500203E0500204405002070B40B4A80
:1003D0000B4E0C4D0C4C0D480D49002333702B7007
:1003E000237003700B8013749374537482F823305A
:1003F00082F8253082F8243070BC7047000000205D
:1004000044050020420500203E0500204305002051
:10041000400500202DE9F04F002483B03D4E0194AB
:1004200034780D9F64B9019CA74203D808E0019D70
:10043000AF4205D9019C013401943578002DF6D0E6
:10044000347804F0FF08F4B90AB182F800800BB1E7
:1004500000221A700023037018462F4F2F4D304C86
:100460003049314A33703B702B7023700B8013740A
:100470009374537482F8233082F8253082F8243044
:1004800003B0BDE8F08FDFF890A00124DFF894906E
:100490008AF80040B9F800C01FFA8CFCD0B1BCF15A
:1004A000000F33D0B1F1010B32D00CF1FF3E1FFA37
:1004B0008EFE1E490EF1010E451E002401E05C4532
:1004C00005D00F5D0134744505F8017FF7D1A4B262
:1004D00000210155114C0AB12178117010490BB15E
:1004E0000A781A700C9B33B1B8F1020F0C9A0CBF4A
:1004F0000123002313700023337060468AF8003014
:10050000094A23700B70A9F80030B0E76446DFE7B2
:100510005C46DDE744050020420500203E05002042
:100520004305002040050020000000203C01002081
:10053000F0B50E4ADFF84CE00D4F0E4E0E4D0F4C4D
:1005400000238EF800303B7033702B7023801374BF
:100550009374537482F8233082F8253082F8243063
:100560000146BDE8F040064802F09ABF00000020B6
:10057000420500203E0500204305002040050020E4
:100580000048004044050020F0B5044683B02A48E6
:10059000FFF7CEFF0023294A019313782BB107E020
:1005A000019B01330193137813B9019B9C42F7D847
:1005B0001378224D03F0FF022BB3022A204F25D0DF
:1005C0000123204E3B7033881F4A9BB20024104603
:1005D0001E49D45405F090FBA8B1007A1C4B1D496C
:1005E0001D4A3038C0B22C703C700C7014703480CE
:1005F0001C749C745C7483F8234083F8254083F852
:10060000244003B0F0BDFF2003B0F0BD104A114EEE
:10061000114C0C490023FF202B703B70337023706A
:100620000B8013749374537482F8233082F825304E
:1006300082F8243003B0F0BD2CA30008440500204C
:1006400042050020400500203C0100203CA300089A
:10065000000000203E05002043050020F0B587B0D3
:1006600003461B4A0C4601A8142105F053FA01A8C1
:10067000FFF75EFF0023174A009313782BB107E0C2
:10068000009B01330093137813B9009B9C42F7D869
:100690001378104903F0FF00C3B10023022808BFFC
:1006A00018460D4A0D4F0E4E0E4D0F4C0B7018BFD5
:1006B00001203B7033702B70238013749374537438
:1006C00082F8233082F8253082F8243007B0F0BD5C
:1006D00048A3000844050020000000204205002037
:1006E0003E05002043050020400500202DE9F04F85
:1006F000514C93B003938146E36820688A461546BF
:100700006168A26806AC0FC44C494D48BDF87070D2
:100710001D9E4C4C02F0C4FE0023049323782BB1A1
:1007200007E0049B01330493237813B9049B9E4292
:10073000F7D82378434903F0FF02002B74D000233D
:100740000B704149DFF814810B704049DFF810B19C
:100750000B703F49022A0B70ABF8003088F810305C
:1007600088F8123088F8113088F8233088F825305E
:1007700088F824305CD037498DE8A00053464A46BB
:100780000AA805F0F9F90AA92D4802F089FECFB1AF
:10079000039D2F44A94615F8013B12AA02EB13133F
:1007A00013F8301C264802F075FE99F8003012AAA2
:1007B00003F00F031344224813F8301C02F06AFEC2
:1007C000BD42E7D124491E4802F06AFE002305938A
:1007D00023782BB107E0059B01330593237813B9E8
:1007E000059B9E42F7D82378164903F0FF02DBB140
:1007F00000230B701449022A0B7014490B70144922
:100800000B70ABF8003088F8103088F8123088F898
:10081000113088F8233088F8253088F8243007D044
:10082000042013B0BDE8F08F002013B0BDE8F08FB6
:10083000012013B0BDE8F08F1CA3000858A30008E6
:100840000048004044050020420500203E050020ED
:100850004305002068A3000878C9000800000020B4
:1008600040050020F8B5374DAA7C4AB902F0FF03D5
:1008700008B1FF22027009B100220A801846F8BDB3
:100880000746314E314A33880C469BB20021D15481
:1008900010462F4905F030FA17B1437A303B3B70D0
:1008A00084B300232380C27A0B30303A092A46D819
:1008B000194603EB83035A0092B222800378303A40
:1008C00013449BB2238010F8012F0131303A092ADA
:1008D000C9B22BD80529ECD1002213461D4F1E4C5E
:1008E0001E481F493A70227002700A7032802A74C2
:1008F000AA746A7485F8232085F8252085F82420B9
:100900001846F8BD134B14481449154A1C7004705E
:1009100001230C70147034802C74AC746C7485F8E2
:10092000234085F8254085F82440A7E74B1F18BFD2
:100930000123084F084C094809490022D2E7012346
:10094000F7E700BF00000020400500203C01002028
:1009500084A3000844050020420500203E05002035
:1009600043050020F0B5254DADF5057D95F8252012
:100970002AB902F0FF0318460DF5057DF0BD0646C5
:100980001F4F20493A884FF0000E92B202AC01F896
:1009900002E00846234601AA1B4905F011F9019817
:1009A0009EB148B32346721E04EB000E0DF5027C87
:1009B00001E0634507D013F8011B734502F8011FDE
:1009C000A3EB0401F5D100237354104E104C1149D0
:1009D000114A002380B2337023700B7013703B8078
:1009E0002B74AB746B7485F8233085F8253085F84B
:1009F00024300DF5057DF0BD0146E4E70000002040
:100A0000400500203C01002090A300084405002080
:100A1000420500203E050020430500202DE9F0435B
:100A2000AFB017461E4602460B4604A86549379DDF
:100A300005F0A2F804A8FFF77BFD634C00230393A5
:100A400023782BB107E0039B01330393237813B979
:100A5000039B9D42F7D82378DFF86C9103F0FF00E9
:100A600073B302282FD0DFF88081584AB8F80030DD
:100A700010469BB256490025D55405F03DF90EA904
:100A80000DF10A030191009309AA02AB514905F047
:100A900097F8042830D0504B504C5149514A89F8AE
:100AA0000050022025700D701570A8F800501D74BC
:100AB0009D745D7483F8235083F8255083F8245087
:100AC0002FB0BDE8F083454E454D464C46490023C6
:100AD000414A89F80030012033702B7023700B805D
:100AE00013749374537482F8233082F8253082F89B
:100AF00024302FB0BDE8F083369B002B4CD0BDF8DE
:100B00000A305900002B47D02A4619E01B014FFA42
:100B100083FE15F87F5CA5F13003DBB2092B05D904
:100B2000A5F14103052B21D8A5F137035BB20132B2
:100B300092B25500EDB243EA0E038D4203702BDAF8
:100B40002EAB1D4415F880EC369B9818AEF130039F
:100B5000DBB2092BDAD9AEF14103052B0FD8AEF188
:100B6000370343F303034FEA031ED2E7A5F1610302
:100B7000052B9ABFA5F157035BB20023D7E7AEF16F
:100B80006103052B9DBFAEF1570343F303034FEA07
:100B9000031E4FF0000EBCE71FB109A9384605F04F
:100BA00088F816B1BDF8083033800C4E0C4D0D4955
:100BB00000232370084A337004202B700B70A8F8B0
:100BC00000308DE7ACA30008440500203C01002064
:100BD000C0A30008CCA300080000002042050020AC
:100BE0003E050020430500204005002010B50446C6
:100BF0009CB01F48FFF79CFC00230DF10B020092F4
:100C000001941A4603A86421FFF704FC9DF80B30F9
:100C1000FBB9E0B103A8174905F06EF830B383794A
:100C20002C2B20D0FBB1C279303B9BB22C2A19B2BD
:100C300007D032B103EB8303303A02EB43039BB29C
:100C400019B29A1E1C2A07D85800713800B21CB07D
:100C500010BD00201CB010BD1F2914BF6FF06E0026
:100C60006FF03200F3E76FF06E00F0E70248EEE756
:100C70002CA4000838A4000816FCFFFF30B50C4671
:100C80009DB005461F48FFF753FC0DF10B020023F2
:100C90000194009203A81A466421FFF7BBFB9DF85C
:100CA0000B4004B928B91DB300242C7020461DB098
:100CB00030BD03A8144905F01FF80028F6D0FDB197
:100CC000C1790D291AD02A46073005F1310401E017
:100CD000A24211D002F8011B10F8011F531B0D296D
:100CE000DBB2F5D1012420460022EA541DB030BD0C
:100CF0002C4620461DB030BD3123F3E72346F1E7F3
:100D00000124D3E740A400084CA4000830B50C46E9
:100D10009DB005461D48FFF70BFC0DF10B020023AB
:100D20000194009203A81A466421FFF773FB9DF813
:100D30000B40ECB9E0B103A8154904F0DDFF0DB399
:100D4000817A0D2920D000F10A042B4605F13100EB
:100D500001E0834214D003F8011B14F8011F5A1B51
:100D60000D2992B2F5D100230120AB541DB030BD46
:100D70001DB1002028701DB030BD28461DB030BD0B
:100D80003122F0E70120F6E72246ECE754A4000800
:100D900060A4000830B50378ADF5057D73B1044655
:100DA000002302E0B3F5E17F25D014F8012F0133D1
:100DB0009BB2002AF6D1B3F5E17F18D00C46104A59
:100DC0004FF40071009004A804F0A4FE04A8FFF7FB
:100DD000AFFB0DF10F0500231A460194009519464B
:100DE0001846FFF717FB2A78B2FA82F2520910462A
:100DF0000DF5057D30BD002210460DF5057D30BD99
:100E00006CA4000810B504469EB01348FFF790FB91
:100E10000DF10F02002300926421019405A81A46E7
:100E2000FFF7F8FA05A80D4904F066FF30B104AAEF
:100E30000B4904F0C5FE049B012B08D09DF80F0060
:100E40000130C0B2B0FA80F040091EB010BD0028D9
:100E5000F4D09DF80F00F5E784A4000890A40008E2
:100E600098A4000810B50C4684B098B90B48FFF759
:100E70005FFB00230DF10F028DE8140019461A469E
:100E80001846FFF7C7FA9DF80F00B0FA80F0400946
:100E900004B010BD0248FFF74BFBEAE7B8A4000816
:100EA000A8A40008094A0A4B4FF4801151611A683E
:100EB000084942F480721A60CA6822F48062CA60EB
:100EC0001A6822F480721A60704700BF0004014063
:100ED0000070004000280040F0B42E4B08242E4A39
:100EE000C3F8804013682D4C2D4D43F4807313607C
:100EF000CA274FF480135326676266626B61E3680A
:100F000023F48063E360A36823F48843A360E36869
:100F10005D0706D4234B01E0013B02D0E268520793
:100F2000FAD531B31D4B58619A6822F007029A60D6
:100F30009A6842F004029A60184A1748936800249D
:100F400043F4884393600168154B21F4807101607C
:100F500054621A680F4C42F480121A609A6812495F
:100F6000082542F4801201209A6025600870F0BCC8
:100F700070470E4B0003A3FB0023084A9B09013B6B
:100F80005361936823F007039360936843F0010370
:100F90009360D1E700E100E00070004000280040CD
:100FA0000004014080841E0045050020D34D6210DE
:100FB0001C4B1B78002B34D01B491C4B0A6942F098
:100FC00004020A611A6842F005021A601A6822F0E7
:100FD00002021A6030BF16490B6843F001030B6030
:100FE0000B68980706D4134B01E0013B02D00A6856
:100FF0009207FAD50E498B6823F003038B608B6848
:1010000043F001038B608B6803F00303012B08D1CD
:10101000084A01E0013A04D08B6803F00303012B76
:10102000F8D070474505002000ED00E0007000405A
:101030000038024080841E0070B5164642B10C464E
:101040008D1814F8011B034802F024FAAC42F8D1C1
:10105000304670BD0038014070B5164642B10C46AE
:101060008D18044802F02CFA04F8010BAC42F8D1B8
:10107000304670BD00380140194B1A8A900707D5D9
:1010800018490A6801320A605A6B02F57A725A638B
:10109000134B1B8A590714D5134B1B8A5A0606D4C7
:1010A000124B1B781BB9124A1368013313600E4BA5
:1010B0001B8A5B0609D40A4A936B03F543435033FA
:1010C0009363074B00221A827047084B1A78002A54
:1010D000F1D1074A1268002AEDD001221A70EAE71E
:1010E0000008014048050020000802404C0500208F
:1010F00058050020014B1868704700BF48050020C4
:10110000034A116813685B1A8342FBD3704700BF20
:1011100048050020034B202208B91A8370475A83E0
:10112000704700BF000002400A4A4FF4807082B04E
:1011300000230949108301E0019B013301930A68F0
:10114000019BB3EB520FF7D3024B4FF480725A83DB
:1011500002B07047000802405005002010B4164B42
:10116000164C174983B00022DC60D960ADF8062028
:10117000BDF806309BB2402B18D8BDF80630BDF83C
:1011800006209BB29B0092B203F1006350F822202C
:1011900003F500231A60BDF8063001339BB2ADF8A9
:1011A0000630BDF806309BB2402BE6D9024B012237
:1011B0005A6003B010BC7047003C0240EFCDAB89D1
:1011C000050403024FF48272014903F09BBE00BF85
:1011D0000000080810B40478ECB1F1B10022134605
:1011E0000AE09A4218BF8454013292B201339BB292
:1011F000C45C64B199420AD07F2CF2D1541E002AFB
:10120000F4D001339BB2A2B2C45C002CF2D1002313
:10121000835410BC70472246F9E70A46F7E700BF3F
:10122000F0B5914A83B01368002143F001031360C5
:10123000019113689E070DD4019B8C498B4203D901
:1012400008E0019B8B4205D8019B01330193136891
:101250009D07F6D5864B19461A6842F004021A60BB
:101260000B68834A5C07FBD51146136843F0030300
:1012700013600B68D807FCD57B4C7E4DA268002319
:1012800042F00102A260E1697B4A41F00701E1619D
:10129000606A4FF4E13140F418106062266A7748C2
:1012A00046F4804646F00C0626622E68744F46F4DB
:1012B000201646F494662E602E6A46F4EE462E62A0
:1012C0006E6A46F4EE666E6202F000F901236A4A25
:1012D0004FF416516B4802F0F9F86B4B40225A60FC
:1012E0003B680021586804F063FB3B680021986864
:1012F00004F05EFB654804F00FFB636A43F0805323
:101300006362636B13F400753DD1614804F004FB24
:101310006049614A0B68CA2643F4807353200B600E
:1013200056625062636B43F4807363630195636B31
:101330009A050DD4019B4D4A934203D908E0019BC5
:10134000934205D8019B01330193636B9B05F6D54E
:10135000019A464B9A4200F28280504C002323703F
:1013600041494D484B6B4B4A43F4820300254B6384
:101370004562136823F480731360237863B148488F
:1013800004F0CAFA08E0454C00234648237004F0F4
:10139000C3FA2378002BF2D1434B4FF480425A8397
:1013A0004CF250371A68344942F0805242F42022FD
:1013B0001A609A883D4892B242F440729A805A6A02
:1013C000314C42F044025A6200F08CFB384804F081
:1013D000A3FA38494FF440734B830A68012342F45F
:1013E00025020A60486A244A40F4EE4048624FF4FD
:1013F000E131314802F06AF8802363602F4804F03D
:101400008BFA2F4B4FF47A725A6301214FF000721E
:101410000F20062681259F6318859E8129481D80FF
:101420009982226004F078FA274804F075FA274A76
:1014300000232749136008680B681B1AB3F57A7FED
:1014400007D21368013313600B681B1AB3F57A7F58
:10145000F7D311681F4804F0D9F903B0F0BD0F4C61
:10146000012323707CE700BF003802407F841E0008
:10147000003C0240000002400024F400003801401B
:10148000D80000200044004000E100E0D4A400089F
:1014900000A500080070004000280040540500200E
:1014A00030A5000814A500080004024000540040C4
:1014B0004CA50008000802400048004060A5000854
:1014C0000008014074A500088CA500085005002004
:1014D00048050020B0A5000800B5002383B00146F0
:1014E00000935122024800F059FA03B05DF804FB62
:1014F0000054004000B585B00DF10F030146009384
:10150000AA220123064800F0B5F818B17F2005B0E3
:101510005DF804FB9DF90F0005B05DF804FB00BF0A
:1015200000540040F0B4354B82B01A88002192B2CA
:1015300001929A883248D2B28DF80320198003783C
:10154000002B36D140F2FE3603F0FF02019B2D4CFA
:1015500013F0080F2C4B2D4D1CBF1A8022701A88D7
:101560009DF8031092B2C9B2A9541A88264992B2C2
:10157000B24203D80A88013292B20A802178244EFE
:101580009DF80320715C1F4E9142224A14D0002125
:101590002170117801F0FF0601B91E8012781D49F3
:1015A0003AB11B88184A9BB2013BEB5C174D0A2BE2
:1015B00012D002B0F0BC7047117801F0FF0700298B
:1015C000E5D131780131C9B2317031780529E5D9D9
:1015D000012137701170E1E713889BB2023BEB5C8D
:1015E0000D2BE6D1138800269BB2023B0127EE5457
:1015F0000E70168026700770DBE700BF00440040C5
:10160000600900205C0900205E0900205C050020C4
:10161000C8A500085D09002070B4144E3378EBB102
:10162000B0B1134A147804F0FF037CB101390029EA
:1016300019DD0024234601E08B4207DA155D5C1CAE
:10164000C554A3B2D55C1C46002DF5D10022C2546E
:10165000002301223370104670BC704703F0FF0274
:10166000104670BC70470023F0E700BF60090020FF
:101670005C0500200BB903207047F0B58FB0149CB7
:10168000002C4BD004880025A4B244F4807404805C
:101690000295848AE7070DD4029C944DAC4203D98D
:1016A00008E0029CAC4205D8029C01340294848A72
:1016B000E607F6D5029C8D4DAC421BD849000024AC
:1016C0008EB206820394848AA40706D508E0039CA0
:1016D00001340394848AA70702D4039CAC42F6D950
:1016E000039D824CA54202D8058BEF0718D4022037
:1016F0000FB0F0BD01200FB0F0BD0B96858A6D06CE
:1017000006D508E00B9D01350B95858A6D0602D440
:101710000B9D8D42F6D90B9D8D426AD90320EAE7D5
:1017200092B2002502820495828A160606D508E048
:10173000049A01320492828A150602D4049AA242C3
:10174000F6D9049A694CA242E8D80288002592B2E0
:1017500042F4807202800595828AD60709D405E09A
:10176000059A01320592828AD20702D4059AA242D2
:10177000F6D9059C5D4A9442BCD8012B41F0010189
:101780003AD0022B00F08880002401820A94818ADA
:10179000890706D508E00A9901310A91818A8E07E6
:1017A00002D40A999142F6D90A9A50498A42B5D888
:1017B000028BD207B2D505880024ADB245F480650E
:1017C000DF1EA3F1020C03F1FF3E2646149A0580AA
:1017D0009BB205E00134A5B2AB4202F1010246D949
:1017E000A7428ADC00F0BD80A44500F0A080A64599
:1017F000F0D1058A1570EDE7002301820693838AF4
:101800009B0706D508E0069B01330693838A9F0752
:1018100002D4069B9342F6D9069B344A93423FF684
:101820007DAF038823F480631B041B0C0380038BB0
:10183000DD077FF573AF038800219BB243F400738B
:1018400003800791838A5E0606D508E0079B013373
:101850000793838A5D0602D4079B9342F6D9079AC1
:10186000224B9A423FF65AAF038A149A1370002310
:101870000193038BDA070DD5019B1C4A934203D9D0
:1018800008E0019B934205D8019B01330193038B30
:10189000DB07F6D400202EE7002301820893838A19
:1018A0009C0706D508E0089B01330893838A9907B3
:1018B00002D4089B9342F6D9089B0C4A93423FF608
:1018C0002DAF038823F480631B041B0C0380038863
:1018D0009BB243F400630380038BDC077FF51EAFEC
:1018E00000230993838A5B070BD407E07F841E00E3
:1018F000099B01330993838A5F0702D4099B9342B2
:10190000F6D9099A244B9A423FF608AF0388149AF5
:101910009BB243F400730380038A1370038A5370ED
:10192000038823F400631B041B0C03809FE70D96C0
:10193000858A6D0706D508E00D9D01350D95858AD0
:101940006D0702D40D9D8D42F6D90D9D8D423FF657
:10195000E5AE0588ADB245F400750580058A1570C1
:1019600045E70C96858A6D0706D508E00C9D013584
:101970000C95858A6D0702D40C9D8D42F6D90C9D7D
:101980008D423FF6CBAE058825F480652D042D0CE5
:101990000580058A157027E77F841E0030B404880F
:1019A0000025A4B244F4807486B004800195848A32
:1019B000E5070DD4019C4A4DAC4203D908E0019CD7
:1019C000AC4205D8019C01340194848AE407F6D521
:1019D000019D434CA5427CD8490000250182029517
:1019E000818A890706D508E0029901310291818A2E
:1019F0008D0702D40299A142F6D9029C38498C4243
:101A000003D9022006B030BC7047048BE407F8D538
:101A100092B2002402820394828A140606D508E05A
:101A2000039A01320392828A120602D4039A8A42EE
:101A3000F6D903992A4A91424FD80899E1B1DBB10E
:101A40005C1E089BA4B21C44591E002511F8013FDE
:101A500003820495838A1B0606D508E0049B0133A4
:101A60000493838A1B0602D4049B9342F6D9049BF9
:101A7000934232D8A142E9D100230593838A5A07C1
:101A80000DD4059B164A934203D908E0059B934267
:101A900005D8059B01330593838A5B07F6D5059B23
:101AA0000F4A934219D8038800219BB243F4007374
:101AB00003800091038BDB0709D505E0009B013310
:101AC0000093038BDD0702D5009B9342F6D90020DB
:101AD00098E7012006B030BC7047042092E700BFB1
:101AE0007F841E0010B4084C084A8B09A4FB0141F6
:101AF000A2FB0323890C4C1C9B0901228180838358
:101B00000484028010BC704783DE1B43632D3E05B6
:101B100000B585B00DF10F03014600930F2201239C
:101B20000348FFF7A7FD9DF80F0005B05DF804FB23
:101B300000540040F0B515461C46074685B0090123
:101B40000DF1100E0F4E41F007010EF8011D2D0191
:101B5000E400CDF800E0014601233046202205F0E4
:101B6000300504F00804FFF719FF2C4304AB03F819
:101B7000024D00933946304601232322FFF70EFF22
:101B800005B0F0BD00540040F0B585B002AF0E4680
:101B9000154601461C4600970623A8221848FFF761
:101BA00069FD9DF809309DF808209B0043EA9213D7
:101BB000990554BF1A4643F47C429DF80B309DF8BA
:101BC0000A109B0043EA9113524232809A059DF815
:101BD0000D209DF80C104FEA820242EA911248BF94
:101BE00043F47C435B4291B22B808B054ABF6FEA82
:101BF000815313466FEA9353238005B0F0BD00BFB5
:101C00000054004000B589B00B460090054A03A877
:101C1000142103F07FFF03A9034803F0F7FD09B087
:101C20005DF804FBD8A50008E4A500082DE9F843F9
:101C30001E4680460D4665486549144603F0E6FD9C
:101C40006449624803F0E2FD6349604803F0DEFD49
:101C5000002E5CD1DFF8A891B4B208EBC4077B6812
:101C60001B781BB958F83430002B49D0AC422BD02C
:101C70005A49564803F0CAFD5749544803F0C6FD77
:101C8000142C1CD04FF6FF731521012201328C4217
:101C900092B214D039F812109942F7D150494B48FA
:101CA00003F0B4FD4F4803F0B1FD7A68611C4E4863
:101CB00003F0ACFD4D4803F02FFE0136CCE746495A
:101CC000424803F0A3FDEDE74949404803F09EFD7B
:101CD000142C10D04FF6FF711522012301339542C9
:101CE0009BB208D039F813208A42F7D141493748CE
:101CF00003F08CFDD6E74049344803F087FDD1E777
:101D00003E49324803F082FD2046BDE8F883211D9C
:101D1000C9B20020FFF776FF30492C4803F076FD6A
:101D2000142C4DD04FF6FF70354915220123013395
:101D300094429BB244D031F813208242F7D1284913
:101D4000224803F063FD274803F060FD08EBC4035D
:101D50005A68611C244803F059FD291DC9B20020AE
:101D6000FFF750FF2249194803F050FD142D22D0EF
:101D70004FF6FF70224915220123013395429BB291
:101D800019D031F813208242F7D11A490F4803F0D5
:101D90003DFD08EBC508134803F038FDD8F80420D2
:101DA000691C184803F032FD1449084803F02EFD61
:101DB0000220BDE8F8831049044803F027FDE8E756
:101DC0000549024803F022FDBDE700BFD0A5000889
:101DD000E8A50008ECA50008F4A50008F8A500088F
:101DE00078A60008FCA5000858A60008F8A9000875
:101DF00064A600087CA60008D8BD000874A60008E8
:101E0000CCAA000868A6000810B50E4C0E49204662
:101E100003F0FCFC20460D4903F0F8FC20460C4979
:101E200003F0F4FC0B49204603F0F0FC0A4803F0F1
:101E300073FD0A4803F0EAFCBDE810400849094870
:101E400003F0E4BCD0A5000880A6000888A600081E
:101E50007CA600088CA6000890A60008FCA5000837
:101E6000ECA6000804A700082DE9F04F8046C3B097
:101E700001A8FFF7A7F9714803F0C8FC704803F008
:101E8000C5FC00210846FFF7BDFEFFF7BDFF00239C
:101E900040461A4619469B46FFF7C8FE5C468146F7
:101EA0005D465E46674F684801F00AFBA0F13003CB
:101EB000DBB2092B824634D80DF80B00BBF1000FC2
:101EC00000F09A809DF800109DF801303039313BC8
:101ED00001EB810103EB410189B2494528BF494625
:101EE0005B4689B2224640460C46FFF79FFE4FF004
:101EF000000BBAF11B0F1DD0012E00F09780032DAF
:101F00006FD0022ECFD1BAF1410F7FD0BAF1420F7C
:101F100075D021462246012340460C46FFF786FE37
:101F2000C1E7722844D00D280AD0BAF11B0F4FF038
:101F3000000BE1D10135EDB2032D52D00126B2E7FD
:101F40004249434803F062FC4249414803F05EFCC9
:101F500000210846FFF756FE142C5CD04FF6FF71A7
:101F600015220123013394429BB254D037F8132039
:101F70008A42F7D101A858F834309847364803F020
:101F8000CBFC314801F09CFA30498246304803F0DE
:101F90003DFC30492E4803F039FCFFF735FF0023A4
:101FA000224621464046FFF741FE4FF0000BA0E7D6
:101FB000224803F02BFC224803F028FC00210846AD
:101FC000FFF720FEFFF720FF00231A461946404680
:101FD000FFF72CFE012E81464FF0000BACD0032DF5
:101FE0008FD11A491A4803F011FC00210846FFF767
:101FF00009FE43B0BDE8F08F4FF0010B79E709F11E
:10200000FF339C420EDB2146002683E7002CFAD0EA
:10201000611E89B2F8E7114803F07EFC104803F016
:102020007BFCAEE7611C89B2002673E7BAF15B0F57
:1020300082D12146002502266CE700BF1CA70008BC
:1020400044A70008CCAA00080038014088A6000870
:10205000D0A5000874A600084CA7000880A70008B7
:10206000DCA70008F0B57049D7B0704803F0CEFB8C
:102070006F4803F051FC15A8FFF7A4F89DF8543001
:10208000002B40F0A2806B4803F046FCBDF84811DD
:10209000694803F0BBFB9DF8850000F08FFF20B17D
:1020A0009DF88430002B40F0AC80644803F034FC91
:1020B0009DF8050100F082FF20B19DF80431002B4E
:1020C00040F0A4805E4803F027FC9DF84A115D486B
:1020D00003F09CFB5C4803F099FB9DF84B315B4F90
:1020E0000F2B0CBF5A485B4803F016FC51995A4815
:1020F00003F08CFB9DF84C11584803F087FB5848BF
:1021000003F00AFC3B68002B64D07D682B78002B21
:1021100060D000263446002C4FD0042C51D001341E
:102120002A46711CA4B24F4803F070FB57F83420C4
:102130002646464B2AB103EBC4035D682B78002B7F
:10214000E9D1494803F062FB01A9484803F018FCB3
:10215000502101A8FFF73EF801A802F094FE0138D3
:1021600000F0FF05424803F0D7FBAC4243D957F8D3
:10217000353015A898473E483E4C03F0CDFB3E480D
:1021800003F0CAFB206842685368013B002B536090
:1021900041DB42681368013313602068426853686A
:1021A000013B002B53603ADB426813680133136034
:1021B000324803F0B1FB57B0F0BD314803F0ACFB3F
:1021C000ADE7304803F0A8FBA9E715A92E4803F0B6
:1021D0001DFB5BE7244803F019FB01A9234803F02A
:1021E000CFFB01A85021FEF7F5FF01A802F04BFE3E
:1021F0001F4803F091FB0DF10501244803F006FB95
:10220000B9E721A9224803F001FB51E741A9214880
:1022100003F0FCFA59E7416803F086FBBDE741682B
:1022200003F082FBC4E700BFECA60008F4A7000897
:102230004CA8000874A80008ACA80008C0A80008B2
:10224000F4A8000820A9000840A90008C8C5000893
:1022500058A9000860A9000870A90008A0A90008F2
:10226000B8A9000828AA000834AA0008E4A50008B4
:1022700038AA0008D8000020A4AA0008F8A900087D
:10228000FCA9000814AA000898A800088CAA000855
:10229000E0A8000810A90008BFF34F8F0449054BC0
:1022A000CA6802F4E0621343CB60BFF34F8FFEE7CE
:1022B00000ED00E00400FA0580B5144803F02CFBA3
:1022C00040F22151124A1348D369802443F08073AD
:1022D000114FD361C0F88440BB8A02F520520F4CE5
:1022E0000F4D9BB2303243F0400301200D4EBB82B4
:1022F0009460D56050601160B38A9BB243F0400394
:10230000B38215635463D0629162FEE7D8AA0008D5
:102310000038024000E100E000480040044800406E
:10232000043801400038014008B5044803F0F4FACD
:10233000BDE80840024803F0EFBA00BF18AC00083F
:102340003CAC000838B500F1300529460446114878
:1023500003F05CFA104803F0DFFA1049104803F06C
:102360000FFB50210D48FEF735FF0C4803F0A9FC88
:102370007F2809D8421C0949284602F0C3FD20469F
:10238000BDE83840FEF7EABE0648BDE8384003F035
:10239000C3BA00BF7CAE0008A0AE0008B40B00209A
:1023A000E4A50008C0AE000838B50446054634F878
:1023B000F41F074803F02AFA064803F0ADFA214655
:1023C000054803F0DDFA2846BDE83840FEF7C6BEF2
:1023D000D4AE0008F8AE000840BD000810B50446B1
:1023E000124803F099FA04F1F001114803F0C8FA19
:1023F000D4F8F030B3F57A7F0ED3B3F57A5F06D90F
:102400004FF47A53C4F8F0300A4803F085FA2046B6
:10241000BDE81040FEF7A2BE4FF47A73C4F8F03066
:10242000054803F079FAD4F8F030E6E710AF000879
:1024300060AF00089CAF000864AF000838B50546DF
:102440000B4C0C4803F068FA21460B4803F098FA4D
:1024500020465021FEF7BEFE23782846302B0CBFC5
:102460000023012385F8F830BDE83840FEF776BE3A
:10247000B40B0020D4AF0008E4A5000838B5054629
:102480000E4C0F4803F048FA21460E4803F078FA44
:102490000D4803F041FA20465021FEF79BFE2378B9
:1024A0002846312B0CBF0F23002385F8F730FEF7A9
:1024B00055FEBDE83840054803F02EBAB40B0020A5
:1024C00020B00008E4A50008F8A9000864B00008DE
:1024D00010B5044682B0154803F01EFA144803F004
:1024E0001BFA01A9134803F04BFA134803F014FA3E
:1024F000019B012B13D0022B0AD0104803F086F960
:102500002046FEF72BFE0E4803F006FA02B010BD7F
:10251000D4F8FC3043F00103C4F8FC30F0E7D4F801
:10252000FC3023F00103C4F8FC30E9E798B0000860
:10253000D0B0000840BD0008F8A90008FCB00008B1
:1025400054B100082DE9F04100F1B00529460446D8
:102550002F4803F05BF92F4803F0DEF92E492F488E
:1025600003F00EFA2E4803F0D7F950212A48FEF75F
:1025700031FE294803F0A5FB3F282BD82949064600
:10258000254803F08CFB28498046234803F087FB4D
:102590000746B8F1000F10D068BB002384F8F6306E
:1025A000224803F0B9F9294694F8F60001F04EF9F3
:1025B0002046BDE8F041FEF7D1BD94F8B03073B9C4
:1025C0001B4803F0A9F9002FE7D02046BDE8F041F1
:1025D000FEF7C4BD1748BDE8F04103F09DB91648A9
:1025E00003F09AF9012084F8F600294601F02EF94B
:1025F000002FEAD1D1E7721C2846074902F082FC7D
:102600000E4803F089F92046BDE8F041FEF7A6BD6B
:1026100064B1000878B10008B40B0020E4A50008FC
:10262000F8A90008D8B10008E0B1000834B20008E9
:10263000E8B10008C0AE00081CB2000850B20008A3
:1026400030B504461C4B91B0196803A8FEF716FB81
:1026500094F8F83093B9194D194803F05DF92946FB
:10266000184803F08DF928465021FEF7B3FD2B786A
:1026700003F0DF03592B0FD011B030BD94F8F610E2
:10268000B4F8F42020460193009103AB04F130012B
:1026900001F0E2FA11B030BD94F8F80094F8F610A9
:1026A000B4F8F42003AB01900091204604F130010E
:1026B00001F0D2FA11B030BD50050020B40B00205B
:1026C00064B20008E4A5000830B548209DB0FEF7CC
:1026D00011FF0DF10E0303AA0DF10A0105461820A2
:1026E000FFF752FA1820FFF713FA0446BDF90E005F
:1026F000BDF90C30BDF90A20294600901B4803F0B3
:1027000085F8332C0CBF1A481A4803F005F91A480B
:1027100003F002F900210846FEF77EFF4FF49660B1
:10272000FEF7EEFC08A85021FEF776FFC8B108A915
:10273000124803F06BF808A806AA04A901F0E8F90A
:1027400050B1DDE90601DDE90423CDE900010C48C3
:1027500003F05CF81DB030BD0A4803F0DDF81DB091
:1027600030BD094803F0D8F81DB030BD08B30008EB
:102770005CB300088CB30008B8B300080CB40008C0
:102780008CB4000820B40008D0B300080148FFF75B
:102790006BBB00BFC8C5000810B504462E4803F047
:1027A000BBF82378002B51D12C4803F0B5F8B4F8CE
:1027B000F4102B4803F02AF894F8312022F020037B
:1027C000413B192B38D9303A092A35D9254803F02D
:1027D000A3F894F8B12022F02003413B192B21D912
:1027E000303A092A1ED9204803F096F894F8F610DA
:1027F0001E4803F00BF81E4803F008F894F8F73071
:102800000F2B0CBF1B481C4803F086F8D4F8F010BF
:102810001A4802F0FBFF94F8F8101948BDE8104080
:1028200002F0F4BF94F8B030002BDCD004F1B0011A
:10283000144802F0EBFFD9E794F83030002BC5D0F4
:1028400004F13001104802F0E1FFC2E721460F48D1
:1028500002F0DCFFABE700BF4CA8000874A800083A
:10286000ACA80008C0A80008F4A8000820A9000827
:1028700040A9000858A9000860A9000870A900082C
:10288000A0A9000810A90008E0A8000898A800085E
:1028900070B50646C4B04FF47A70FEF731FC33468B
:1028A000154AFF2104A803F035F904A8FDF740FEFE
:1028B000124B0DF10F051A68002302EB4202019240
:1028C00004A800951A46FF21FDF7A4FD044630B97F
:1028D00031460B4802F09AFF204644B070BD0023F9
:1028E00004A905480B5502F091FF287810F1FF303C
:1028F00018BF012044B070BDA4A8000850050020F6
:10290000C0B4000810B5044682B02146234802F046
:102910007DFF234802F07AFF01A9224803F030F836
:10292000214802F0F9FF019B23F00203042B04D09D
:102930001E4802F0F1FF02B010BD30211C4802F029
:1029400065FF1C491C4803F01BF850211948FEF78D
:1029500041FC184803F0B5F930281BD8421C154932
:10296000204602F0CFFA2046FEF7F8FB134802F0AB
:10297000D3FF019B042B0CBF11481248FFF788FFBF
:10298000B0FA80F040090028D5D00F4802F0C4FF0B
:1029900002B010BD0D4802F0BFFFE7E7E4B4000845
:1029A0000CB5000840BD0008F8A900084CB50008A7
:1029B00068B50008B40B0020E4A5000890B5000835
:1029C000C4B50008D4B50008E4B50008C0AE0008DE
:1029D00010B51D4882B002F09FFF1C4802F016FFA0
:1029E0001B491C4802F0CCFF1B4802F095FF502108
:1029F0001748FEF7EFFB1949154803F050F918493D
:102A000000B3134803F04BF90446B8B9154802F077
:102A100083FFFEF789FB144802F07EFF134B0094FE
:102A20001A68214602EB8202019223462246204682
:102A3000FDF7F0FC0E4802F06FFFCEE70448FFF709
:102A400027FFCAE702B010BD3CB6000834AA000850
:102A5000B40B0020E4A50008F8A900085CB7000842
:102A600064B700086CB700088CB700085005002058
:102A7000A8B7000810B51E4C8EB01E4802F04CFFDF
:102A8000216801A8FEF7FAF801A91B4802F0BEFE72
:102A90001A48FFF7FDFE216801A8FEF737F901A9E2
:102AA000174802F0B3FE1748FFF7F2FE164802F08F
:102AB00033FF1648FFF7ECFE154802F02DFF1548CE
:102AC000FFF7E6FE144802F027FF1448FFF7E0FE88
:102AD0001349144802F09AFE134B144A14491B6818
:102AE00012680968134802F091FE0EB010BD00BFD5
:102AF00050050020B8B70008D4B70008ECB70008AC
:102B0000F4B700080CB8000814B8000820B8000892
:102B100028B800083CB8000844B8000864B80008A9
:102B2000ECA600086CB80008CC00F81FD000F81F15
:102B3000D400F81F8CB80008F0B590F8F63083B0D8
:102B4000002B49D0294802F061FE01A9284802F073
:102B500017FF284802F0E0FE019A4FF47A7303FB56
:102B600002F30193FEF7C6FA07462348FFF790FEEB
:102B7000224802F0D1FE224E01992248A6FB0131E3
:102B8000890902F043FE3C46019BE41B9C421E481F
:102B900027D2FDF7E7FE0546FEF7ACFAA6FB0023B9
:102BA0004FF47A729B0902FB1303044643B1002DD4
:102BB000EAD02946144A154802F028FE03B0F0BDB9
:102BC000019910483944091BA6FB0131890902F01B
:102BD0001DFE002DD8D0ECE70D4802F09DFE03B09D
:102BE000F0BD0C4802F098FE03B0F0BDE8B8000854
:102BF00040BD0008F8A900080CB900081CB900087D
:102C0000D34D621040B90008640900208CB9000857
:102C1000B0B8000858B900080148FFF739BE00BF36
:102C2000A8B90008F0B54FF48271064683B0C048D9
:102C300002F0ECFD41F2336CBE4B4FF47A7E07CBD1
:102C40001B88A5273060B381AA20002355250124C5
:102C50007160B260A6F8F4C0C6F8F0E086F83030D3
:102C600086F8B03086F8F63086F8F730C6F8FC30D3
:102C700086F8007186F8020186F8015186F8F8405E
:102C8000AD4802F049FE3046FEF768FAAB4802F064
:102C900043FEAB4802F040FEAA4F2146AA4802F08C
:102CA000B5FDAA48FDF744FC3A6800230192009361
:102CB0001A4619461846FDF7ADFB0546002800F0F8
:102CC0000F81A34802F028FEA248FFF7E1FD044669
:102CD000A14802F021FEA148FFF7DAFDB0FA80F02A
:102CE0004009002C14BF0446441C41F28830FEF712
:102CF00007FA21469A4802F089FD01259948FFF715
:102D0000C7FD002800F0E2809748FFF7C1FD0546A7
:102D10009648FFF7BDFDB0FA80F04009002D14BFC2
:102D20000346431C92481C44FFF7B2FDA4B200289E
:102D300008BF0134884802F0EFFD8848FFF7A8FD7E
:102D4000A4B2002808BF013441F28830A4B2FEF7D3
:102D5000D7F92146824802F059FD8448FFF798FDD3
:102D600005468448FFF794FDB0FA80F382485B097A
:102D7000002D14BF1D465D1CFFF78AFD002808BF0B
:102D80000135754802F0C8FD7448FFF781FDADB20A
:102D9000002814BF2846681C0444A4B241F28830BD
:102DA000FEF7AEF921466E4802F030FD7348FFF79A
:102DB0006FFD0546684802F0AFFD6848FFF768FD03
:102DC000B0FA80F04009002D08BF01300444A4B2DD
:102DD00041F28830FEF794F92146614802F016FD71
:102DE0006748FFF755FD05465B4802F095FD5B48D7
:102DF000FFF74EFDB0FA80F04009002D08BF01300A
:102E00000444A4B241F28830FEF77AF921465448CE
:102E100002F0FCFC5B48FFF73BFD05465A48FFF714
:102E200037FDB0FA80F34C485B09002D14BF1D46F6
:102E30005D1C02F071FD4948FFF72AFD002814BF10
:102E40002846681C0444A4B241F28830FEF758F9C1
:102E50002146434802F0DAFC4C48FFF719FD0028F0
:102E600014BF2046601C84B221463D4802F0CEFCCF
:102E70001820FEF74DFE332856D0454802F04CFD91
:102E80000134A4B2434802F047FD4820FEF724FB7A
:102E9000414802F041FD4820FEF72CFBA0F10F0352
:102EA000DBB2142B01462BD93C4802F0AFFC304674
:102EB000FFF7E0FD3A4802F02FFD3A4802F02CFD02
:102EC000374803B0BDE8F04002F026BD4FF4FA6089
:102ED000FEF716F9052D3FF417AF0135EDB20DE7FA
:102EE0000134314802F018FD042C7FF4D6AE2F488F
:102EF00002F08CFC284606F1B00100F0A7FCE0E6E9
:102F00002B4802F083FC3046FFF7B4FD244802F062
:102F100003FD002CD1D1274802F0FEFC204803B06D
:102F2000BDE8F04002F0F8BC234802F0F5FCA9E748
:102F3000B4B90008E8B90008F8B9000808BA0008F0
:102F40002CBA00085005002050BA000860BA0008EA
:102F5000B8BA0008D4BA0008E4BA0008A8B9000852
:102F6000FCBA000810BB000824BB000838BB0008EE
:102F700044BB000850BB000868BB000880BB0008C9
:102F80009CBB0008A8BB0008BCBB0008D4BB000861
:102F9000E4BB00081CBC000858BC000870BC00085A
:102FA00038AA00080CBD000868BA000874BA000806
:102FB000DCBC00081CBD000808BC000820F0200391
:102FC000413B192B05D9303809288CBF002001203E
:102FD00070470120704700BF30B50D4685B0FDF742
:102FE000A7FA094B0DF10F041A68002302EB420205
:102FF0000192284600941A464FF40071FDF70AFA30
:103000009DF80F0005B030BD500500200000000005
:1030100070B56D4988B06D48FFF7DEFF002840F0BD
:10302000838004466A4802F0F1FB03AA69496648B6
:1030300002F0C6FD039968484900713902F0E6FBC9
:10304000039801F007FB02460B4601F0B7F9002296
:10305000624B01F0B1F95AA3D3E9002301F060FB00
:1030600000225F4B01F0AAF901F06CFD86B25D48C9
:1030700002F052FC5C4802F04FFCA5B2002C00F0BC
:103080008880032D00F08D80082D00F09280142D93
:1030900000F08B801C2C7CD0AE427ED0202002F031
:1030A000CDFB0134322CE8D1504802F035FC4649C2
:1030B0004F48FFF791FF00283FD105AA4D4904ABC7
:1030C000414802F07DFD049A05998D3A4A4802F084
:1030D0009DFB4A48FDF72CFA494B0DF10B011A688C
:1030E000002302EB42028DE8060037484FF40071DE
:1030F0001A46FDF78FF900214248FFF76DFF00B334
:10310000414802F009FC00214048FFF765FF002814
:103110002BD12D493E48FFF75FFF00282ED03D48B8
:1031200002F0FAFB08B070BD3B4802F0F5FB2649FF
:103130002F48FFF751FF0028BFD0384802F0ECFBC2
:10314000C7E721492D48FFF747FF98B906AA344938
:103150001D4802F035FD0699324802F057FB002168
:103160002A48FFF739FF0028D3D02F4802F0D4FBBC
:1031700008B070BD2D4802F0CFFBC4E707AA2C4968
:10318000114802F01DFD07992A4802F03FFB08B0E4
:1031900070BD294802F03AFB7EE7284802F036FB72
:1031A0007FE7274802F032FB76E7264802F02EFB45
:1031B00072E7254802F02AFB6EE700BFAFF30080FC
:1031C000E17A14AE47E1DA3F800D00202CA400081C
:1031D0002CBD000834BD000844BD000800405C4020
:1031E00000004940F8A9000878BD0008DCBD0008CF
:1031F00004BE000810BE000834BE000884A4000805
:103200005005002090BE0008A0BE000818BF0008AE
:103210004CBF00087CBF0008E8BD000874BE000871
:10322000C8BE0008ECBE000828BF0008FCBE0008AD
:1032300058BF00086CBF0008B0BD0008D0BD000832
:10324000B8BD0008C8BD0008C0BD00082DE9F041A8
:103250000746E6B0FDF74EFF364D0646A5FB07389C
:10326000FF234FEA981804468DF80D3003E09DF8CF
:103270000D30FF2B20D1A41BBC421DD20DF10E013D
:103280000DF10D00FDF7EEFAFDF734FFA5FB00236D
:103290004FF47A729B0902FB13030446002BE6D11C
:1032A000811BA5FB01312448A8EB911102F0AEFA75
:1032B0009DF80D30FF2BDED0204802F02DFB9DF84D
:1032C0000D00FF2827D01E4B07AC1A680023BDF85D
:1032D0000E10019200941A46FDF7A0FB204605A9A6
:1032E00000F036F99DF818209DF81710154802F0E7
:1032F0008DFABDF80E3000251946204604AAE55483
:1033000000F084F9049969B10F4802F07FFA0120B6
:1033100066B0BDE8F0810D4802F0FEFA002066B00C
:10332000BDE8F0810A4802F0F7FA012066B0BDE876
:10333000F08100BFD34D621098BF0008F8A90008C3
:1033400050050020E4BF000800C00008A4BF00082A
:103350000CC000082DE9F04190F8F65086B02DB170
:103360003C4802F0D9FA06B0BDE8F081DFF82081D0
:103370000646394802F0D0FA4146384802F000FBD0
:10338000374802F0C9FA50214046FDF723FF35487F
:1033900002F0C2FA05A9344802F0F2FA304802F00D
:1033A000BBFA059F4FF47A7303FB07F72F4C0121FB
:1033B000CDF8008002950195224608464FF4BD7372
:1033C000059700F079F9074658B3294802F0A4FAA6
:1033D0007D1EADB22544013C14F8011F254802F0C2
:1033E00015FAAC42F8D1244C1D4802F095FA206839
:1033F0004000FDF7C9F8FF28054618D02368B6F845
:10340000F42003EB4303019300973146174BFDF77C
:103410006DF904280FD0194802F07EFA06B0BDE815
:10342000F081174802F078FA06B0BDE8F08115483F
:1034300002F072FA97E7144802F06EFA134802F0AD
:103440006BFA0598FFF702FF21682846FDF706F999
:1034500089E700BF24C0000888C00008E4A5000870
:10346000F8A90008BCC0000860AF0008040C0020E8
:1034700064C100087CC1000850050020A4C10008F8
:1034800004C1000884C10008CCC10008FCC10008C8
:10349000640B0020818003885B06FCD5704700BF69
:1034A0000B785BB101F1FF029BB2838003885B065E
:1034B000FCD511F8013F0BB19142F5D1704700BF27
:1034C00003889B06FCD58088C0B270472DE9F8437D
:1034D000054610460C461E4601F05AFC01F0CCF899
:1034E00080462046894601F0A5F80022174B01F0DE
:1034F00017F902460B464046494601F03BFA01F0F7
:1035000041FB074601F09CFC044601F041FC0146EA
:10351000384601F08BFB01F0AFF800220B4B01F0B5
:10352000FFF801F00FFB40EA041080B2288136B9A1
:1035300042F20C03AB8100232B80BDE8F88342F2FA
:103540002C03AB8100232B80BDE8F88300003040C2
:1035500003789B090B700378C3F301134B70037856
:1035600003F00F038B7043785B09CB70437803F053
:103570001F030B718278C37843EA0223CB80704724
:1035800070B4027814090E2C02F00F032FD00F2C08
:1035900026D00D2C12D0A4B201250E2B15D00F2B46
:1035A0001ED00D2B2CD09BB20E7842193444E81853
:1035B00080B20C704A604B7070BC704744780E2B20
:1035C0004FF0020504F10D04E9D14319425D5B7827
:1035D000023543EA022303F20D139BB2ADB2E3E7D7
:1035E000FF2A4FF6FF7070BC08BF01207047467875
:1035F0008478032544EA062404F20D14A4B2CCE72F
:10360000435D01350D33ADB2CEE700BF2DE9F04F7C
:10361000037883B09C09012C03D0002003B0BDE8DF
:10362000F08F03F00F03082B03D9022003B0BDE88D
:10363000F08F1C1D8C42154688460646477826D2D8
:10364000035D2044FF2B22D000230DF1080A994688
:103650004FF6FF7B0AF8083D01E0A04517D9514617
:10366000FFF78EFF0444A4B209F1010958451FFA7F
:1036700089F906EB04001CD0335DFF2B04D0B9F1AF
:103680000A0FEAD10420C9E7B9F10A0FFAD035B11F
:103690007B09022B05D000232B600520BEE7052007
:1036A000BCE707F01F000528F5D1013433192B6062
:1036B000B4E70320B2E700BF2DE9F04F604D83B0BF
:1036C0002C784FF0510E82F800E000F01F07002622
:1036D000DDF830E0D4701471577096709EF800C019
:1036E0000134BCF12F0F2C70BDF8388003D00020BE
:1036F00003B0BDE8F08F00295FD10F460525514C7E
:103700001646714620468022994602F0E2FA207859
:1037100000286AD000239E464B49013402E014F889
:10372000010B68B12F28FAD1092BE0D841F82340CA
:1037300004F801EC14F8010B5A1C93B20028F1D1E3
:10374000002B52D04D45D2D2044603F1FF3A1FFA66
:103750008AF3DFF8F4B00193A3B2002B69D00027FD
:10376000BA465BF8240002F0ACFA82B20C2A4FEAA7
:10377000840127D84AEA00006B1C70559DB2A2B1A3
:103780005BF80130681C197880B281457155AED95B
:103790001544ADB205E013F8011F315490B28145D4
:1037A000A5D9854200F10102F5D1019BA3421CD0AD
:1037B000A94504F10104CFD899E701280FD0374675
:1037C00005259CE705F1010E4AF00D0373550D38F0
:1037D0001FFA8EFE023506F80E00ADB2D0E7612169
:1037E000967151710725062789E70D9BFBB1B8F14A
:1037F000000F1CD0FF2373550D9B1A786B1C0235EC
:10380000ADB29BB2A945F2547FF671AF0D9B08F1A2
:10381000FF3292B21A4406E013F8010F70558DB2D0
:10382000A9457FF664AF9A4205F10101F4D128461B
:103830005EE7C7F10B07FFB23B014FFA83FA90E74F
:1038400028100020800F0020001000202DE9F043F8
:10385000914C0E46238AADF5017D190405466AD4C4
:103860008E4802F059F8DFF888828D4802F054F84B
:103870000124002721468B4801F0C8FF8A48FCF745
:1038800057FED8F800200023019200971A461946E7
:103890001846FCF7BFFD013450B9042CEAD1834827
:1038A00002F03AF8012528460DF5017DBDE8F083C8
:1038B0007F4802F031F87F4802F02EF801270DF121
:1038C0000B043946774801F0A1FF7B48FCF730FE36
:1038D000D8F80020002302EB8202019200941A46DD
:1038E0004FF4FA7103A8FCF795FD237883B9012DF5
:1038F0006AD0724903A802F0FFF9002875D0704819
:1039000002F00AF8012528460DF5017DBDE8F08397
:1039100040F6B830FDF7F4FB23780137002BE6D0F2
:10392000042FCED10025674801F0F6FF28460DF59B
:10393000017DBDE8F083644801F0EEFFFCF746FD31
:10394000FDF7F2FB614801F0E7FFFDF7D3FB238AA7
:1039500007461A0440F1928041F2873801E0414560
:1039600008D86420FDF7CCFBFDF7C4FB238AC11BFC
:103970001B04F4D441F6583399421CD8DFF8708107
:10398000534801F043FFD8F80020002302EB8202E5
:10399000019200931A4619461846FCF73BFD8146F2
:1039A000FDF7A8FB0446B9F1000F5AD0E11B4948C6
:1039B00001F02CFF59E70025474801F0ADFF2846EC
:1039C0000DF5017DBDE8F0835EB133784BB143491D
:1039D00003A802F091F9002852D0414801F09CFF61
:1039E00090E7404801F098FF8CE73F4E3F4803AD19
:1039F00001F092FF0FCE0FC596E8030085E80300A3
:103A000003A8FCF795FDD8F80020002302EB420242
:103A10000192009403A81A464FF4FA71FCF7FAFCDD
:103A20002578334E0DBB334801F076FF3248FCF762
:103A30007FFD33682A46019300942B462946284689
:103A4000FCF7E8FC2378ABB933682A4603EB830321
:103A5000019329462B4628460094FCF7DBFC012500
:103A600021E7264801F058FFA0E7254801F054FF60
:103A7000002518E7234801F04FFF14E700217DE7F8
:103A8000214801F049FF3346204A4FF4FA7103A858
:103A900002F040F8B4E700BF00000240B0C70008E1
:103AA000E8C7000850BA000860BA000804CA000855
:103AB00024CA000830CA000820C80008FCC8000852
:103AC0007CC9000854CA000880C60008DCC600088B
:103AD0003CC7000884C70008F8C6000870C8000882
:103AE000E8C8000830C8000864C9000814C9000804
:103AF00050050020ACC90008D8C900085CC7000800
:103B00008CC90008E8C9000884C80008CCC80008AF
:103B10002DE9704F8B4690B04B49924602F030FF32
:103B2000B0B14A4902F0BBF890B9044606AE464926
:103B3000002002F025FF0134E4B2054646F8040FE8
:103B40000028F4D1062C03D90C9B1B78412B04D000
:103B50000023184610B0BDE8708F079C204602F085
:103B6000B0F80328F4D9099E304602F0AAF80328D9
:103B7000EED9227804A88DF8102062788DF81250C2
:103B80008DF8112001F07CF9CDE90001A01C01F0B5
:103B900077F9327880468DF81020727804A88DF875
:103BA0001120B27889468DF813508DF8122001F05B
:103BB00067F9CDE90201F01C01F062F904460D46F7
:103BC000BBF1000F12D0089B40461B7849464E2B94
:103BD0004FF000021E4B21D000F0CCFEDDE90023A7
:103BE00000F0ECFB01F100418BE80300BAF1000F9B
:103BF00027D00A9B20461B782946452B4FF0000210
:103C0000134B14D000F0B6FEDDE9022300F0D6FB22
:103C100001F100418AE8030001239AE700F0AAFEBF
:103C2000DDE9002300F0CAFBCBE90001DEE700F08C
:103C3000A1FEDDE9022300F0C1FB0123CAE9000176
:103C400087E7012385E700BF98CA00089CCA0008DF
:103C500000004E40000000002DE9F04FAAA7D7E970
:103C600000670FF2AC29D9E900899BB09DF890401C
:103C7000CDE9166705468A460D929B46CDE9148923
:103C80009DF89460002C64D0A74801F045FEA74839
:103C9000FEF7FEFD5021A648FDF7BEFC8146002838
:103CA00068D1A44801F038FE4820FDF723FCA24E5D
:103CB000804611AB0DF1420210A91820FDF764FFF8
:103CC0003068FCF793FF9D4FBDF94410BDF94220C9
:103CD000BDF940E0CDF800800490CDF828905B4617
:103CE000DDE9148903910292CDF804E0DDE91612B2
:103CF0003846CDE90812CDE90689914AC82101F07C
:103D000009FF384601F0DDFF394602468D4801F0D3
:103D10007DFD002C59D031683846FDF73BF800286E
:103D200000F08581884801F0F7FD00231393139A72
:103D3000336886489A4280F09081FCF713FE139B0B
:103D4000013313930028F2D08049814801F05EFDD1
:103D5000D5E0804801F0E0FD2B7823B19AF80030DF
:103D6000002B40F06B817C4801F0D6FD00201BB099
:103D7000BDE8F08F16AA14A96D48FFF7C9FE814669
:103D8000002800F06F814FF00109002E8CD062A74F
:103D9000D7E90067714801F0BFFDDDE91601DDE9F3
:103DA0001423CDE90001CDF808906D4801F02EFDF7
:103DB0005BA3D3E90023CDE900676A48CDE914236A
:103DC000CDE9166701F022FD6EE7384601F079FF74
:103DD00080B24FF4BD73644A029021460197CDF83A
:103DE00000A00220FFF768FCADF84600BDF84610C1
:103DF0005E4889B201F00AFDADF84A40BDF84A209C
:103E0000BDF8463092B29BB29A421DD2564C27461C
:103E1000BDF84A3056489BB2E35C0F2BBDF84A30E0
:103E200088BF54489BB2F95C01F0F0FCBDF84A3001
:103E300001339BB2ADF84A30BDF84A20BDF8463098
:103E400092B29BB29A42E3D34B4801F065FD3068D1
:103E5000FCF79AFBFF28384C074600F00A81014620
:103E6000464801F0D3FCBDF84600236880B203EB5E
:103E7000430329460D9A8DE809003B4B3846FCF771
:103E800035FC042814BF3E483E4801F045FDFDF7CF
:103E900031F90023FF2280463B481393ADF84830A8
:103EA0008DF83F2001F038FD9DF83F108F4200F063
:103EB000E98041F2873401E0A3420DD812A90DF147
:103EC0003F00FCF7CFFCFDF715F99DF83F100546C4
:103ED0008F42C8EB0003EFD1BDF848202B4801F01A
:103EE00095FC9DF83F30BB4254D0294801F014FDA9
:103EF00031683846FCF7B2FB002800F0A6800120AC
:103F00001BB0BDE8F08F00BFE5D76A6A34503E4071
:103F10005D34643C4AF84D40D1AE42CA4F3E3E400B
:103F20009411178046F74D40A4CA00080CB9000848
:103F30002800002048CB000850050020B0130020C6
:103F400014CD0008B0CD0008D0CD00082C10002002
:103F500078CF0008B8CA0008CCCA000828CC0008EE
:103F600084CC0008CCCC00083412002008CE000815
:103F700024CE000828CE0008F8A900084CCE00087E
:103F800060CE000880CE0008ACCF00088CCE0008C0
:103F9000B4CE0008BDF848100029A6D0B1F5BD7F09
:103FA0006CD23368384C03EB430200230192009437
:103FB0001A463846FCF732FD204618A9FFF7C8FA22
:103FC000C8EB05039DF864209DF863102F4801F0AD
:103FD0001DFC2F4801F0A0FC0023ADF84A30BDF8CD
:103FE0004A30BDF848209BB29A4288BF25461AD96C
:103FF000BDF84A3027489BB2E35C0F2BBDF84A302E
:1040000088BF25489BB2E95C01F000FCBDF84A304E
:10401000BDF8482001339BB2ADF84A30BDF84A30B4
:104020009BB29A42E4D81D4801F076FC60E71C4838
:1040300001F072FC01201BB0BDE8F08F53460D9AD1
:104040002946184801F0E2FB24E63946164801F0FB
:10405000DDFB01201BB0BDE8F08F144801F05CFCD3
:10406000012084E6124801F057FC002E3FF41CAEFC
:104070008DE6104801F050FC002078E60E4801F073
:10408000C5FB35E7454627E734120020CCCE0008B3
:1040900004CF000824CE000828CE0008F8A90008A4
:1040A000ECCD00082CCB000848CF000898CF0008C2
:1040B0009CCB00082CCE00081CCF000870B5DCB0EB
:1040C000FDF7AEF800231A4603211820FDF732FD54
:1040D0006E4801F021FC4820FDF7FEF96C4801F024
:1040E0001BFC6C4801F018FC1BA8FDF76BF85B9BF0
:1040F000694A23F07F43934205D0684801F00CFCE5
:104100001BA8FEF78FFD43F69822579BA3F57A7301
:10411000934205D9624801F0FFFB4FF47A7357933D
:104120009DF89C302F2B13D05E4801F0F5FB47A97A
:104130009DF86201FFF78AFB002840F081805A4811
:1041400001F0EAFB5A9BDB073FD4FDF78BFFFCE74E
:10415000564B1B8A5A06E7D59DF863310F2BE3D1E6
:1041600047A99DF86201FFF771FB0446002878D04B
:104170004F4D05E04F4801F049FB3220FCF7C0FFEE
:1041800028684B4CFCF73EFE0028F3D04A4801F06B
:10419000C3FB216802A8FCF771FD0021BDF85C019A
:1041A000FCF79AFE41F27073579A9A4211D943482C
:1041B00001F02CFB2168012001EB4101FCF752FECC
:1041C000A0B93F4801F0A8FB10E03E48FDF74CFEC7
:1041D000BBE73D4801F0A0FB2168002001EB410155
:1041E000FCF740FE10B1394801F096FB41F27074C3
:1041F000002611E09DF864119DF86231BDF8602140
:104200000191009327A902AB1BA8FFF725FD002011
:10421000FCF780FFFCF7CCFE0120FCF77BFF579BEF
:10422000A342E7D9FCF780FF2A68002302EB820251
:10423000019200961A4619461846FCF7EBF8D9E7A2
:10424000234801F069FB1A4B0020196801EB41017A
:10425000FCF708FE00287FF475AF1E4801F05CFBF8
:1042600070E71D4801F058FB1BA88DF86341FCF76F
:1042700075FFBFF34F8F1949194BCA6802F4E0620A
:104280001343CB60BFF34F8FFEE700BFD8CF0008CA
:10429000F4CF000818D00008A555AA0038D00008AF
:1042A000ACD00008ACD3000800D1000800080240E0
:1042B0005005002038D20008F8A900086CD2000888
:1042C00088D20008C8C50008E0D200085CD3000806
:1042D00050D1000874D10008F8D1000800ED00E0CA
:1042E0000400FA050549064A064B9A42BEBF51F83A
:1042F000040B42F8040BF8E70348004728D70008EE
:104300000000002020010020810100082649274AE2
:10431000002301E041F8043B9142FBD3FFF7CEFEBE
:10432000FEE7FEE7FEE7FEE7FEE7FEE7FEE7FEE765
:10433000FEE7FEE7FEE7FEE7FEE7FEE7FEE7FEE755
:10434000FEE7FEE7FEE7FEE7FEE7FEE7FEE7FEE745
:10435000FEE7FEE7FEE7FEE7FEE7FEE7FEE7FEE735
:10436000FEE7FEE7FEE7FEE7FEE7FEE7FEE7FEE725
:10437000FEE7FEE7FEE7FEE7FEE7FEE7FEE7FEE715
:10438000FEE7FEE7FEE7FEE7FEE7FEE7FEE7FEE705
:10439000FEE7FEE7FEE7FEE7FEE7FEE7FEE7FEE7F5
:1043A000FEE7FEE7FEE7FEE720010020881400207C
:1043B00081F0004102E000BF83F0004330B54FEAD6
:1043C00041044FEA430594EA050F08BF90EA020F43
:1043D0001FBF54EA000C55EA020C7FEA645C7FEAD6
:1043E000655C00F0E2804FEA5454D4EB5555B8BFF9
:1043F0006D420CDD2C4480EA020281EA030382EA6A
:10440000000083EA010180EA020281EA0303362DFB
:1044100088BF30BD11F0004F4FEA01314FF4801CCE
:104420004CEA113102D0404261EB410113F0004FE0
:104430004FEA03334CEA133302D0524263EB430397
:1044400094EA050F00F0A780A4F10104D5F1200E35
:104450000DDB02FA0EFC22FA05F2801841F1000190
:1044600003FA0EF2801843FA05F359410EE0A5F164
:1044700020050EF1200E012A03FA0EFC28BF4CF095
:10448000020C43FA05F3C01851EBE37101F000454B
:1044900007D54FF0000EDCF1000C7EEB00006EEB58
:1044A0000101B1F5801F1BD3B1F5001F0CD34908E2
:1044B0005FEA30004FEA3C0C04F101044FEA445239
:1044C00012F5800F80F09A80BCF1004F08BF5FEAC0
:1044D000500C50F1000041EB045141EA050130BDA0
:1044E0005FEA4C0C404141EB010111F4801FA4F143
:1044F0000104E9D191F0000F04BF01460020B1FA98
:1045000081F308BF2033A3F10B03B3F120020CDACF
:104510000C3208DD02F1140CC2F10C0201FA0CF0AD
:1045200021FA02F10CE002F11402D8BFC2F1200C12
:1045300001FA02F120FA0CFCDCBF41EA0C019040C8
:10454000E41AA2BF01EB0451294330BD6FEA040411
:104550001F3C1CDA0C340EDC04F11404C4F12002FC
:1045600020FA04F001FA02F340EA030021FA04F30E
:1045700045EA030130BDC4F10C04C4F1200220FA65
:1045800002F001FA04F340EA0300294630BD21FAA3
:1045900004F0294630BD94F0000F83F4801306BF69
:1045A00081F480110134013D4EE77FEA645C18BF5D
:1045B0007FEA655C29D094EA050F08BF90EA020FF4
:1045C00005D054EA000C04BF1946104630BD91EAEC
:1045D000030F1EBF0021002030BD5FEA545C05D1EF
:1045E0004000494128BF41F0004130BD14F580042E
:1045F0003CBF01F5801130BD01F0004545F0FE41A2
:1046000041F470014FF0000030BD7FEA645C1ABFD6
:10461000194610467FEA655C1CBF0B46024650EA0D
:10462000013406BF52EA033591EA030F41F4002139
:1046300030BD00BF90F0000F04BF0021704730B5BF
:104640004FF4806404F132044FF000054FF0000194
:1046500050E700BF90F0000F04BF0021704730B555
:104660004FF4806404F1320410F0004548BF40422A
:104670004FF000013EE700BF42004FEAE2014FEA7F
:1046800031014FEA02701FBF12F07F4393F07F4F5A
:1046900081F06051704792F0000F14BF93F07F4F8C
:1046A000704730B54FF4607401F0004521F00041CF
:1046B00020E700BF50EA010208BF704730B54FF055
:1046C00000050AE050EA010208BF704730B511F05A
:1046D000004502D5404261EB41014FF4806404F192
:1046E00032045FEA915C3FF4DCAE4FF003025FEA14
:1046F000DC0C18BF03325FEADC0C18BF033202EB9C
:10470000DC02C2F1200300FA03FC20FA02F001FAF5
:1047100003FE40EA0E0021FA02F11444C1E600BF94
:1047200070B54FF0FF0C4CF4E06C1CEA11541DBF47
:104730001CEA135594EA0C0F95EA0C0F00F0DEF812
:104740002C4481EA030621EA4C5123EA4C5350EAF7
:10475000013518BF52EA033541F4801143F4801348
:1047600038D0A0FB02CE4FF00005E1FB02E506F0D9
:104770000042E0FB03E54FF00006E1FB03569CF02E
:10478000000F18BF4EF0010EA4F1FF04B6F5007F34
:1047900064F5407404D25FEA4E0E6D4146EB0606A6
:1047A00042EAC62141EA55514FEAC52040EA5E502F
:1047B0004FEACE2EB4F1FD0C88BFBCF5E06F1ED8D9
:1047C000BEF1004F08BF5FEA500E50F1000041EB10
:1047D000045170BD06F0004646EA010140EA0200BD
:1047E00081EA0301B4EB5C04C2BFD4EB0C0541EADF
:1047F000045170BD41F480114FF0000E013C00F3F4
:10480000AB8014F1360FDEBF002001F0004170BD17
:10481000C4F10004203C35DA0C341BDC04F1140430
:10482000C4F1200500FA05F320FA04F001FA05F2BC
:1048300040EA020001F0004221F0004110EBD37089
:1048400021FA04F642EB06015EEA430E08BF20EAB5
:10485000D37070BDC4F10C04C4F1200500FA04F358
:1048600020FA05F001FA04F240EA020001F00041EA
:1048700010EBD37041F100015EEA430E08BF20EA5D
:10488000D37070BDC4F1200500FA05F24EEA020EA5
:1048900020FA04F301FA05F243EA020321FA04F0D4
:1048A00001F0004121FA04F220EA020000EBD3708B
:1048B0005EEA430E08BF20EAD37070BD94F0000F8B
:1048C0000FD101F00046400041EB010111F4801FBF
:1048D00008BF013CF7D041EA060195F0000F18BF70
:1048E000704703F00046520043EB030313F4801FAC
:1048F00008BF013DF7D043EA0603704794EA0C0F66
:104900000CEA135518BF95EA0C0F0CD050EA41067B
:1049100018BF52EA4306D1D181EA030101F00041F8
:104920004FF0000070BD50EA410606BF1046194620
:1049300052EA430619D094EA0C0F02D150EA01362C
:1049400013D195EA0C0F05D152EA03361CBF10466D
:1049500019460AD181EA030101F0004141F0FE410C
:1049600041F470014FF0000070BD41F0FE4141F490
:10497000780170BD70B54FF0FF0C4CF4E06C1CEA90
:1049800011541DBF1CEA135594EA0C0F95EA0C0F45
:1049900000F0A7F8A4EB050481EA030E52EA033500
:1049A0004FEA013100F088804FEA03334FF0805521
:1049B00045EA131343EA12634FEA022245EA11154E
:1049C00045EA10654FEA00260EF000419D4208BFFF
:1049D000964244F1FD0404F5407402D25B084FEAAC
:1049E0003202B61A65EB03055B084FEA32024FF458
:1049F00080104FF4002CB6EB020E75EB030E22BFB5
:104A0000B61A754640EA0C005B084FEA3202B6EB74
:104A1000020E75EB030E22BFB61A754640EA5C0023
:104A20005B084FEA3202B6EB020E75EB030E22BFB3
:104A3000B61A754640EA9C005B084FEA3202B6EBB4
:104A4000020E75EB030E22BFB61A754640EADC0073
:104A500055EA060E18D04FEA051545EA16754FEAD5
:104A600006164FEAC30343EA52734FEAC2025FEAF3
:104A70001C1CC0D111F4801F0BD141EA00014FF082
:104A800000004FF0004CB6E711F4801F04BF014353
:104A90000020B4F1FD0C88BFBCF5E06F3FF6AFAE6F
:104AA000B5EB030C04BFB6EB020C5FEA500C50F1FF
:104AB000000041EB045170BD0EF0004E4EEA113182
:104AC00014EB5C04C2BFD4EB0C0541EA045170BD89
:104AD00041F480114FF0000E013C90E645EA060ECD
:104AE0008DE60CEA135594EA0C0F08BF95EA0C0FFB
:104AF0003FF43BAF94EA0C0F0AD150EA01347FF443
:104B000034AF95EA0C0F7FF425AF104619462CE719
:104B100095EA0C0F06D152EA03353FF4FDAE10467C
:104B2000194622E750EA410618BF52EA43067FF4CD
:104B3000C5AE50EA41047FF40DAF52EA43057FF45D
:104B4000EBAE12E74A0011D212F5001211D20DD5C8
:104B50006FF47873B3EB62520ED44FEAC12343F083
:104B6000004343EA505323FA02F070474FF000002D
:104B7000704750EA013002D14FF0FF3070474FF0DC
:104B8000000070474FEA4102B2F1E04324BFB3F5A1
:104B9000001CDCF1FE5C0DD901F0004C4FEAC002B4
:104BA0004CEA5070B2F1004F40EB830008BF20F098
:104BB0000100704711F0804F21D113F13872BCBF52
:104BC00001F00040704741F480114FEA5252C2F1A7
:104BD0001802C2F1200C10FA0CF320FA02F018BFF0
:104BE00040F001004FEAC1234FEAD32303FA0CFC43
:104BF00040EA0C0023FA02F34FEA4303CCE77FEAD2
:104C0000625307D150EA01331EBF4FF0FE4040F41B
:104C10004000704701F0004040F0FE4040F40000CA
:104C2000704700BF80F0004002E000BF81F000410B
:104C300042001FBF5FEA410392EA030F7FEA226C42
:104C40007FEA236C6AD04FEA1262D2EB1363C1BFD2
:104C5000D218414048404140B8BF5B42192B88BF41
:104C6000704710F0004F40F4000020F07F4018BF64
:104C7000404211F0004F41F4000121F07F4118BF84
:104C8000494292EA030F3FD0A2F1010241FA03FC2C
:104C900010EB0C00C3F1200301FA03F100F0004314
:104CA00002D5494260EB4000B0F5000F13D3B0F1DC
:104CB000807F06D340084FEA310102F10102FE2A4B
:104CC00051D2B1F1004F40EBC25008BF20F00100BB
:104CD00040EA03007047490040EB000010F4000F69
:104CE000A2F10102EDD1B0FA80FCACF1080CB2EBFC
:104CF0000C0200FA0CF0AABF00EBC250524218435B
:104D0000BCBFD0401843704792F0000F81F40001FF
:104D100006BF80F400000132013BB5E74FEA4103D2
:104D20007FEA226C18BF7FEA236C21D092EA030F3E
:104D300004D092F0000F08BF0846704790EA010FB8
:104D40001CBF0020704712F07F4F04D1400028BFE5
:104D500040F00040704712F100723CBF00F50000C7
:104D6000704700F0004343F0FE4040F400007047FD
:104D70007FEA226216BF08467FEA236301464202A9
:104D800006BF5FEA412390EA010F40F480007047BC
:104D90004FF0000304E000BF10F0004348BF404262
:104DA0005FEA000C08BF704743F0964301464FF09E
:104DB00000001CE050EA010208BF70474FF00003FA
:104DC0000AE000BF50EA010208BF704711F000433B
:104DD00002D5404261EB41015FEA010C02BF84460B
:104DE0000146002043F0B64308BFA3F18053A3F56A
:104DF0000003BCFA8CF2083AA3EBC25310DB01FAB1
:104E000002FC634400FA02FCC2F12002BCF1004F34
:104E100020FA02F243EB020008BF20F001007047C5
:104E200002F1200201FA02FCC2F1200250EA4C0019
:104E300021FA02F243EB020008BF20EADC7070475F
:104E400042000ED2B2F1FE4F0BD34FF09E03B3EBF4
:104E5000126209D44FEA002343F0004323FA02F020
:104E600070474FF00000704712F1610F01D142020C
:104E700002D14FF0FF3070474FF00000704700BF85
:104E8000002101F075BD0A22002101F05DBE000085
:104E900008B5074B044613B10021AFF30080054B62
:104EA0001868836A03B19847204605F029FA00BFC5
:104EB00000000000DCD300080E4B70B51E460E4CFF
:104EC0000025E41AA410A54204D056F825309847CE
:104ED0000135F8E705F016FA084B094C1E46E41AAE
:104EE000A4100025A54204D056F825309847013576
:104EF000F8E770BD180100201801002018010020FB
:104F00001C01002010B5431E0A44914204D011F840
:104F1000014B03F8014FF8E710BD034602449342EA
:104F200002D003F8011BFAE770472DE9F04788B07B
:104F3000149F002B1E461299B8BF03F1004327F0BF
:104F40002007B6BF1E4600232D23462F1446109D72
:104F5000DDF84CA00B7003D0452F03D1013501E0E3
:104F6000032300E0022307AA049206AA03928DE815
:104F700028042246334601F063FF472F804602D1C2
:104F8000119BDB0728D5462F08EB050911D198F8AE
:104F90000030302B0AD1002200232046314605F094
:104FA00011F918B9C5F10105CAF80050DAF8003056
:104FB0009944002200232046314605F003F908B940
:104FC000302202E0CDF81C9006E0079B994503D9FA
:104FD000591C07911A70F8E74046079B159AC8EBD1
:104FE0000303136008B0BDE8F087034673B50029DA
:104FF000B8BF494203F8022BB4BF2D222B22092946
:1050000042701ADD0DF1070216460A2591FBF5F4F0
:1050100005FB1411092C01F1300102F8011D214694
:10502000F4DC3031541E02F8011CB4421A460AD294
:1050300014F8012B03F8012BF7E71A46302421441A
:1050400002F8024B5970101A02B070BD2DE9F04FF2
:1050500091B00C46DDF8688016461F46054603F001
:105060004DF903681846099300F02BFE00230E93B8
:10507000D8F800300A90073323F0070303F1080241
:1050800094F81890D4F800B0C8F80020D3E90023B1
:10509000C4E91223D4F84CA0D4F848802AF0004385
:1050A0000B934FF0FF32A74B40460B9905F0BCF82D
:1050B000A0B94FF0FF32A34B40460B9905F096F88C
:1050C00060B9002200234046514605F085F810B132
:1050D0002D2384F843309C4B9C4A0AE042465346B9
:1050E0004046514605F0A0F8002800F09281984B08
:1050F000984AB9F1470F8CBF904698460323236125
:105100002BF0040323604FF0000A3DE0B9F1670F74
:1051100000F08A81B9F1470F00F086812360019386
:10512000636800210DF1330205900292009342461C
:1051300053460691CDF81090CDF80CE02846FFF7C5
:10514000F4FE09F0DF03472B804600F08481B9F1BB
:10515000650F0D9900F28D8101394A4604F1500026
:105160000D91FFF742FF0E9A82468318012A2361B0
:1051700000F37C812268D10700F178819DF83330FB
:1051800013B12D2384F84330009733460FAA2146EC
:10519000284600F09FF9013002D14FF0FF3096E130
:1051A00023685A0501D4236965E0B9F1650F40F21F
:1051B000D580D4E912010022002305F003F878B36A
:1051C0000123654A31462846B8470130E5D00E9B99
:1051D0000D9A9A420BDB2368D80708D423689B07F3
:1051E00040F111814FF0000804F1190906E10A9B12
:1051F000099A31462846B8470130CED04FF0000812
:1052000004F11A090E9B013B9845E7DA01234A464F
:1052100031462846B8470130BFD008F10108F1E710
:105220000D9B002B29DC01234B4A31462846B84709
:105230000130B2D00D9B23B90E9B13B92368D90757
:10524000CCD50A9B099A31462846B8470130A4D0EC
:105250004FF0000904F11A0A0D9B5B42994509DAE7
:105260000123524631462846B847013095D009F10E
:105270000109F1E70E9B4246A7E00E9AA36D9A4200
:10528000A8BF1A46002A914606DC4FF0000A29EA18
:10529000E97904F11A0B11E01346314642462846DB
:1052A000B8470130F1D178E701235A463146284604
:1052B000B84701303FF471AF0AF1010AA36DC9EBA1
:1052C00003029245F0DB08EB03090D9A0E9B9A420C
:1052D0000FDB2368DA070CD40E9B0D9A9844C9EBB8
:1052E00008089B1A9845A8BF9846B8F1000F08DC3B
:1052F0000FE00A9B099A31462846B8470130EBD1A6
:105300004BE743464A4631462846B84701303FF40A
:1053100044AF4FF0000928EAE87804F11A0A09E0DE
:105320000123524631462846B84701303FF435AF95
:1053300009F101090D9A0E9B9B1AC8EB03039945CD
:10534000EEDB4BE7FFFFEF7FE0D30008E4D300087C
:10535000E8D30008ECD3000816D700080E9A012AFB
:1053600001DCDB0738D50123424631462846B847E1
:1053700001303FF412AF0A9B099A31462846B847DC
:1053800001303FF40AAFD4E912010022002304F0F7
:1053900019FF20B14FF0000804F11A090EE00E9B2E
:1053A00008F10102013B19E001234A463146284633
:1053B000B84701303FF4F1AE08F101080E9B013B04
:1053C0009845F1DB534604F1500231462846B84770
:1053D00001307FF403AFE0E6424601233146284620
:1053E000B8470130EED1D8E601234A463146284677
:1053F000B84701303FF4D1AE08F10108E3680F9AD5
:105400009B1A9845F0DBE0680F9B9842B8BF18469E
:105410005DE062680EA8531C0DF1340E4BF48063FE
:105420007FF474AE062201E012B90122626075E6D3
:10543000002106910DF133018DE80C0023600590E9
:105440004246CDF81090CDF80CE002915346284624
:10545000FFF76BFD80460D9BD81C02DB6268934210
:105460001DDDA9F102095FFA89F970E601332361B4
:1054700084E6B9F1660F14D10029636807DD216164
:1054800013B92268D2071DD501330B4419E013B9B3
:105490002268D00701D5023313E0012311E04FF059
:1054A00067090D9B0E9A934205DB22682361D107A1
:1054B00008D5013305E0002BD4BFC3F1020301235B
:1054C000134423610D9B4FF0000AA36556E611B00B
:1054D000BDE8F08F2DE9F04791461F460A698B68B9
:1054E00006469342B8BF1346C9F8003091F84320EE
:1054F0000C46DDF8208012B10133C9F80030236872
:10550000990642BFD9F800300233C9F80030256847
:1055100015F0060510D104F1190A07E001235246DF
:1055200039463046C04701301AD00135E368D9F812
:1055300000209B1A9D42F1DB94F84330226800332F
:1055400018BF012392060FD5E118302081F84300DF
:105550005A1C94F845102244023382F8431003E0A9
:105560004FF0FF30BDE8F08704F143023946304682
:10557000C0470130F4D02268D9F80050E36802F047
:105580000602042A08BF5D1B2269A3680CBF25EA36
:10559000E57500259342C4BF9B1AED184FF0000932
:1055A0001A344D4509D00123224639463046C047BA
:1055B0000130D5D009F10109F3E70020BDE8F087FB
:1055C0002DE9F04317460A7E85B06E2A98460646B6
:1055D0000C460C9B01F1430E00F0AE8011D8632AFB
:1055E00022D009D8002A00F0BB80582A40F0CA8097
:1055F00081F84520834955E0642A1ED0692A1CD0D1
:10560000C0E0732A00F0B08009D86F2A2ED0702A2B
:1056100040F0B8800A6842F020020A603EE0752A35
:1056200024D0782A3AD0ADE01A6801F14205111D64
:105630001960136884F84230A8E021681A6811F0F4
:10564000800F02D0111D196008E011F0400F02F127
:105650000401196002D0B2F9003000E01368002B99
:105660003CDA2D225B4284F8432037E021681A6837
:1056700011F0800F02D0111D196007E011F0400FEA
:1056800002F10401196001D0138800E01368227E42
:105690005C496F2A14BF0A2208221BE078225A496B
:1056A00084F845202268186812F0800F00F1040584
:1056B0001D6003D1550601D5038800E00368D007BB
:1056C00044BF42F0200222601BB9226822F020026F
:1056D00022601022002084F8430001E049490A2298
:1056E0006568002DA56008DB206820F004002060BC
:1056F0002BB9002D7DD175460CE0002B79D0754675
:10570000B3FBF2F002FB1033CB5C05F8013D03461E
:105710000028F5D1082A0BD12368DA0708D52369B8
:1057200062689A42DEBF302305F8013C05F1FF357F
:10573000C5EB0E0323612EE008681A6810F0800F95
:10574000496903D0101D1860136808E010F0400F7D
:1057500002F104001860136801D0198000E019609C
:1057600000232361754616E01A68111D196015683B
:1057700000216268284602F03FFE08B1401B6060CD
:10578000636804E004F1420584F8422001232361A8
:10579000002384F84330CDF800803B4603AA21461D
:1057A0003046FFF797FE013002D14FF0FF3026E080
:1057B00023692A4639463046C0470130F5D0236870
:1057C0009B0710D5002504F1190907E001234A467B
:1057D00039463046C0470130E7D00135E368039AC7
:1057E0009B1A9D42F2DBE068039B9842B8BF1846C3
:1057F00005E00B7804F1420584F842308AE705B0F1
:10580000BDE8F083F0D3000801D400080FB40A4BC0
:1058100013B51C6824B1A36913B9204602F0AAF994
:1058200005AB049AA1682046019303F0BBFD02B0CA
:10583000BDE8104004B07047D800002038B5084BD0
:1058400005461C6824B1A36913B9204602F092F9F9
:10585000A26829462046BDE8384004F093B900BF4D
:10586000D800002070B50E46054618B183690BB903
:1058700002F080F9AB69AC6813B9284602F07AF9F6
:10588000224B9C4201D16C6808E0214B9C4201D123
:10589000AC6803E01F4B9C4208BFEC68A3891B0760
:1058A00001D523693BB92146284601F0BDF910B165
:1058B0004FF0FF3070BD013EA36816F8011F013B99
:1058C000A36091B1002B04DAA269934206DB0A2996
:1058D00004D023685A1C22601970EDE7224628463E
:1058E00001F03CF90130E7D1E2E7002B08DA22466B
:1058F0000A21284601F032F90130D9D00A2070BDC2
:1059000023680A205A1C2260187070BD78D50008E0
:1059100098D50008B8D50008024B01461868FFF773
:10592000A1BF00BFD800002038B50C46054618B10D
:1059300083690BB902F01EF90E4B9C4201D16C68D1
:1059400008E00D4B9C4201D1AC6803E00B4B9C423C
:1059500008BFEC682146284604F066F938B9636848
:10596000013B636023685A1C2260187838BD4FF0F1
:10597000FF3038BD78D5000898D50008B8D50008A4
:105980000FB40A4B13B51C6824B1A36913B92046A0
:1059900002F0F0F805AB049A61682046019303F029
:1059A00071FF02B0BDE8104004B07047D80000207D
:1059B00000294FF480630CBF0222002200F000B8DF
:1059C0002DE9F7431D464F4B04461E680F4690468F
:1059D00026B1B36913B9304602F0CCF84A4B9C4269
:1059E00001D1746808E0494B9C4201D1B46803E0DE
:1059F000474B9C4208BFF468B8F1020F04D0B8F1DD
:105A0000010F79D8002D77DB2146304602F036F8B9
:105A1000616B41B104F14403994202D0304603F076
:105A2000F1F8002363630023A3616360A3891B066D
:105A300003D52169304603F0E5F8A389B8F1020FD8
:105A400023F44A6323F00303A3811ED001AB6A460B
:105A50002146304602F068FCA3891843A0810DB9A5
:105A6000009D00E02FBB284602F0BEFC0746D0B9DF
:105A7000DDF80090A94502D14FF0FF3006E048461E
:105A800002F0B2FC074678B9F6E70020A38943F09C
:105A90000203A3810023A36004F147032360236171
:105AA000012363612AE0A9464D46A38943F08003A0
:105AB000A381B36913B9304602F05CF8B8F1010F65
:105AC00008BFA389276004BF43F00103A381A38912
:105AD000276103F0080080B2656158B113F001033B
